:100000000C9446000C9465000C9465000C946500FB
:100010000C9465000C9465000C9465000C946500CC
:100020000C9465000C94B3000C9465000C9465006E
:100030000C9481000C9465000C9465000C942004D1
:100040000C9465000C9465000C9465000C9465009C
:100050000C9465000C9465000C9465000C9465008C
:100060000C9465000C9465000C9465000C9465007C
:100070000C9465000C9465000C9465000C9465006C
:100080000C9465000C9465000C94650011241FBE4F
:10009000CFEFD0E1DEBFCDBF11E0A0E0B1E0E2E004
:1000A000F9E100E00BBF02C007900D92AC32B1073E
:1000B000D9F721E0ACE2B1E001C01D92AF37B20741
:1000C000E1F70E94F20A0C947F0C0C9400008091DE
:1000D00015019091160101969093160180931501D8
:1000E0001092140110921301809115019091160144
:1000F0000D9734F081E090E0909316018093150104
:1001000008951F920F920FB60F9211242F933F93D1
:100110008F939F9320911501309116018091670173
:10012000909168012817390749F09F918F913F916D
:100130002F910F900FBE0F901F90189520911301D3
:10014000309114018091650190916601281739075B
:1001500061F780913301803441F3139A95B381E0C4
:10016000892785BBE2CF1F920F920FB60F92112401
:100170008F938091690183BD8F910F900FBE0F9077
:100180001F9018958091190190911A019093680120
:1001900080936701809142019091430190936601A1
:1001A0008093650108952091150130911601809189
:1001B0006701909168012817390719F080E090E0F5
:1001C00008954091130150911401209165013091DF
:1001D000660181E090E04217530791F380E00895B3
:1001E0008091420190914301CC9724F010924301F9
:1001F00010924201809142019091430197FD17C0F6
:100200008091190190911A01489724F010921A01D7
:10021000109219018091190190911A0197FF089588
:1002200087E190E090931A018093190108958BE380
:1002300090E09093430180934201E2CF809142018C
:1002400090914301CC9724F0109243011092420107
:10025000809142019091430197FD1BC0809119014B
:1002600090911A010D9734F081E090E090931A017B
:10027000809319018091190190911A01181619069D
:100280000CF408958CE090E090931A01809319018A
:1002900008958BE390E09093430180934201DECF79
:1002A0008091130190911401CC9724F010921401C5
:1002B00010921301809113019091140197FD17C0C2
:1002C0008091150190911601489724F01092160123
:1002D00010921501809115019091160197FF0895D4
:1002E00087E190E0909316018093150108958BE3C8
:1002F00090E09093140180931301E2CF8091130159
:1003000090911401CC9724F01092140110921301D3
:10031000809113019091140197FD1BC080911501EC
:10032000909116010D9734F081E090E090931601C2
:1003300080931501809115019091160118161906E8
:100340000CF408958CE090E09093160180931501D1
:1003500008958BE390E09093140180931301DECF16
:10036000CC9709F0089580911301909114010196A2
:1003700090931401809313018091130190911401C3
:100380001092390110923801CC9764F30C946700F5
:10039000CC9709F008958091130190911401019672
:1003A0009093140180931301809113019091140193
:1003B0001092390110923801CC9764F380911501A5
:1003C0009091160101969093160180931501109259
:1003D0001401109213018091150190911601489714
:1003E000CCF21092160110921501089581309105FA
:1003F00031F1009731F08230910581F1039781F05E
:100400000895209134013091350180911901909126
:100410001A01821B930B90931A018093190108957E
:100420002091340130913501809142019091430136
:10043000820F931F9093430180934201089520916E
:100440003401309135018091190190911A01820F88
:10045000931F90931A0180931901089520913401FC
:10046000309135018091420190914301821B930BA1
:10047000909343018093420108958130910531F1B9
:10048000009731F08230910581F1039781F0089552
:100490002091340130913501809115019091160120
:1004A000821B930B90931601809315010895209160
:1004B0003401309135018091130190911401820F24
:1004C000931F909314018093130108952091340198
:1004D000309135018091150190911601820F931F83
:1004E0009093160180931501089520913401309165
:1004F00035018091130190911401821B930B90930D
:1005000014018093130108951E988FE99FE00197CD
:10051000F1F700C000001E9A80E28FB9779BFECFF2
:100520008FB180936C0108958FB9779BFECF929A1B
:1005300092980895AC0199B3FA01EE0FFF1FE95BA1
:10054000FE4F20813181220F331F306E892F90E0C2
:1005500002C0959587954A95E2F781709927282BD7
:10056000392B3183208381E090E02115304F11F049
:1005700080E090E00895CF93DF93FC01EB010097BA
:1005800009F044C08091000180930D0180930E0119
:100590009E01ADECBCEC0E943A0CAC01569547951F
:1005A00056954795569547959A01220F331FCA01D4
:1005B000880F991F880F991F880F991F820F931F0B
:1005C000C81BD90BC050DF4F8881809310019A015E
:1005D0000E943A0C9695879596958795969587955E
:1005E0009C01220F331F880F991F880F991F880FB6
:1005F000991F820F931F481B590BFA01E050FF4FC0
:10060000808180931101DF91CF9108959C01ADEC21
:10061000BCEC0E943A0CAC0156954795569547950F
:10062000569547959A01220F331FCA01880F991FCB
:10063000880F991F880F991F820F931FE81BF90BD2
:10064000E050FF4F808180930D014115510509F461
:100650009FCF9A01ADECBCEC0E943A0C9695879521
:1006600096958795969587959C01220F331F880F45
:10067000991F880F991F880F991F820F931F481B7E
:10068000590BFA01E050FF4F808180930E0180CF1B
:10069000CF9390916C01917080916C0141E0C82FD3
:1006A000C27081FF40E080916C01847020916C01E8
:1006B00031E0522F587023FF30E0E1E0F0E081118B
:1006C00002C0E0E0F0E060915F0170916001232FD3
:1006D00030E0E617F70709F472C060915F0170918E
:1006E0006001811111C0552389F0672B91F460914D
:1006F0002C0170912D016F5F7F4F70932D016093DE
:100700002C01AFEFBFEF11C0511171C06130710505
:1007100071F360912C0170912D01615071097093FA
:100720002D0160932C01AFEFBFEFF0936001E093D8
:100730005F013093640120936301292F30E06091C1
:100740005A0170915B0150E02617370781F1992318
:10075000E1F080915A0190915B01C1113BC001977A
:10076000E1F080912E0190912F01019790932F013C
:1007700080932E0130935B0120935A0150935D01C9
:1007800040935C01CD01CF91089580915A019091E1
:100790005B01CC2321F3892B21F780912E019091CD
:1007A0002F01019690932F0180932E01E3CF60914A
:1007B0005C0170915D014617570749F6E3CF6091E0
:1007C0006301709164012617370709F086CFAFEFF8
:1007D000BFEFB3CF892BD9F480912E0190912F01D7
:1007E000039741F110922F0110922E01C3CF672B76
:1007F000B9F460912C0170912D0163307105E9F01D
:10080000AFEFBFEF10922D0110922C018ECF80918F
:100810002E0190912F01039629F7A1E0B0E0E2CFDD
:1008200060912C0170912D016D3F7F4F49F7A3E03E
:10083000B0E0E8CFA0E0B0E0D5CFA2E0B0E0E2CFFA
:100840001F920F920FB60F9211240BB60F922F9397
:100850003F934F935F936F937F938F939F93AF9348
:10086000BF93EF93FF93909157019F5F9093570130
:10087000892F8F7319F487E080930F019F7789F494
:100880008CE080930F0120913801309139018091E3
:10089000170190911801820F931F90933901809353
:1008A00038018BB38093590188B380935E0180E552
:1008B00088BB8FE891E00197F1F700C0000029B3F1
:1008C0008091470190914801880F991F906E622F87
:1008D000617070E0862B972B9093480180934701BD
:1008E0008115904F31F49091330180E489278093F2
:1008F000330189B320914D0130914E01220F331FF6
:10090000306E83FBEE27E0F9F0E02E2B3F2B309387
:100910004E0120934D012115304F31F49091330158
:1009200084E089278093330129B380914B01909112
:100930004C01880F991F906E22FB442740F950E02C
:10094000842B952B90934C0180934B018115904FF4
:1009500031F49091330180E289278093330199B378
:100960002091550130915601220F331F306E892F8F
:1009700090E0880F892F881F990B822B932B9093DF
:100980005601809355018115904F31F490913301B8
:1009900088E089278093330180E788BB1E988FE920
:1009A0009FE00197F1F700C000001E9A80E28FB926
:1009B000779BFECF8FB180936C010E944803909388
:1009C00031018093300180913001909131010E947A
:1009D0003D02809133018FB9779BFECF929A929816
:1009E000809159018BBB80915E0188BB8FEF8ABBE0
:1009F000FF91EF91BF91AF919F918F917F916F91F7
:100A00005F914F913F912F910F900BBE0F900FBEB2
:100A10000F901F901895CF93DF93AC010097B9F416
:100A20008091000180930D0180910B0180930F0153
:100A3000E0E0F0E080910A01A3E1B1E0E25FFE4F67
:100A40008E93AE17BF07E1F7DF91CF9108959C0118
:100A5000ADECBCEC0E943A0C9695879596958795DF
:100A6000969587959C01220F331F880F991F880F39
:100A7000991F880F991F820F931F9A01281B390B0A
:100A8000C901E0E0F0E0DF01A35FBE4FEC01C05020
:100A9000DF4F88818C939A01ADECBCEC0E943A0C3C
:100AA000AC0156954795569547955695479531967D
:100AB0004115510501F19A01ADECBCEC0E943A0CD4
:100AC0009695879596958795969587959C01220F83
:100AD000331F880F991F880F991F880F991F820F46
:100AE000931F9A01281B390BC901E230F10559F611
:100AF000E3E0F0E0C8CF80910B0180930F01E53077
:100B0000F1050CF497CFDF91CF91089588B38F7AD8
:100B100088BBEDE0F1E081918BBB8FE99FE001970D
:100B2000F1F700C0000088B3805F88BB91E0E2313C
:100B3000F90789F7089587B3876087BB8DB1806512
:100B40008DB9709AE1E6F0E0808188608083E2E60A
:100B5000F0E08081877F808387B3806F87BB88B315
:100B60008F7A88BB83E08ABB84E081BB169A1E9A89
:100B7000089588E082B982E880938B00EAE8F0E08B
:100B80008081896180838AE090E0909381008093E6
:100B9000800010928700109286000895A09A1FBCD2
:100BA00087B7806187BF8FE99FE09BBD8ABD8EB507
:100BB00088608EBD089580B7886080BF87B78260E7
:100BC00087BF83B7896083BF8CE381BF089585B5F4
:100BD000896685BD87B7806887BF14BC0895E1E644
:100BE000F0E080818F778083E2E6F0E080818F778C
:100BF000808387E687B987E886B9089591E08111F7
:100C000001C090E09FB9779BFECF6FB9779BFECF75
:100C10008091620088608093620080916200877F8B
:100C2000809362008FE99FE00197F1F700C0000018
:100C3000089521E02FB9779BFECF20915801FC0148
:100C4000E20FF11D80818FB9779BFECF809162000A
:100C500088608093620080916200877F8093620049
:100C6000809158018F5F80935801803109F1803263
:100C700009F0089595ED9A95F1F700001FB8779B5C
:100C8000FECF82E08FB9779BFECF809162008860B3
:100C90008093620080916200877F809362008FE979
:100CA0009FE00197F1F700C00000109258010895ED
:100CB00085ED8A95F1F700001FB8779BFECF80EC99
:100CC0008FB9779BFECF809162008860809362002D
:100CD00080916200877F809362008FE99FE0019797
:100CE000F1F700C0000080915801C1CF660F660F78
:100CF000660F605C1FB8779BFECF6FB9779BFECF06
:100D00002091620028602093620020916200277F7A
:100D100020936200AFE9BFE01197F1F700C0000037
:100D2000FC019C01285F3F4F91E081919FB9779B27
:100D3000FECF8FB9779BFECF809162008860809351
:100D4000620080916200877F80936200AFE9BFE01C
:100D50001197F1F700C00000E217F30731F708958B
:100D600090E4899F600D1124605C1FB8779BFECFD3
:100D70006FB9779BFECF809162008860809362009C
:100D800080916200877F809362008FE99FE00197E6
:100D9000F1F700C000000895811119C081E08FB9FA
:100DA000779BFECF80E38FB9779BFECF8091620067
:100DB00088608093620080916200877F80936200E8
:100DC0008FE99FE00197F1F700C000000895843695
:100DD000B0F48A3090F591E09FB9779BFECF9DECFF
:100DE000899F912D1124969596959695FAE09F9F4F
:100DF00080191124805D8FB9779BFECFD7CF99E200
:100E0000899F912D112492959F70905D21E02FB9BB
:100E1000779BFECF9FB9779BFECF90916200986041
:100E20009093620090916200977F90936200EFE947
:100E3000FFE03197F1F700C0000099E2899F912D02
:100E4000112492959F70282FF4E69F9F201911245A
:100E5000922F2DEC929F912D112496959695969513
:100E6000905D21E02FB9779BFECF9FB9779BFECF96
:100E70009091620098609093620090916200977FD9
:100E800090936200EFE9FFE03197F1F700C00000B6
:100E9000A2CF87FF0C94CC0691E09FB9779BFECF41
:100EA0009DE29FB9779BFECF9091620098609093EE
:100EB000620090916200977F90936200EFE9FFE0FB
:100EC0003197F1F700C0000081950C94CC061FB853
:100ED000779BFECF8EE08FB9779BFECF809162002B
:100EE00088608093620080916200877F80936200B7
:100EF0008FE99FE00197F1F700C0000008951FB847
:100F0000779BFECF8CE08FB9779BFECF80916200FC
:100F100088608093620080916200877F8093620086
:100F20008FE99FE00197F1F700C0000008951FB816
:100F3000779BFECF8EE18FB9779BFECF80916200C9
:100F400088608093620080916200877F8093620056
:100F50008FE99FE00197F1F700C0000008951FB8E6
:100F6000779BFECF88E18FB9779BFECF809162009F
:100F700088608093620080916200877F8093620026
:100F80008FE99FE00197F1F700C000000895E2E6C5
:100F9000F0E08081886080838081877F80830895EE
:100FA0001FB8779BFECF81E08FB9779BFECF8091F2
:100FB000620088608093620080916200877F8093E6
:100FC00062008FE99FE00197F1F700C000000895EB
:100FD0001FB8779BFECF82E08FB9779BFECF8091C1
:100FE000620088608093620080916200877F8093B6
:100FF00062008FE99FE00197F1F700C000000895BB
:101000001FB8779BFECF80EC8FB9779BFECF809186
:10101000620088608093620080916200877F809385
:1010200062008FE99FE00197F1F700C0000008958A
:1010300090E131E020E23FB9779BFECF2FB9779B5B
:10104000FECF809162008860809362008091620090
:10105000877F80936200EFE9FFE03197F1F700C0EE
:101060000000915041F7089591E09FB9779BFECF22
:101070008FB9779BFECF8091620088608093620079
:1010800080916200877F809362008FE99FE00197E3
:10109000F1F700C000000895FC0140E050E060E07E
:1010A00071E0DF01A40FB51F8C917FB9779BFECF54
:1010B0008FB9779BFECF9091620098609093620009
:1010C00090916200977F909362008FE99FE0019773
:1010D000F1F700C000006F5F462F50E0DF010D9078
:1010E0000020E9F79D012E1B3F0B225031092417E8
:1010F0003507B8F608958FEF99EF0197F1F700C023
:10110000000088E0809361001FB8779BFECF80E3EA
:101110008FB9779BFECF80916200886080936200D8
:1011200080916200877F809362008FE99FE0019742
:10113000F1F700C000001FB8779BFECF80E38FB9A6
:10114000779BFECF809162008860809362008091DF
:101150006200877F809362008FE99FE00197F1F73B
:1011600000C000001FB8779BFECF80E38FB9779B4C
:10117000FECF80916200886080936200809162005F
:10118000877F809362008FE99FE00197F1F700C0AD
:1011900000001FB8779BFECF88E38FB9779BFECF07
:1011A0008091620088608093620080916200877FF6
:1011B000809362008FE99FE00197F1F700C0000083
:1011C0001FB8779BFECF88E08FB9779BFECF8091C9
:1011D000620088608093620080916200877F8093C4
:1011E00062008FE99FE00197F1F700C000001FB88F
:1011F000779BFECF81E08FB9779BFECF8091620015
:1012000088608093620080916200877F8093620093
:101210008FE99FE00197F1F700C000001FB8779BAE
:10122000FECF86E08FB9779BFECF80916200886009
:101230008093620080916200877F809362008FE9D3
:101240009FE00197F1F700C000001FB8779BFECF29
:101250008CE08FB9779BFECF80916200886080938D
:10126000620080916200877F809362008FE99FE037
:101270000197F1F700C0000008954F925F926F92BE
:101280007F928F929F92AF92BF92CF92DF92EF9216
:10129000FF920F931F93CF93DF93CDB7DEB769977C
:1012A0000FB6F894DEBF0FBECDBF142F422E5E2CBA
:1012B000002379F06B017C01CC24F7FCC394DD247E
:1012C000EE24FF240C2D6B017C0197FDA5C0C70106
:1012D000B601442009F498C09E012F5F3F4F590189
:1012E000490166246A94640C712C3FEF631A730AF7
:1012F0006A0C7B1C2AE030E040E050E00E941B0CAE
:10130000E62F2A8B3B8B4C8B5D8B6A897B898C8982
:101310009D8920E32E0FF40121934F016E167F0665
:1013200049F799249394940CF501E40DF11D2EE2F4
:1013300020832AE030E040E050E00E941B0CE62FC2
:101340002A8B3B8B4C8B5D8B6E8B7F8B888F998F21
:101350006A897B898C899D8931E0390DD501A90D78
:10136000B11DE05DEC93932E61157105810591052A
:1013700001F7112361F051104DC090E2311738F49C
:10138000F501E30FF11D90833F5F1313F9CF0023A5
:1013900031F0F501E30FF11D9DE290833F5F21E005
:1013A0003150F501E30FF11D90812FB9779BFECFEE
:1013B0009FB9779BFECF90916200986090936200F6
:1013C00090916200977F909362008FE99FE0019770
:1013D000F1F700C000003111E3CF69960FB6F89421
:1013E000DEBF0FBECDBFDF91CF911F910F91FF9058
:1013F000EF90DF90CF90BF90AF909F908F907F90B5
:101400006F905F904F900895912C9E012F5F3F4FFA
:1014100059018FCF90E3B2CFF094E094D094C09470
:10142000C11CD11CE11CF11C52CF5F926F927F92C4
:101430008F929F92AF92BF92CF92DF92EF92FF92E4
:101440000F931F93CF93DF93CDB7DEB761970FB69E
:10145000F894DEBF0FBECDBF5C01962E542E622ED7
:101460008B2C881C8824881C782C9C0197FD9FC09D
:10147000552009F490C08E010F5F1F4F7801CC24D6
:10148000CA94C50CD12C8FEFC81AD80AC00ED11E31
:101490006AE070E0C9010E94070C462F242F372F05
:1014A000805DF70181937F01EC15FD0589F7FF242D
:1014B000F394F50CF801E50DF11D8EE2808301C077
:1014C000F92E6AE070E0C9010E94070C462F242F14
:1014D000372F91E09F0DF801EF0DF11D805D8083A6
:1014E0002115310569F761105BC0B7FC65C0992013
:1014F000B1F0682D70E080E2292F30E0492D50E0F6
:10150000461B570B2417350754F49F5FF801E20F71
:10151000F31F8083292F30E024173507B4F3772099
:1015200031F0F801E90FF11D8DE280839F5F21E02A
:101530009150F801E90FF11D80812FB9779BFECF03
:101540008FB9779BFECF80916200886080936200A4
:1015500080916200877F80936200EFE9FFE031971E
:10156000F1F700C000009111E3CF61960FB6F89437
:10157000DEBF0FBECDBFDF91CF911F910F91FF90C6
:10158000EF90DF90CF90BF90AF909F908F907F9023
:101590006F905F900895F12C8E010F5F1F4F91CFD8
:1015A000992009F4BCCF682D70E080E3A5CF2227F5
:1015B0003327281B390B5CCFF394F394F801E90F20
:1015C000F11D8DE28083992059F02F2D30E0492DB7
:1015D00050E02417350724F49F2D712C80E295CF1D
:1015E0009F2DA5CF8FEF8ABB0E949B050E947B0891
:1015F0000E94D007809161008F7780936100809175
:1016000062008F778093620087E687B987E886B9A2
:1016100085B5896685BD87B7806887BF14BCA09AE9
:101620001FBC87B7806187BF8FE99FE09BBD8ABDE4
:101630008EB588608EBD80B7886080BF87B78260B6
:1016400087BF83B7896083BF8CE381BF88E082B99D
:1016500082E880938B0080918A00896180938A0060
:101660008AE090E090938100809380001092870040
:10167000109286007894C1E0D0E0EE24EA94FE2C2B
:101680000AE010E0DD24DA949FE7C92E369A349BF5
:10169000FECF349A85B190E090936A0180936901FE
:1016A00080913301883009F4A9C0803409F487C0DF
:1016B000843009F465C080911301909114018091E8
:1016C000380190913901CC9709F443C00E947E0102
:1016D000DBBA80913E0190913F01019749F1609101
:1016E00015017091160180911301909114010E94CF
:1016F000BB0218BAEDE0F1E080E0982F9295907F60
:1017000098BB91919BBBAFE9BFE01197F1F700C087
:1017100000008F5F853089F780913C0190913D01F9
:10172000019711F0DABAB2CF18BACBBADABAAECFA3
:101730006091190170911A018091420190914301C9
:101740000E94BB028BE191E00E944C080E94E807D6
:10175000D0CF8091130190911401019690931401C0
:10176000809313018091130190911401109239011B
:1017700010923801CC970CF4A9CF0E946700A6CF35
:10178000809167019091680190936E0180936D0143
:10179000F0926801E09267018091380190913901DF
:1017A000B8010E94070C892B09F085CF80916D014B
:1017B00090916E0190936801809367017CCFD093E4
:1017C0003F01C0933E01D0933D01C0933C01D093B3
:1017D0003501C09334010E941E018091190190913E
:1017E0001A01909368018093670180914201909162
:1017F000430190936601809365015DCFD0933501DD
:10180000C0933401109218011092170154CF97FB26
:10181000072E16F4009407D077FD09D00E94490CDA
:1018200007FC05D03EF4909581959F4F08957095E3
:1018300061957F4F0895052E97FB1EF400940E943A
:10184000320C57FD07D00E945D0C07FC03D04EF40C
:101850000C94320C50954095309521953F4F4F4F49
:101860005F4F089590958095709561957F4F8F4F4C
:101870009F4F0895A29FB001B39FC001A39F700D19
:10188000811D1124911DB29F700D811D1124911D88
:101890000895AA1BBB1B51E107C0AA1FBB1FA617B7
:1018A000B70710F0A61BB70B881F991F5A95A9F709
:1018B00080959095BC01CD010895A1E21A2EAA1B36
:1018C000BB1BFD010DC0AA1FBB1FEE1FFF1FA217F0
:1018D000B307E407F50720F0A21BB30BE40BF50BED
:1018E000661F771F881F991F1A9469F76095709576
:1018F000809590959B01AC01BD01CF010895F894AE
:02190000FFCF17
:10190200C0F9A4B0999282F88098FF077FFF000087
:101912000000003B000C0001000C00616C61726D64
:0C192200000000000000000000000000B9
:00000001FF
