:100000000C9446000C9465000C9465000C946500FB
:100010000C9465000C9465000C9465000C946500CC
:100020000C9465000C9465000C9465000C946500BC
:100030000C9465000C9465000C9465000C946500AC
:100040000C9467000C9465000C9465000C9465009A
:100050000C9465000C9465000C9465000C9465008C
:100060000C9465000C9465000C9465000C9465007C
:100070000C9465000C9465000C9465000C9465006C
:100080000C9465000C9465000C94650011241FBE4F
:10009000CFEFD0E1DEBFCDBF11E0A0E0B1E0E6E8F8
:1000A000F4E000E00BBF02C007900D92A231B1074F
:1000B000D9F721E0A2E1B1E001C01D92A931B20758
:1000C000E1F70E946A010C9441020C9400001F9217
:1000D0000F920FB60F9211240F900FBE0F901F902A
:1000E000189581FB992790F94091170150911801BB
:1000F000440F551F406E282F217030E0242B352BE4
:100100003093180120931701203F310511F4892FF6
:1001100008958FEF089549B320911501309116018C
:10012000220F331F306E842F817090E0282B392BE3
:10013000309316012093150181E02115304F09F00D
:1001400080E0089549B32091130130911401220FEA
:10015000331F306E41FB882780F990E0282B392B24
:10016000309314012093130181E02115304F09F0E1
:1001700080E0089569B38091150190911601880F70
:10018000991F906E262F217030E0822B932B909335
:100190001601809315018115904FB1F029B380911C
:1001A000130190911401880F991F906E21FB442731
:1001B00040F950E0842B952B909314018093130108
:1001C0008115904F19F0089580E0089581E0089519
:1001D0008DB180658DB90895CF93DF93AC01009701
:1001E000B9F48091000180930C0180910B01809300
:1001F0000E01E0E0F0E080910A01A2E1B1E0E35FEE
:10020000FE4F8E93AE17BF07E1F7DF91CF910895B0
:100210009C01ADECBCEC0E943202969587959695B8
:100220008795969587959C01220F331F880F991FFC
:10023000880F991F880F991F820F931F9A01281BFF
:10024000390BC901E0E0F0E0DF01A45FBE4FEC0133
:10025000C050DF4F88818C939A01ADECBCEC0E94BA
:100260003202AC0156954795569547955695479558
:1002700031964115510501F19A01ADECBCEC0E949B
:1002800032029695879596958795969587959C01C8
:10029000220F331F880F991F880F991F880F991FEE
:1002A000820F931F9A01281B390BC901E230F10517
:1002B00059F6E3E0F0E0C8CF80910B0180930E0186
:1002C000E530F1050CF497CFDF91CF9108950895B3
:1002D000929A089587B3806F87BB83E08ABB84E0DE
:1002E00081BB87B3876087BB8FEF82B98DB1806593
:1002F0008DB987B7816087BF83B7856083BFE12CE5
:10030000F12C00E010E0C12CD12CC0E0D0E0BB24E7
:10031000BA9461E2962E70E7A72EBBBA8FE891E0FF
:100320000197F1F700C000001E981E9A9FB8779BB6
:10033000FECF8FB180931201982F91708270A2E04E
:10034000CA16D104C9F1B3E0CB16D10409F43EC0FA
:10035000CA94CD2809F44BC0911172C0882309F4C6
:100360004AC00F5F1F4F42E0C42ED12C043011054C
:1003700009F42196A8BAC11524E0D207C4F4CE012D
:100380000E94EC0018BAECE0F1E080E0982F929522
:10039000907F98BB91919BBBAFE8B1E01197F1F7CB
:1003A00000C000008F5F853089F7BABAB6CF80E011
:1003B00090E0C0E0D0E0E4CF911131C081110AC0DB
:1003C0000F5F1F4F23E0C22ED12CD0CF91112EC032
:1003D000882361F2AFEFEA1AFA0AB1E0EB16F104F2
:1003E000D1F101E010E092E0C92ED12CC3CF9111E0
:1003F0000BC08111EFCF9FEFE91AF90A02E010E07C
:1004000033E0C32ED12CB6CF811113C00F5F1F4F25
:100410000130110531F0CC24C394D12CA7CF88230F
:10042000A9F300E010E0C12CD12CA4CF81119ECF04
:10043000EDCF0F5F1F4FE12CF12CC12CD12C96CFAB
:100440008111F7CF8FEFE81AF80A03E010E0CC240F
:10045000C394D12C8FCFE12CF12C01E010E0C12C02
:10046000D12C88CFA29FB001B39FC001A39F700D74
:10047000811D1124911DB29F700D811D1124911DAC
:060480000895F894FFCF7F
:10048600C0F9A4B0999282F88098FF07C0000000D6
:02049600000064
:00000001FF
