S01100004D61696E5F6C6162342E73726563CC
S11300000C9446000C9465000C9465000C946500F7
S11300100C9465000C9465000C9465000C946500C8
S11300200C9465000C94D4010C9465000C94650048
S11300300C94C1010C9465000C9465000C948D0320
S11300400C9465000C9465000C9465000C94650098
S11300500C9465000C9465000C9465000C94650088
S11300600C9465000C9465000C9465000C94650078
S11300700C9465000C9465000C9465000C94650068
S11300800C9465000C9465000C94650011241FBE4B
S1130090CFEFD0E1DEBFCDBF11E0A0E0B1E0EAE9EF
S11300A0F8E100E00BBF02C007900D92A832B1073F
S11300B0D9F721E0A8E2B1E001C01D92AC37B20744
S11300C0E1F70E94760A0C944B0C0C940000AC01EE
S11300D099B3FA01EE0FFF1FEB5BFE4F20813181D4
S11300E0220F331F306E892F90E002C095958795BB
S11300F04A95E2F781709927282B392B3183208385
S113010081E02115304F09F080E00895CF9390915C
S1130110690191708091690141E0C82FC27081FF2B
S113012040E08091690184702091690131E0522F8F
S1130130587023FF30E0E1E0F0E0811102C0E0E01C
S1130140F0E060915C0170915D01232F30E0E617CF
S1130150F70709F472C060915C0170915D0181112F
S113016011C0552389F0672B91F460912801709197
S113017029016F5F7F4F7093290160932801AFEFCE
S1130180BFEF11C0511171C06130710571F36091FD
S113019028017091290161507109709329016093BC
S11301A02801AFEFBFEFF0935D01E0935C01309362
S11301B0610120936001292F30E060915701709113
S11301C0580150E02617370781F19923E1F0809117
S11301D0570190915801C1113BC00197E1F0809102
S11301E02A0190912B01019790932B0180932A016E
S11301F0309358012093570150935A014093590169
S1130200CD01CF9108958091570190915801CC234D
S113021021F3892B21F780912A0190912B010196DA
S113022090932B0180932A01E3CF6091590170913F
S11302305A014617570749F6E3CF60916001709160
S113024061012617370709F086CFAFEFBFEFB3CFB1
S1130250892BD9F480912A0190912B01039741F1C4
S113026010922B0110922A01C3CF672BB9F460912D
S113027028017091290163307105E9F0AFEFBFEFF8
S113028010922901109228018ECF80912A01909119
S11302902B01039629F7A1E0B0E0E2CF6091280199
S11302A0709129016D3F7F4F49F7A3E0B0E0E8CF9B
S11302B0A0E0B0E0D5CFA2E0B0E0E2CF813091057C
S11302C061F1009731F082309105E1F10397B1F0CB
S11302D0089540913201509133018091160190911B
S11302E0170164E6649F9001659F300D1124821B01
S11302F0930B909317018093160108952091320176
S1130300309133018091160190911701820F931F50
S113031090931701809316010895409132015091F2
S11303203301809116019091170164E6649F900156
S1130330659F300D1124820F931F909317018093B2
S113034016010895209132013091330180911601F4
S113035090911701821B930B9093170180931601C0
S113036008951E981E9A80E28FB9779BFECF8FB1B5
S11303708093690108958FB9779BFECF929A9298E2
S113038008951F920F920FB60F9211248F939F938B
S1130390139A95B381E0892785BB9F918F910F9024
S11303A00FBE0F901F9018951F920F920FB60F92C9
S11303B011248F938091660183BD8F910F900FBE9E
S11303C00F901F90189580912F01883079F08091BB
S11303D02F01803459F0209114013091150180913E
S11303E01601909117012817390709F00895809193
S11303F03801909139010197C9F785E090E0909315
S11304008700809386008EB581608EBD089508951F
S1130410809114019091150164E670E00E946D0BC7
S113042080911401909115014CE946039001479F76
S1130430300D1124820F931F8336910509F440C0B7
S11304408C33910541F16D3071058CF024E630E078
S1130450309315012093140120911401309115015A
S1130460820F931F9093150180931401089516161B
S1130470170684F020EB34E0309315012093140127
S11304802091140130911501820F931F909315014F
S11304908093140108952091140130911501285D71
S11304A03F4F309315012093140120911401309192
S11304B01501245631093093150120931401C3CF3B
S11304C020911401309115012852310930931501FE
S11304D02093140120911401309115012C593F4FA0
S11304E03093150120931401AECF08958091160125
S11304F09091170164E670E00E946D0B80911601E3
S1130500909117014CE946039001479F300D112447
S1130510820F931F8336910509F440C08C339105F3
S113052041F16D3071058CF024E630E03093170111
S1130530209316012091160130911701820F931F09
S1130540909317018093160108951616170684F0E8
S113055020EB34E03093170120931601209116010B
S113056030911701820F931F909317018093160106
S113057008952091160130911701285D3F4F309363
S1130580170120931601209116013091170124566A
S113059031093093170120931601C3CF209116011E
S11305A03091170128523109309317012093160115
S11305B020911601309117012B33310559F0209108
S11305C01601309117012C593F4F30931701209396
S11305D01601A7CF209116013091170120553B4FEA
S11305E030931701209316019CCF1F93809116011D
S11305F09091170164E670E00E946D0B9B0180915D
S11306001601909117011CE91603A001179F500DC4
S11306101124840F951F40913401509135014C33BE
S1130620510574F040911601509117014F5F5F4FCF
S11306305093170140931601109235011092340122
S1130640CC9764F08091160190911701889690934D
S11306501701809316019B012F5F3F4F2D30310509
S113066034F084E690E090931701809316011F9173
S1130670089508958130910561F1009731F0823039
S11306809105E1F10397B1F0089540913001509143
S11306903101809114019091150164E6649F9001E9
S11306A0659F300D1124821B930B90931501809349
S11306B01401089520913001309131018091140189
S11306C090911501820F931F90931501809314014B
S11306D0089540913001509131018091140190911D
S11306E0150164E6649F9001659F300D1124820F0B
S11306F0931F909315018093140108952091300164
S1130700309131018091140190911501821B930B5A
S1130710909315018093140108951F920F920FB6C0
S11307200F9211240BB60F92CF92DF92EF92FF92A9
S11307300F931F932F933F934F935F936F937F93E5
S11307408F939F93AF93BF93CF93DF93EF93FF93D5
S11307508BB38093560188B380935B010E94E301BD
S113076000914301109144010F5F1F4F1093440106
S113077000934301B8017695679580E090E00E946C
S1130780EA0B20E030E040E853E40E94E50B8111DD
S113079003C087E080930F011170012B89F48CE072
S11307A080930F0120911201309113018091340143
S11307B090913501820F931F9093350180933401FA
S11307C080E588BB8FE891E00197F1F700C0000055
S11307D029B38091450190914601880F991F906E2D
S11307E020FBCC24C0F8D12CC82AD92AD0924601A7
S11307F0C0924501C11490EFD90631F490912F01B4
S113080080E4892780932F0129B380914B01909133
S11308104C01880F991F906E23FBEE24E0F8F12C15
S11308208E299F2990934C0180934B018115904F01
S113083031F490912F0184E0892780932F0129B30B
S11308408091490190914A01880F991F906E22FB73
S1130850222720F9C22F20E0D22F8C2B9D2B90939E
S11308604A01809349018115904F31F490912F01F1
S113087080E2892780932F0199B32091530130910D
S11308805401220F331F306E892F90E0880F892F77
S1130890881F990B822B932B9093540180935301BF
S11308A08115904F31F490912F0188E0892780932E
S11308B02F0180E788BB1E981E9A80E28FB9779B30
S11308C0FECF8FB1809369010E94860090932D0121
S11308D080932C0180912C0190912D010E945E0146
S11308E080912C0190912D010E943A0380912F0157
S11308F08FB9779BFECF929A9298809156018BBBC9
S113090080915B0188BB8FEF8ABBFF91EF91DF91F0
S1130910CF91BF91AF919F918F917F916F915F9193
S11309204F913F912F911F910F91FF90EF90DF9086
S1130930CF900F900BBE0F900FBE0F901F90189585
S113094018BAEDE0F1E081918BBB8FE697E1019756
S1130950F1F700C0000088B3805F88BB91E0E2310A
S1130960F90789F7089587B3876087BB8DB18065E0
S11309708DB9709A87B3806F87BB83E08ABB84E0AC
S113098081BB8FEF82B9089582E880938B00EAE8F7
S1130990F0E08081896180838AE090E09093810017
S11309A080938000109287001092860008958FEF44
S11309B084BB1FBC87B7806187BF8FE99FE09BBD65
S11309C08ABD8EB588608EBD089580B7886080BF6B
S11309D087B7826087BF83B7896083BF8FE781BF92
S11309E0089585B5896685BD87B7806887BF14BCBF
S11309F00895E1E6F0E080818F778083E2E6F0E01D
S1130A0080818F77808387E687B987E886B90895E0
S1130A10CF93DF93AC010097B1F4809100018093F0
S1130A200D0180910B0180930F01E0E0F0E08091D3
S1130A300A01E35FFE4F819331E0E231F307D9F716
S1130A40DF91CF9108959C01ADECBCEC0E94A00B0A
S1130A509695879596958795969587959C01220FEF
S1130A60331F880F991F880F991F880F991F820FB2
S1130A70931F9A01281B390BC901E0E0F0E0DF0164
S1130A80A35FBE4FEC01C050DF4F88818C939A0165
S1130A90ADECBCEC0E94A00BAC0156954795569565
S1130AA047955695479531964115510501F19A019F
S1130AB0ADECBCEC0E94A00B969587959695879516
S1130AC0969587959C01220F331F880F991F880FD5
S1130AD0991F880F991F820F931F9A01281B390BA6
S1130AE0C901E230F10559F6E3E0F0E0C8CF8091A6
S1130AF00B0180930F01E530F1050CF498CFDF91E1
S1130B00CF91089591E0811101C090E09FB9779B46
S1130B10FECF6FB9779BFECF80916200886080938F
S1130B20620080916200877F809362008FE99FE07A
S1130B300197F1F700C00000089521E02FB9779BD9
S1130B40FECF20915501FC01E20FF11D80818FB988
S1130B50779BFECF809162008860809362008091D1
S1130B606200877F80936200809155018F5F80933C
S1130B705501803109F1803209F0089595ED9A9577
S1130B80F1F700001FB8779BFECF82E08FB9779B07
S1130B90FECF809162008860809362008091620041
S1130BA0877F809362008FE99FE00197F1F700C08F
S1130BB0000010925501089585ED8A95F1F7000023
S1130BC01FB8779BFECF80EC8FB9779BFECF8091C7
S1130BD0620088608093620080916200877F8093C6
S1130BE062008FE99FE00197F1F700C00000809157
S1130BF05501C1CF660F660F660F605C1FB8779B07
S1130C00FECF6FB9779BFECF2091620028602093BE
S1130C10620020916200277F20936200AFE9BFE069
S1130C201197F1F700C00000FC019C01285F3F4FC1
S1130C3091E081919FB9779BFECF8FB9779BFECFCF
S1130C408091620088608093620080916200877F57
S1130C5080936200AFE9BFE01197F1F700C0000094
S1130C60E217F30731F7089590E4899F600D11248A
S1130C70605C1FB8779BFECF6FB9779BFECF8091E6
S1130C80620088608093620080916200877F809315
S1130C9062008FE99FE00197F1F700C0000008951A
S1130CA0811119C081E08FB9779BFECF80E38FB9A2
S1130CB0779BFECF80916200886080936200809170
S1130CC06200877F809362008FE99FE00197F1F7CC
S1130CD000C0000008958436B0F48A3090F591E0A5
S1130CE09FB9779BFECF9DEC899F912D11249695FA
S1130CF096959695FAE09F9F80191124805D8FB98F
S1130D00779BFECFD7CF99E2899F912D112492959D
S1130D109F70905D21E02FB9779BFECF9FB9779BA1
S1130D20FECF90916200986090936200909162006F
S1130D30977F90936200EFE9FFE03197F1F700C0ED
S1130D40000099E2899F912D112492959F70282F7C
S1130D50F4E69F9F20191124922F2DEC929F912D40
S1130D601124969596959695905D21E02FB9779BE1
S1130D70FECF9FB9779BFECF9091620098609093CD
S1130D80620090916200977F90936200EFE9FFE028
S1130D903197F1F700C00000A2CF87FF0C945006F2
S1130DA091E09FB9779BFECF9DE29FB9779BFECFE1
S1130DB09091620098609093620090916200977F96
S1130DC090936200EFE9FFE03197F1F700C0000073
S1130DD081950C9450061FB8779BFECF8EE08FB997
S1130DE0779BFECF8091620088608093620080913F
S1130DF06200877F809362008FE99FE00197F1F79B
S1130E0000C0000008951FB8779BFECF8CE08FB917
S1130E10779BFECF8091620088608093620080910E
S1130E206200877F809362008FE99FE00197F1F76A
S1130E3000C0000008951FB8779BFECF8EE18FB9E4
S1130E40779BFECF809162008860809362008091DE
S1130E506200877F809362008FE99FE00197F1F73A
S1130E6000C0000008951FB8779BFECF88E18FB9BA
S1130E70779BFECF809162008860809362008091AE
S1130E806200877F809362008FE99FE00197F1F70A
S1130E9000C000000895E2E6F0E08081886080836D
S1130EA08081877F808308951FB8779BFECF81E080
S1130EB08FB9779BFECF8091620088608093620037
S1130EC080916200877F809362008FE99FE00197A1
S1130ED0F1F700C0000008951FB8779BFECF82E0B1
S1130EE08FB9779BFECF8091620088608093620007
S1130EF080916200877F809362008FE99FE0019771
S1130F00F1F700C0000008951FB8779BFECF80EC76
S1130F108FB9779BFECF80916200886080936200D6
S1130F2080916200877F809362008FE99FE0019740
S1130F30F1F700C00000089590E131E020E23FB9EC
S1130F40779BFECF2FB9779BFECF8091620088609C
S1130F508093620080916200877F80936200EFE952
S1130F60FFE03197F1F700C00000915041F7089578
S1130F7091E09FB9779BFECF8FB9779BFECF80918D
S1130F80620088608093620080916200877F809312
S1130F9062008FE99FE00197F1F700C00000089517
S1130FA0FC0140E050E060E071E0DF01A40FB51FF8
S1130FB08C917FB9779BFECF8FB9779BFECF9091B1
S1130FC0620098609093620090916200977F909382
S1130FD062008FE99FE00197F1F700C000006F5FA6
S1130FE0462F50E0DF010D900020E9F79D012E1BF4
S1130FF03F0B2250310924173507B8F608958FEFB7
S113100099EF0197F1F700C0000088E08093610038
S11310101FB8779BFECF80E38FB9779BFECF80917B
S1131020620088608093620080916200877F809371
S113103062008FE99FE00197F1F700C000001FB83C
S1131040779BFECF80E38FB9779BFECF80916200C0
S113105088608093620080916200877F8093620041
S11310608FE99FE00197F1F700C000001FB8779B5C
S1131070FECF80E38FB9779BFECF809162008860BA
S11310808093620080916200877F809362008FE981
S11310909FE00197F1F700C000001FB8779BFECFD7
S11310A088E38FB9779BFECF80916200886080933C
S11310B0620080916200877F809362008FE99FE0E5
S11310C00197F1F700C000001FB8779BFECF88E0BE
S11310D08FB9779BFECF8091620088608093620015
S11310E080916200877F809362008FE99FE001977F
S11310F0F1F700C000001FB8779BFECF81E08FB9E5
S1131100779BFECF8091620088608093620080911B
S11311106200877F809362008FE99FE00197F1F777
S113112000C000001FB8779BFECF86E08FB9779B85
S1131130FECF80916200886080936200809162009B
S1131140877F809362008FE99FE00197F1F700C0E9
S113115000001FB8779BFECF8CE08FB9779BFECF42
S11311608091620088608093620080916200877F32
S1131170809362008FE99FE00197F1F700C00000BF
S113118008954F925F926F927F928F929F92AF9247
S1131190BF92CF92DF92EF92FF920F931F93CF9360
S11311A0DF93CDB7DEB769970FB6F894DEBF0FBEF5
S11311B0CDBF142F422E5E2C002379F06B017C01ED
S11311C0CC24F7FCC394DD24EE24FF240C2D6B0106
S11311D07C0197FDA5C0C701B601442009F498C05D
S11311E09E012F5F3F4F5901490166246A94640CA4
S11311F0712C3FEF631A730A6A0C7B1C2AE030E0FF
S113120040E050E00E94810BE62F2A8B3B8B4C8BF5
S11312105D8B6A897B898C899D8920E32E0FF4017B
S113122021934F016E167F0649F799249394940CE9
S1131230F501E40DF11D2EE220832AE030E040E0C8
S113124050E00E94810BE62F2A8B3B8B4C8B5D8BED
S11312506E8B7F8B888F998F6A897B898C899D8916
S113126031E0390DD501A90DB11DE05DEC93932E4C
S1131270611571058105910501F7112361F0511084
S11312804DC090E2311738F4F501E30FF11D90835E
S11312903F5F1313F9CF002331F0F501E30FF11D84
S11312A09DE290833F5F21E03150F501E30FF11D92
S11312B090812FB9779BFECF9FB9779BFECF9091FA
S11312C0620098609093620090916200977F90937F
S11312D062008FE99FE00197F1F700C0000031112F
S11312E0E3CF69960FB6F894DEBF0FBECDBFDF9192
S11312F0CF911F910F91FF90EF90DF90CF90BF900F
S1131300AF909F908F907F906F905F904F900895D3
S1131310912C9E012F5F3F4F59018FCF90E3B2CFA5
S1131320F094E094D094C094C11CD11CE11CF11C35
S113133052CF5F926F927F928F929F92AF92BF92A1
S1131340CF92DF92EF92FF920F931F93CF93DF938D
S1131350CDB7DEB761970FB6F894DEBF0FBECDBF31
S11313605C01962E542E622E8B2C881C8824881C9B
S1131370782C9C0197FD9FC0552009F490C08E01E4
S11313800F5F1F4F7801CC24CA94C50CD12C8FEF6A
S1131390C81AD80AC00ED11E6AE070E0C9010E94C2
S11313A06D0B462F242F372F805DF70181937F012A
S11313B0EC15FD0589F7FF24F394F50CF801E50D10
S11313C0F11D8EE2808301C0F92E6AE070E0C9014C
S11313D00E946D0B462F242F372F91E09F0DF801AB
S11313E0EF0DF11D805D80832115310569F76110D2
S11313F05BC0B7FC65C09920B1F0682D70E080E255
S1131400292F30E0492D50E0461B570B2417350790
S113141054F49F5FF801E20FF31F8083292F30E01B
S113142024173507B4F3772031F0F801E90FF11DE3
S11314308DE280839F5F21E09150F801E90FF11D57
S113144080812FB9779BFECF8FB9779BFECF809198
S1131450620088608093620080916200877F80933D
S11314606200EFE9FFE03197F1F700C0000091114D
S1131470E3CF61960FB6F894DEBF0FBECDBFDF9108
S1131480CF911F910F91FF90EF90DF90CF90BF907D
S1131490AF909F908F907F906F905F900895F12C04
S11314A08E010F5F1F4F91CF992009F4BCCF682D97
S11314B070E080E3A5CF22273327281B390B5CCFAC
S11314C0F394F394F801E90FF11D8DE280839920E0
S11314D059F02F2D30E0492D50E02417350724F41E
S11314E09F2D712C80E295CF9F2DA5CF87B3876068
S11314F087BB8DB180658DB9709A87B3806F87BBC8
S113150083E08ABB84E081BBCFEFC2B90E94FF07AE
S11315100E945407809161008F77809361008091CD
S113152062008F778093620087E687B987E886B97F
S113153085B5896685BD87B7806887BF14BCC4BB81
S11315401FBC87B7806187BF8FE99FE09BBD8ABDC1
S11315508EB588608EBD80B7886080BF87B7826093
S113156087BF83B7896083BF8FE781BF82E8809399
S11315708B0080918A00896180938A008AE090E0E0
S113158090938100809380001092870010928600CF
S1131590C1E0D0E01FEF0FE7369A349BFECF349AB8
S11315A085B190E0909367018093660180912F014B
S11315B0883009F47AC008F44EC0803209F45AC065
S11315C0803409F04AC0D0933F01C0933E01D093C8
S11315D03901C0933801D0933D01C0933C01D093AD
S11315E03701C0933601D0933101C09330010E947A
S11315F008020E94F5021BBB80913E0190913F01BD
S1131600019729F480912F01803409F459C0809105
S11316101601909117010E94080518BAEDE0F1E057
S113162080E0982F9295907F98BB91919BBBAFE9F6
S1131630BFE01197F1F700C000008F5F853089F794
S113164080913E0190913F01892B11F018BA0BBB98
S11316501ABB7894A1CF843061F2109233011092B6
S113166032011092310110923001D0931301C093D2
S11316701201BFCF10923F0110923E0110923D0122
S113168010923C0110923901109238010E945407C3
S113169010928700109286008EB58E7F8EBD809149
S11316A02F018F7D80932F01A4CFD0933301C0935A
S11316B0320110921301109212010E94760299CF06
S11316C080911401909115010E94080588E191E030
S11316D00E94D0070E946C07A0CF97FB072E16F438
S11316E0009407D077FD09D00E94AF0B07FC05D00A
S11316F03EF4909581959F4F0895709561957F4F25
S11317000895052E97FB1EF400940E94980B57FD34
S113171007D00E94C30B07FC03D04EF40C94980B23
S113172050954095309521953F4F4F4F5F4F089509
S113173090958095709561957F4F8F4F9F4F089539
S1131740A29FB001B39FC001A39F700D811D1124FE
S1131750911DB29F700D811D1124911D0895AA1B26
S1131760BB1B51E107C0AA1FBB1FA617B70710F088
S1131770A61BB70B881F991F5A95A9F780959095BA
S1131780BC01CD010895A1E21A2EAA1BBB1BFD01C9
S11317900DC0AA1FBB1FEE1FFF1FA217B307E4074C
S11317A0F50720F0A21BB30BE40BF50B661F771FA4
S11317B0881F991F1A9469F7609570958095909584
S11317C09B01AC01BD01CF0108950E94270C08F4D0
S11317D081E00895E89409C097FB3EF490958095C4
S11317E0709561957F4F8F4F9F4F9923A9F0F92FE3
S11317F096E9BB279395F695879577956795B79561
S1131800F111F8CFFAF4BB0F11F460FF1BC06F5F46
S11318107F4F8F4F9F4F16C0882311F096E911C058
S1131820772321F09EE8872F762F05C0662371F079
S113183096E8862F70E060E02AF09A95660F771F8D
S1131840881FDAF7880F9695879597F90895990F69
S11318500008550FAA0BE0E8FEEF16161706E80776
S1131860F907C0F012161306E407F50798F0621B97
S1131870730B840B950B39F40A2661F0232B242B6C
S1131880252B21F408950A2609F4A140A6958FEF8B
S10D1890811D811D0895F894FFCF17
S113189AC0F9A4B0999282F88098FF077FFF0000EC
S11318AA00000100B004EB04414C41524D2049535D
S10B18BA205345540000000016
S9030000FC
