S01000006C6162345F7365672E7372656313
S11300000C9446000C9465000C9465000C946500F7
S11300100C9465000C9465000C9465000C946500C8
S11300200C9465000C94CB010C9465000C94650051
S11300300C94C1010C9465000C9465000C94DA01D5
S11300400C9465000C9465000C9465000C94650098
S11300500C9465000C9465000C9465000C94650088
S11300600C9465000C9465000C9465000C94650078
S11300700C9465000C9465000C9465000C94650068
S11300800C9465000C9465000C94650011241FBE4B
S1130090CFEFD0E1DEBFCDBF11E0A0E0B1E0EAE9EF
S11300A0F7E100E00BBF02C007900D92A832B10740
S11300B0D9F721E0A8E2B1E001C01D92A937B20747
S11300C0E1F70E94910A0C94CB0B0C940000AC0154
S11300D099B3FA01EE0FFF1FEE5BFE4F20813181D1
S11300E0220F331F306E892F90E002C095958795BB
S11300F04A95E2F781709927282B392B3183208385
S113010081E02115304F09F080E00895CF9390915C
S1130110660191708091660141E0C82FC27081FF31
S113012040E08091660184702091660131E0522F95
S1130130587023FF30E0E1E0F0E0811102C0E0E01C
S1130140F0E06091590170915A01232F30E0E617D5
S1130150F70709F472C06091590170915A01811135
S113016011C0552389F0672B91F460912801709197
S113017029016F5F7F4F7093290160932801AFEFCE
S1130180BFEF11C0511171C06130710571F36091FD
S113019028017091290161507109709329016093BC
S11301A02801AFEFBFEFF0935A01E0935901309368
S11301B05E0120935D01292F30E06091540170911C
S11301C0550150E02617370781F19923E1F080911A
S11301D0540190915501C1113BC00197E1F0809108
S11301E02A0190912B01019790932B0180932A016E
S11301F03093550120935401509357014093560175
S1130200CD01CF9108958091540190915501CC2353
S113021021F3892B21F780912A0190912B010196DA
S113022090932B0180932A01E3CF60915601709142
S113023057014617570749F6E3CF60915D01709166
S11302405E012617370709F086CFAFEFBFEFB3CFB4
S1130250892BD9F480912A0190912B01039741F1C4
S113026010922B0110922A01C3CF672BB9F460912D
S113027028017091290163307105E9F0AFEFBFEFF8
S113028010922901109228018ECF80912A01909119
S11302902B01039629F7A1E0B0E0E2CF6091280199
S11302A0709129016D3F7F4F49F7A3E0B0E0E8CF9B
S11302B0A0E0B0E0D5CFA2E0B0E0E2CF813091057C
S11302C061F1009731F082309105E1F10397B1F0CB
S11302D00895409130015091310180911401909121
S11302E0150164E6649F9001659F300D1124821B03
S11302F0930B90931501809314010895209130017C
S1130300309131018091140190911501820F931F56
S113031090931501809314010895409130015091F8
S11303203101809114019091150164E6649F90015C
S1130330659F300D1124820F931F909315018093B4
S113034014010895209130013091310180911401FC
S113035090911501821B930B9093150180931401C6
S113036008951E981E9A80E28FB9779BFECF8FB1B5
S11303708093660108958FB9779BFECF929A9298E5
S113038008951F920F920FB60F9211240F900FBE73
S11303900F901F9018951F920F920FB60F92112471
S11303A08F938091630183BD8F910F900FBE0F9047
S11303B01F9018951F920F920FB60F9211240BB62F
S11303C00F922F933F934F935F936F937F938F93EA
S11303D09F93AF93BF93EF93FF938BB3809353019A
S11303E088B380935801909141019F5F909341019C
S11303F0892F8F7319F487E080930F019F7789F415
S11304008CE080930F0120911201309113018091AF
S1130410320190913301820F931F909333018093A3
S1130420320180E588BB8FE891E00197F1F700C0C5
S1130430000029B38091420190914301880F991FD4
S1130440906EE22FE170F0E08E2B9F2B909343018E
S1130450809342018115904F31F490912F0180E4F3
S1130460892780932F0189B3209148013091490154
S1130470220F331F306E83FBAA27A0F9B0E02A2B8A
S11304803B2B30934901209348012115304F31F41F
S113049090912F0184E0892780932F0129B38091C3
S11304A0460190914701880F991F906E22FB6627A1
S11304B060F970E0862B972B909347018093460157
S11304C0811520EF920731F430912F0120E2232788
S11304D020932F0139B36091500170915101660F3F
S11304E0771F706E232F30E0220F232F221F330B30
S11304F0262B372B30935101209350012115304F77
S113050031F430912F0128E0232720932F0129B3C0
S113051022FB442740F950E0506E880F991F842B2A
S1130520952B90934701809346018115904F31F4A8
S113053090912E0180E2892780932E0180E788BB69
S11305401E981E9A80E28FB9779BFECF8FB180935D
S113055066010E94860090932D0180932C01809166
S11305602C0190912D010E945E0180912F018FB981
S1130570779BFECF929A9298809153018BBB809186
S1130580580188BB8FEF8ABBFF91EF91BF91AF9168
S11305909F918F917F916F915F914F913F912F9197
S11305A00F900BBE0F900FBE0F901F901895809167
S11305B016019091170190936201809361018091DB
S11305C03C0190913D019093600180935F010895F7
S11305D0089580913C0190913D01CC9724F01092B4
S11305E03D0110923C0180913C0190913D0197FDA9
S11305F017C08091160190911701489724F010922A
S1130600170110921601809116019091170197FF1E
S1130610089587E190E0909317018093160108955F
S11306208BE390E090933D0180933C01E2CF809175
S11306303C0190913D01CC9724F010923D01109221
S11306403C0180913C0190913D0197FD1BC080913C
S11306501601909117010D9734F081E090E090938A
S113066017018093160180911601909117011816B5
S113067019060CF408958CE090E090931701809390
S1130680160108958BE390E090933D0180933C0123
S1130690DECF0895809114019091150164E670E015
S11306A00E94530B80911401909115014CE946036B
S11306B09001479F300D1124820F931F83369105BB
S11306C009F440C08C33910541F16D3071058CF013
S11306D024E630E030931501209314012091140195
S11306E030911501820F931F90931501809314018B
S11306F008951616170684F020EB34E030931501A4
S1130700209314012091140130911501820F931F3D
S11307109093150180931401089520911401309150
S11307201501285D3F4F309315012093140120914A
S11307301401309115012456310930931501209389
S11307401401C3CF209114013091150128523109AD
S11307503093150120931401209114013091150157
S11307602C593F4F3093150120931401AECF1F93A2
S1130770809114019091150164E670E00E94530B7E
S11307809B0180911401909115011CE91603A001AD
S1130790179F500D1124840F951F409132015091E1
S11307A033014C33510574F04091140150911501FB
S11307B04F5F5F4F50931501409314011092330122
S11307C010923201CC9764F080911401909115013C
S11307D0889690931501809314019B012F5F3F4FDE
S11307E02D30310534F084E690E090931501809328
S11307F014011F91089508958130910531F10097F6
S113080031F08230910581F1039781F008952091B0
S11308103001309131018091160190911701821BB2
S1130820930B909317018093160108952091300142
S11308303091310180913C0190913D01820F931FD1
S113084090933D0180933C010895209130013091B3
S113085031018091160190911701820F931F90939B
S113086017018093160108952091300130913101D0
S113087080913C0190913D01821B930B90933D012B
S113088080933C010895CF93DF93AC01FB01009763
S113089009F044C08091000180930D0180930E0102
S11308A09F01ADECBCEC0E94860BAC0156954795BC
S11308B056954795569547959A01220F331FCA01BD
S11308C0880F991F880F991F880F991F820F931FF4
S11308D0E81BF90BE050FF4F8081809310019A01CF
S11308E00E94860B969587959695879596958795FC
S11308F09C01220F331F880F991F880F991F880F9F
S1130900991F820F931F481B590BFA01E050FF4FA8
S1130910808180931101DF91CF9108959C01ADEC0A
S1130920BCEC0E94860BEC01D695C795D695C7956D
S1130930D695C7959E01220F331FCE01880F991FAC
S1130940880F991F880F991F820F931F481B590BFB
S1130950DA01A050BF4F8C9180930D019E01ADEC44
S1130960BCEC0E94860B96958795969587959695EF
S113097087959C01220F331F880F991F880F991F99
S1130980880F991F820F931FC81BD90BC050DF4FCC
S1130990888180930E0184CF87B3876087BB8DB134
S11309A080658DB9709A87B3806F87BB83E08ABBFB
S11309B084E081BB8FEF82B9089582E880938B0035
S11309C0EAE8F0E08081896180838AE090E0909396
S11309D081008093800085E090E09093870080936D
S11309E0860008958FEF84BB1FBC87B7806187BFE3
S11309F08FE99FE09BBD8ABD8EB589608EBD089549
S1130A0080B7886080BF87B7826087BF83B78960FB
S1130A1083BF8CE381BF089585B5896685BD87B79B
S1130A20806887BF14BC0895E1E6F0E080818F7789
S1130A308083E2E6F0E080818F77808387E687B960
S1130A4087E886B90895CF93DF93AC010097B1F49A
S1130A508091000180930D0180910B0180930F011F
S1130A60E0E0F0E080910A01E35FFE4F819331E022
S1130A70E231F307D9F7DF91CF9108959C01ADECF2
S1130A80BCEC0E94860B96958795969587959695CE
S1130A9087959C01220F331F880F991F880F991F78
S1130AA0880F991F820F931F9A01281B390BC901C4
S1130AB0E0E0F0E0DF01A35FBE4FEC01C050DF4F88
S1130AC088818C939A01ADECBCEC0E94860BAC013E
S1130AD056954795569547955695479531964115A0
S1130AE0510501F19A01ADECBCEC0E94860B969580
S1130AF0879596958795969587959C01220F331F28
S1130B00880F991F880F991F880F991F820F931FB1
S1130B109A01281B390BC901E230F10559F6E3E0CB
S1130B20F0E0C8CF80910B0180930F01E530F1050F
S1130B300CF498CFDF91CF91089591E0811101C019
S1130B4090E09FB9779BFECF6FB9779BFECF8091E2
S1130B50620088608093620080916200877F809346
S1130B6062008FE99FE00197F1F700C0000008954B
S1130B7021E02FB9779BFECF20915201FC01E20FB7
S1130B80F11D80818FB9779BFECF809162008860D0
S1130B908093620080916200877F809362008091DD
S1130BA052018F5F80935201803109F1803209F044
S1130BB0089595ED9A95F1F700001FB8779BFECF45
S1130BC082E08FB9779BFECF80916200886080932A
S1130BD0620080916200877F809362008FE99FE0CA
S1130BE00197F1F700C0000010925201089585EDBD
S1130BF08A95F1F700001FB8779BFECF80EC8FB980
S1130C00779BFECF80916200886080936200809120
S1130C106200877F809362008FE99FE00197F1F77C
S1130C2000C0000080915201C1CF660F660F660FAD
S1130C30605C1FB8779BFECF6FB9779BFECF209186
S1130C40620028602093620020916200277F209335
S1130C506200AFE9BFE01197F1F700C00000FC01AA
S1130C609C01285F3F4F91E081919FB9779BFECF14
S1130C708FB9779BFECF8091620088608093620079
S1130C8080916200877F80936200AFE9BFE0119793
S1130C90F1F700C00000E217F30731F7089590E47C
S1130CA0899F600D1124605C1FB8779BFECF6FB9DC
S1130CB0779BFECF80916200886080936200809170
S1130CC06200877F809362008FE99FE00197F1F7CC
S1130CD000C000000895811119C081E08FB9779B8D
S1130CE0FECF80E38FB9779BFECF8091620088604E
S1130CF08093620080916200877F809362008FE915
S1130D009FE00197F1F700C0000008958436B0F425
S1130D108A3090F591E09FB9779BFECF9DEC899F37
S1130D20912D1124969596959695FAE09F9F80199A
S1130D301124805D8FB9779BFECFD7CF99E2899F2D
S1130D40912D112492959F70905D21E02FB9779B8E
S1130D50FECF9FB9779BFECF9091620098609093ED
S1130D60620090916200977F90936200EFE9FFE048
S1130D703197F1F700C0000099E2899F912D112469
S1130D8092959F70282FF4E69F9F20191124922F8B
S1130D902DEC929F912D1124969596959695905DA4
S1130DA021E02FB9779BFECF9FB9779BFECF90911F
S1130DB0620098609093620090916200977F909394
S1130DC06200EFE9FFE03197F1F700C00000A2CF25
S1130DD087FF0C946B0691E09FB9779BFECF9DE251
S1130DE09FB9779BFECF90916200986090936200C8
S1130DF090916200977F90936200EFE9FFE0319752
S1130E00F1F700C0000081950C946B061FB8779B26
S1130E10FECF8EE08FB9779BFECF80916200886011
S1130E208093620080916200877F809362008FE9E3
S1130E309FE00197F1F700C0000008951FB8779B69
S1130E40FECF8CE08FB9779BFECF809162008860E3
S1130E508093620080916200877F809362008FE9B3
S1130E609FE00197F1F700C0000008951FB8779B39
S1130E70FECF8EE18FB9779BFECF809162008860B0
S1130E808093620080916200877F809362008FE983
S1130E909FE00197F1F700C0000008951FB8779B09
S1130EA0FECF88E18FB9779BFECF80916200886086
S1130EB08093620080916200877F809362008FE953
S1130EC09FE00197F1F700C000000895E2E6F0E02A
S1130ED08081886080838081877F808308951FB8A4
S1130EE0779BFECF81E08FB9779BFECF8091620024
S1130EF088608093620080916200877F80936200A3
S1130F008FE99FE00197F1F700C0000008951FB832
S1130F10779BFECF82E08FB9779BFECF80916200F2
S1130F2088608093620080916200877F8093620072
S1130F308FE99FE00197F1F700C0000008951FB802
S1130F40779BFECF80EC8FB9779BFECF80916200B8
S1130F5088608093620080916200877F8093620042
S1130F608FE99FE00197F1F700C00000089590E138
S1130F7031E020E23FB9779BFECF2FB9779BFECFBC
S1130F808091620088608093620080916200877F14
S1130F9080936200EFE9FFE03197F1F700C00000B1
S1130FA0915041F7089591E09FB9779BFECF8FB997
S1130FB0779BFECF8091620088608093620080916D
S1130FC06200877F809362008FE99FE00197F1F7C9
S1130FD000C000000895FC0140E050E060E071E0D2
S1130FE0DF01A40FB51F8C917FB9779BFECF8FB91A
S1130FF0779BFECF909162009860909362009091ED
S11310006200977F909362008FE99FE00197F1F768
S113101000C000006F5F462F50E0DF010D900020FC
S1131020E9F79D012E1B3F0B225031092417350788
S1131030B8F608958FEF99EF0197F1F700C000001B
S113104088E0809361001FB8779BFECF80E38FB95F
S1131050779BFECF809162008860809362008091CC
S11310606200877F809362008FE99FE00197F1F728
S113107000C000001FB8779BFECF80E38FB9779B39
S1131080FECF80916200886080936200809162004C
S1131090877F809362008FE99FE00197F1F700C09A
S11310A000001FB8779BFECF80E38FB9779BFECFFC
S11310B08091620088608093620080916200877FE3
S11310C0809362008FE99FE00197F1F700C0000070
S11310D01FB8779BFECF88E38FB9779BFECF8091B3
S11310E0620088608093620080916200877F8093B1
S11310F062008FE99FE00197F1F700C000001FB87C
S1131100779BFECF88E08FB9779BFECF80916200FA
S113111088608093620080916200877F8093620080
S11311208FE99FE00197F1F700C000001FB8779B9B
S1131130FECF81E08FB9779BFECF809162008860FB
S11311408093620080916200877F809362008FE9C0
S11311509FE00197F1F700C000001FB8779BFECF16
S113116086E08FB9779BFECF809162008860809380
S1131170620080916200877F809362008FE99FE024
S11311800197F1F700C000001FB8779BFECF8CE0F9
S11311908FB9779BFECF8091620088608093620054
S11311A080916200877F809362008FE99FE00197BE
S11311B0F1F700C0000008954F925F926F927F9202
S11311C08F929F92AF92BF92CF92DF92EF92FF9253
S11311D00F931F93CF93DF93CDB7DEB769970FB605
S11311E0F894DEBF0FBECDBF142F422E5E2C002319
S11311F079F06B017C01CC24F7FCC394DD24EE244C
S1131200FF240C2D6B017C0197FDA5C0C701B6011D
S1131210442009F498C09E012F5F3F4F59014901B2
S113122066246A94640C712C3FEF631A730A6A0C87
S11312307B1C2AE030E040E050E00E94670BE62F80
S11312402A8B3B8B4C8B5D8B6A897B898C899D892E
S113125020E32E0FF40121934F016E167F0649F708
S113126099249394940CF501E40DF11D2EE220834E
S11312702AE030E040E050E00E94670BE62F2A8B22
S11312803B8B4C8B5D8B6E8B7F8B888F998F6A89A0
S11312907B898C899D8931E0390DD501A90DB11D5A
S11312A0E05DEC93932E611571058105910501F7BD
S11312B0112361F051104DC090E2311738F4F5015B
S11312C0E30FF11D90833F5F1313F9CF002331F037
S11312D0F501E30FF11D9DE290833F5F21E0315062
S11312E0F501E30FF11D90812FB9779BFECF9FB9D4
S11312F0779BFECF909162009860909362009091EA
S11313006200977F909362008FE99FE00197F1F765
S113131000C000003111E3CF69960FB6F894DEBF28
S11313200FBECDBFDF91CF911F910F91FF90EF9032
S1131330DF90CF90BF90AF909F908F907F906F90F1
S11313405F904F900895912C9E012F5F3F4F59015C
S11313508FCF90E3B2CFF094E094D094C094C11CAA
S1131360D11CE11CF11C52CF5F926F927F928F923D
S11313709F92AF92BF92CF92DF92EF92FF920F9320
S11313801F93CF93DF93CDB7DEB761970FB6F89471
S1131390DEBF0FBECDBF5C01962E542E622E8B2C69
S11313A0881C8824881C782C9C0197FD9FC055209C
S11313B009F490C08E010F5F1F4F7801CC24CA94AA
S11313C0C50CD12C8FEFC81AD80AC00ED11E6AE002
S11313D070E0C9010E94530B462F242F372F805DE4
S11313E0F70181937F01EC15FD0589F7FF24F39440
S11313F0F50CF801E50DF11D8EE2808301C0F92E94
S11314006AE070E0C9010E94530B462F242F372F46
S113141091E09F0DF801EF0DF11D805D8083211592
S1131420310569F761105BC0B7FC65C09920B1F064
S1131430682D70E080E2292F30E0492D50E0461BF2
S1131440570B2417350754F49F5FF801E20FF31F7D
S11314508083292F30E024173507B4F3772031F047
S1131460F801E90FF11D8DE280839F5F21E0915027
S1131470F801E90FF11D80812FB9779BFECF8FB959
S1131480779BFECF80916200886080936200809198
S11314906200877F80936200EFE9FFE03197F1F704
S11314A000C000009111E3CF61960FB6F894DEBF3F
S11314B00FBECDBFDF91CF911F910F91FF90EF90A1
S11314C0DF90CF90BF90AF909F908F907F906F9060
S11314D05F900895F12C8E010F5F1F4F91CF9920DB
S11314E009F4BCCF682D70E080E3A5CF2227332711
S11314F0281B390B5CCFF394F394F801E90FF11D29
S11315008DE28083992059F02F2D30E0492D50E051
S11315102417350724F49F2D712C80E295CF9F2D3D
S1131520A5CF139887B3876087BB8DB180658DB9CC
S1131530709A87B3806F87BB83E08ABB84E081BBEA
S1131540CFEFC2B90E941A080E946F078091610010
S11315508F7780936100809162008F77809362001F
S113156087E687B987E886B985B5896685BD87B773
S1131570806887BF14BCC4BB1FBC87B7806187BFAA
S11315808FE99FE09BBD8ABD8EB589608EBD80B713
S1131590886080BF87B7826087BF83B7896083BF55
S11315A08CE381BF82E880938B0080918A008961FB
S11315B080938A008AE090E0909381008093800079
S11315C085E090E090938700809386000FEF1FEFF3
S11315D0C1E0D0E0FF24FA948FE7E82E369A349BDA
S11315E0FECF349A85B190E09093640180936301B7
S11315F080912E01803209F445C080912F018830FA
S113160099F1803461F4D0933901C0933801D093B7
S11316103701C0933601D0933101C09330010E9449
S1131620B703FBBA80911401909115010E94230520
S113163018BAEDE0F1E080E0982F9295907F98BB86
S113164091919BBBAFE9BFE01197F1F700C0000097
S11316508F5F853089F7809136019091370101972A
S113166071F0FABA7894BACFD0933101C0933001B3
S113167010921301109212010E944A03D0CF18BA9B
S1131680EBBAEFCF10923901109238011092370162
S1131690109236010E946F0710936201009361015A
S11316A0A8981398AACF97FB072E16F4009407D096
S11316B077FD09D00E94950B07FC05D03EF4909568
S11316C081959F4F0895709561957F4F0895052EDC
S11316D097FB1EF400940E947E0B57FD07D00E94D6
S11316E0A90B07FC03D04EF40C947E0B5095409547
S11316F0309521953F4F4F4F5F4F089590958095BA
S1131700709561957F4F8F4F9F4F0895A29FB001B1
S1131710B39FC001A39F700D811D1124911DB29F21
S1131720700D811D1124911D0895AA1BBB1B51E14D
S113173007C0AA1FBB1FA617B70710F0A61BB70B3D
S1131740881F991F5A95A9F780959095BC01CD01E2
S11317500895A1E21A2EAA1BBB1BFD010DC0AA1FEE
S1131760BB1FEE1FFF1FA217B307E407F50720F006
S1131770A21BB30BE40BF50B661F771F881F991F81
S11317801A9469F760957095809590959B01AC01CA
S10D1790BD01CF010895F894FFCFC6
S113179AC0F9A4B0999282F88098FF077FFF0000ED
S11317AA00000100EB040C00616C61726D00000022
S10B17BA000000000000000023
S9030000FC
