:100000000C9446000C9465000C9465000C946500FB
:100010000C9465000C9465000C9465000C946500CC
:100020000C9465000C9465000C9465000C946500BC
:100030000C9465000C9465000C9465000C946500AC
:100040000C9467000C9465000C9465000C9465009A
:100050000C9465000C9465000C9465000C9465008C
:100060000C9465000C9465000C9465000C9465007C
:100070000C9465000C9465000C9465000C9465006C
:100080000C9465000C9465000C94650011241FBE4F
:10009000CFEFD0E1DEBFCDBF11E0A0E0B1E0E4E002
:1000A000F5E000E00BBF02C007900D92A231B1074E
:1000B000D9F721E0A2E1B1E001C01D92AB31B20756
:1000C000E1F70E946A010C9480020C9400001F92D8
:1000D0000F920FB60F9211240F900FBE0F901F902A
:1000E000189581FB992790F94091190150911A01B7
:1000F000440F551F406E282F217030E0242B352BE4
:1001000030931A0120931901203F310511F4892FF2
:1001100008958FEF089549B3209117013091180188
:10012000220F331F306E842F817090E0282B392BE3
:10013000309318012093170181E02115304F09F009
:1001400080E0089549B32091150130911601220FE6
:10015000331F306E41FB882780F990E0282B392B24
:10016000309316012093150181E02115304F09F0DD
:1001700080E0089569B38091170190911801880F6C
:10018000991F906E262F217030E0822B932B909335
:100190001801809317018115904FB1F029B3809118
:1001A000150190911601880F991F906E21FB44272D
:1001B00040F950E0842B952B909316018093150104
:1001C0008115904F19F0089580E0089581E0089519
:1001D0008DB180658DB90895CF93DF93AC01009701
:1001E000B9F48091000180930C0180910B01809300
:1001F0000E01E0E0F0E080910A01A2E1B1E0E35FEE
:10020000FE4F8E93AE17BF07E1F7DF91CF910895B0
:100210009C01ADECBCEC0E94710296958795969579
:100220008795969587959C01220F331F880F991FFC
:10023000880F991F880F991F820F931F9A01281BFF
:10024000390BC901E0E0F0E0DF01A45FBE4FEC0133
:10025000C050DF4F88818C939A01ADECBCEC0E94BA
:100260007102AC0156954795569547955695479519
:1002700031964115510501F19A01ADECBCEC0E949B
:1002800071029695879596958795969587959C0189
:10029000220F331F880F991F880F991F880F991FEE
:1002A000820F931F9A01281B390BC901E230F10517
:1002B00059F6E3E0F0E0C8CF80910B0180930E0186
:1002C000E530F1050CF497CFDF91CF9108950895B3
:1002D000929A089587B3806F87BB83E08ABB84E0DE
:1002E00081BB87B3876087BB8FEF82B98DB1806593
:1002F0008DB987B7816087BF83B7856083BF00E012
:1003000010E0C0E0D0E0C12CD12CBB24BA9461E253
:10031000962E70E7A72EEE24EA94E3E0FE2EBBBAF9
:100320008FE891E00197F1F700C000001E981E9A37
:100330009FB8779BFECF8FB180931201982F917059
:100340008270A2E0CA16D10409F479C0B3E0CB16DA
:10035000D10409F452C0CA94CD2809F47BC091118C
:10036000A6C0882309F4ADC0219600E010E042E069
:10037000C42ED12CC430D10509F446C0A8BA2091AE
:10038000130130911401211584E038076CF11092AB
:1003900014011092130180E090E00E94EC0018BA62
:1003A000ECE0F1E080E0982F9295907F98BB9191DE
:1003B0009BBB98B3903459F0AFE8B1E01197F1F7D7
:1003C00000C000008F5F853071F7BABAA8CF2091C6
:1003D000130130911401283E334074F790910A01C3
:1003E000909311019BBBE8CF37FF27C0F092140117
:1003F000E09213018FEF93E0D0CF91113AC08111B9
:100400002DC0C430D10559F480911301909114018D
:1004100001969093140180931301C4E0D0E004305E
:10042000110509F0ABCF8091130190911401019750
:100430009093140180931301A1CFC901AECF911104
:1004400024C081110BC0219600E010E023E0C22EF1
:10045000D12C90CF911122C0882399F10F5F1F4FAB
:1004600001301105C9F1C1E0D0E092E0C92ED12CD4
:10047000D6CF8111C6CF219601E010E0C130D10561
:1004800089F0CC24C394D12C75CF8823A1F30F5FBE
:100490001F4FC0E0D0E0C12CD12CC1CF882359F32D
:1004A00000E010E0C0E0D0E0C12CD12C67CF81117A
:1004B00010C00F5F1F4FC0E0D0E0CC24C394D12CFC
:1004C000AECF0F5F1F4FC2E0D0E033E0C32ED12C80
:1004D000A6CFC12CD12C95CF00E010E0C1E0D0E038
:1004E000E3CFA29FB001B39FC001A39F700D811DF8
:1004F0001124911DB29F700D811D1124911D08952D
:04050000F894FFCF9D
:10050400C0F9A4B0999282F88098FF07C000000057
:020514000000E5
:00000001FF
