:100000000C9446000C9465000C9465000C946500FB
:100010000C9465000C9465000C9465000C946500CC
:100020000C9465000C9499000C9465000C94650088
:100030000C9467000C9465000C9465000C941B04F0
:100040000C9465000C9465000C9465000C9465009C
:100050000C9465000C9465000C9465000C9465008C
:100060000C9465000C9465000C9465000C9465007C
:100070000C9465000C9465000C9465000C9465006C
:100080000C9465000C9465000C94650011241FBE4F
:10009000CFEFD0E1DEBFCDBF11E0A0E0B1E0E2E7FD
:1000A000F9E100E00BBF02C007900D92AA32B10740
:1000B000D9F721E0AAE2B1E001C01D92AD37B20745
:1000C000E1F70E94BA0B0C94B70C0C9400001F923D
:1000D0000F920FB60F9211242F933F938F939F93FC
:1000E0002091150130911601809165019091660172
:1000F0002817390749F09F918F913F912F910F90C9
:100100000FBE0F901F90189520911301309114018C
:1001100080916301909164012817390761F78091FC
:100120003101803441F3139A95B381E0892785BB6F
:10013000E2CF1F920F920FB60F9211248F938091EE
:10014000670183BD8F910F900FBE0F901F90189580
:100150008091170190911801909366018093650139
:1001600080914001909141019093640180936301DB
:1001700008952091150130911601809165019091AB
:1001800066012817390719F080E090E00895409142
:10019000130150911401209163013091640181E0B9
:1001A00090E04217530791F380E008958091400159
:1001B00090914101CC9724F010924101109240019E
:1001C000809140019091410197FD17C080911701E6
:1001D00090911801489724F010921801109217017D
:1001E000809117019091180197FF089587E190E0A1
:1001F000909318018093170108958BE390E09093FA
:10020000410180934001E2CF8091400190914101F2
:10021000CC9724F01092410110924001809140014E
:100220009091410197FD1BC0809117019091180199
:100230000D9734F081E090E09093180180931701BE
:100240008091170190911801181619060CF4089561
:100250008CE090E0909318018093170108958BE350
:1002600090E09093410180934001DECF8091130193
:1002700090911401CC9724F0109214011092130164
:10028000809113019091140197FD17C08091150181
:1002900090911601489724F01092160110921501C2
:1002A000809115019091160197FF089587E190E0E4
:1002B000909316018093150108958BE390E090933D
:1002C000140180931301E2CF8091130190911401E6
:1002D000CC9724F010921401109213018091130115
:1002E0009091140197FD1BC080911501909116010A
:1002F0000D9734F081E090E0909316018093150102
:100300008091150190911601181619060CF40895A4
:100310008CE090E0909316018093150108958BE393
:1003200090E09093140180931301DECF209113018C
:1003300030911401CC97E9F02C3331056CF08091A9
:100340001501909116010196909316018093150165
:1003500010921401109213018091150190911601D1
:100360000D9734F081E090E0909316018093150191
:1003700008958091130190911401019690931401B6
:10038000809313011092370110923601D5CFCC978C
:1003900009F00895809113019091140101969093B2
:1003A0001401809313018091130190911401109214
:1003B000370110923601CC9764F38091150190912A
:1003C0001601019690931601809315011092140165
:1003D0001092130180911501909116014897CCF26B
:1003E000109216011092150108958130910531F196
:1003F000009731F08230910581F1039781F00895E3
:1004000020913201309133018091170190911801B0
:10041000821B930B909318018093170108952091EC
:100420003201309133018091400190914101820F5E
:10043000931F9093410180934001089520913201D0
:10044000309133018091170190911801820F931F11
:1004500090931801809317010895209132013091F3
:1004600033018091400190914101821B930B909345
:1004700041018093400108958130910531F1009749
:1004800031F08230910581F1039781F00895209138
:100490003201309133018091150190911601821B38
:1004A000930B9093160180931501089520913201CA
:1004B000309133018091130190911401820F931FA9
:1004C000909314018093130108952091320130918B
:1004D00033018091150190911601820F931F909323
:1004E0001601809315010895209132013091330156
:1004F0008091130190911401821B930B909314012E
:100500008093130108951E988FE99FE00197F1F7FA
:1005100000C000001E9A80E28FB9779BFECF8FB19A
:1005200080936A0108958FB9779BFECF929A929833
:100530000895AC0199B3FA01EE0FFF1FEB5BFE4F7C
:1005400020813181220F331F306E892F90E002C04D
:10055000959587954A95E2F781709927282B392B35
:100560003183208381E090E02115304F11F080E04D
:1005700090E00895CF93DF93AC01FB01009709F061
:1005800044C08091000180930D0180930E019F0172
:10059000ADECBCEC0E94720CAC015695479556959B
:1005A0004795569547959A01220F331FCA01880F28
:1005B000991F880F991F880F991F820F931FE81B9F
:1005C000F90BE050FF4F8081809310019A010E9447
:1005D000720C9695879596958795969587959C012B
:1005E000220F331F880F991F880F991F880F991F9B
:1005F000820F931F481B590BFA01E050FF4F808177
:1006000080931101DF91CF9108959C01ADECBCEC7A
:100610000E94720CEC01D695C795D695C795D695D4
:10062000C7959E01220F331FCE01880F991F880F97
:10063000991F880F991F820F931F481B590BDA01CE
:10064000A050BF4F8C9180930D019E01ADECBCEC8E
:100650000E94720C969587959695879596958795A5
:100660009C01220F331F880F991F880F991F880F35
:10067000991F820F931FC81BD90BC050DF4F888171
:1006800080930E0184CFCF9390916A0191708091F5
:100690006A0141E0C82FC27081FF40E080916A0189
:1006A000847020916A0131E0522F587023FF30E0AE
:1006B000E1E0F0E0811102C0E0E0F0E060915D0176
:1006C00070915E01232F30E0E617F70709F472C03E
:1006D00060915D0170915E01811111C0552389F017
:1006E000672B91F460912A0170912B016F5F7F4F0E
:1006F00070932B0160932A01AFEFBFEF11C051112E
:1007000071C06130710571F360912A0170912B0104
:100710006150710970932B0160932A01AFEFBFEF15
:10072000F0935E01E0935D013093620120936101DB
:10073000292F30E0609158017091590150E026173F
:10074000370781F19923E1F0809158019091590187
:10075000C1113BC00197E1F080912C0190912D01D6
:10076000019790932D0180932C0130935901209390
:10077000580150935B0140935A01CD01CF910895E8
:100780008091580190915901CC2321F3892B21F7B5
:1007900080912C0190912D01019690932D018093D1
:1007A0002C01E3CF60915A0170915B014617570706
:1007B00049F6E3CF60916101709162012617370716
:1007C00009F086CFAFEFBFEFB3CF892BD9F480917B
:1007D0002C0190912D01039741F110922D0110925F
:1007E0002C01C3CF672BB9F460912A0170912B01C2
:1007F00063307105E9F0AFEFBFEF10922B0110925B
:100800002A018ECF80912C0190912D01039629F71A
:10081000A1E0B0E0E2CF60912A0170912B016D3F21
:100820007F4F49F7A3E0B0E0E8CFA0E0B0E0D5CF3C
:10083000A2E0B0E0E2CF1F920F920FB60F92112408
:100840000BB60F92EF92FF920F931F932F933F934C
:100850004F935F936F937F938F939F93AF93BF93C8
:10086000CF93DF93EF93FF938BB38093570188B3BC
:1008700080935C0110923D0110923C0180915501E2
:100880008F5F80935501982F9F7319F497E0909391
:100890000F01909131019830C1F190913101903464
:1008A000A1F181110CC08CE080930F018091360181
:1008B0009091370101969093370180933601809192
:1008C00013019091140120913601309137018091EC
:1008D0001301909114012C33310509F474C1CC97A4
:1008E0006CF080911501909116010196909316017C
:1008F000809315011092140110921301809115013B
:10090000909116010D970CF0E0C080913101803478
:1009100009F4E6C00E94640180E588BB8FE891E09D
:100920000197F1F700C000001092330110923201DC
:1009300099B32091530130915401220F331F306E2F
:10094000892F90E0880F892F881F990B822B932B7A
:1009500090935401809353018115904F31F49091FD
:10096000310188E089278093310129B380914501C5
:1009700090914601880F991F906E20FBEE24E0F8BD
:10098000F12C8E299F299093460180934501811572
:10099000904F31F49091310180E4892780933101A7
:1009A00029B380914B0190914C01880F991F906E53
:1009B00023FB002700F910E0802B912B90934C0132
:1009C00080934B018115904FA1F49091310184E007
:1009D0008927809331018091650190916601909300
:1009E0006C0180936B018FEF9FEF90936601809372
:1009F000650180913101843009F4D1C029B380911F
:100A0000490190914A01880F991F906E22FB22277D
:100A100020F9C22F20E0D22F8C2B9D2B90934A01DE
:100A2000809349018115904F09F4A0C080E788BBED
:100A300080913101883009F492C080913101803475
:100A400009F486C01E988FE99FE00197F1F700C076
:100A500000001E9A80E28FB9779BFECF8FB1809302
:100A60006A010E94430390932F0180932E0180918D
:100A70002E0190912F010E943C02809131018FB98B
:100A8000779BFECF929A9298809157018BBB809171
:100A90005C0188BB8FEF8ABBFF91EF91DF91CF9113
:100AA000BF91AF919F918F917F916F915F914F9186
:100AB0003F912F911F910F91FF90EF900F900BBEE0
:100AC0000F900FBE0F901F90189581E090E09093CB
:100AD00016018093150180913101803409F01ACFFD
:100AE00081E090E090933D0180933C0190933B0125
:100AF00080933A011E988FE99FE00197F1F700C0BB
:100B000000001E9A80E28FB9779BFECF8FB1809351
:100B10006A010E94430390932F0180932E018091DC
:100B20002E0190912F010E94F5010E9404018091F5
:100B3000170190911801909366018093650180914F
:100B40004001909141019093640180936301E2CE52
:100B500081E090E0909333018093320173CF81E084
:100B600090E0909333018093320167CF90913001F0
:100B700080E289278093300110923D0110923C0160
:100B800010923B0110923A010E9498088FEF9FEF5C
:100B90009093660180936501A898139847CF809140
:100BA0003601909137016AE070E00E943F0C892B7A
:100BB00009F024CF80916B0190916C0190936601B4
:100BC000809365011BCF20911301309114012F5F99
:100BD0003F4F30931401209313011092370110926C
:100BE0003601CC970CF48ACE7CCECF93DF93AC0148
:100BF0000097B9F48091000180930D0180910B0161
:100C000080930F01E0E0F0E080910A01A3E1B1E000
:100C1000E25FFE4F8E93AE17BF07E1F7DF91CF91F2
:100C200008959C01ADECBCEC0E94720C96958795E2
:100C300096958795969587959C01220F331F880F6F
:100C4000991F880F991F880F991F820F931F9A0170
:100C5000281B390BC901E0E0F0E0DF01A35FBE4FC4
:100C6000EC01C050DF4F88818C939A01ADECBCEC55
:100C70000E94720CAC01569547955695479556952E
:100C8000479531964115510501F19A01ADECBCEC47
:100C90000E94720C9695879596958795969587955F
:100CA0009C01220F331F880F991F880F991F880FEF
:100CB000991F820F931F9A01281B390BC901E2303B
:100CC000F10559F6E3E0F0E0C8CF80910B01809385
:100CD0000F01E530F1050CF497CFDF91CF91089526
:100CE00087B3876087BB8DB180658DB987B3806F0F
:100CF00087BB83E08ABB84E081BB8FEF82B9089514
:100D000082E880938B00EAE8F0E08081896180834B
:100D10008AE090E0909381008093800085E090E0ED
:100D2000909387008093860008958FEF84BB1FBC4B
:100D300087B7806187BF8FE99FE09BBD8ABD8EB575
:100D400089608EBD089580B7886080BF87B7826054
:100D500087BF83B7896083BF8FE781BF089585B55B
:100D6000896685BD87B7806887BF14BC0895E1E6B2
:100D7000F0E080818F778083E2E6F0E080818F77FA
:100D8000808387E687B987E886B9089591E0811165
:100D900001C090E09FB9779BFECF6FB9779BFECFE4
:100DA0008091620088608093620080916200877FFA
:100DB000809362008FE99FE00197F1F700C0000087
:100DC000089521E02FB9779BFECF20915601FC01B9
:100DD000E20FF11D80818FB9779BFECF8091620079
:100DE00088608093620080916200877F80936200B8
:100DF000809156018F5F80935601803109F18032D6
:100E000009F0089595ED9A95F1F700001FB8779BCA
:100E1000FECF82E08FB9779BFECF80916200886021
:100E20008093620080916200877F809362008FE9E7
:100E30009FE00197F1F700C000001092560108955D
:100E400085ED8A95F1F700001FB8779BFECF80EC07
:100E50008FB9779BFECF809162008860809362009B
:100E600080916200877F809362008FE99FE0019705
:100E7000F1F700C0000080915601C1CF660F660FE8
:100E8000660F605C1FB8779BFECF6FB9779BFECF74
:100E90002091620028602093620020916200277FE9
:100EA00020936200AFE9BFE01197F1F700C00000A6
:100EB000FC019C01285F3F4F91E081919FB9779B96
:100EC000FECF8FB9779BFECF8091620088608093C0
:100ED000620080916200877F80936200AFE9BFE08B
:100EE0001197F1F700C00000E217F30731F70895FA
:100EF00090E4899F600D1124605C1FB8779BFECF42
:100F00006FB9779BFECF809162008860809362000A
:100F100080916200877F809362008FE99FE0019754
:100F2000F1F700C000000895811119C081E08FB968
:100F3000779BFECF80E38FB9779BFECF80916200D5
:100F400088608093620080916200877F8093620056
:100F50008FE99FE00197F1F700C000000895843603
:100F6000B0F48A3090F591E09FB9779BFECF9DEC6D
:100F7000899F912D1124969596959695FAE09F9FBD
:100F800080191124805D8FB9779BFECFD7CF99E26E
:100F9000899F912D112492959F70905D21E02FB92A
:100FA000779BFECF9FB9779BFECF909162009860B0
:100FB0009093620090916200977F90936200EFE9B6
:100FC000FFE03197F1F700C0000099E2899F912D71
:100FD000112492959F70282FF4E69F9F20191124C9
:100FE000922F2DEC929F912D112496959695969582
:100FF000905D21E02FB9779BFECF9FB9779BFECF05
:101000009091620098609093620090916200977F47
:1010100090936200EFE9FFE03197F1F700C0000024
:10102000A2CF87FF0C94940791E09FB9779BFECFE6
:101030009DE29FB9779BFECF90916200986090935C
:10104000620090916200977F90936200EFE9FFE069
:101050003197F1F700C0000081950C9494071FB8F8
:10106000779BFECF8EE08FB9779BFECF8091620099
:1010700088608093620080916200877F8093620025
:101080008FE99FE00197F1F700C0000008951FB8B5
:10109000779BFECF8CE08FB9779BFECF809162006B
:1010A00088608093620080916200877F80936200F5
:1010B0008FE99FE00197F1F700C0000008951FB885
:1010C000779BFECF8EE18FB9779BFECF8091620038
:1010D00088608093620080916200877F80936200C5
:1010E0008FE99FE00197F1F700C0000008951FB855
:1010F000779BFECF88E18FB9779BFECF809162000E
:1011000088608093620080916200877F8093620094
:101110008FE99FE00197F1F700C000000895E2E633
:10112000F0E08081886080838081877F808308955C
:101130001FB8779BFECF81E08FB9779BFECF809160
:10114000620088608093620080916200877F809354
:1011500062008FE99FE00197F1F700C00000089559
:101160001FB8779BFECF82E08FB9779BFECF80912F
:10117000620088608093620080916200877F809324
:1011800062008FE99FE00197F1F700C00000089529
:101190001FB8779BFECF80EC8FB9779BFECF8091F5
:1011A000620088608093620080916200877F8093F4
:1011B00062008FE99FE00197F1F700C000000895F9
:1011C00090E131E020E23FB9779BFECF2FB9779BCA
:1011D000FECF8091620088608093620080916200FF
:1011E000877F80936200EFE9FFE03197F1F700C05D
:1011F0000000915041F7089591E09FB9779BFECF91
:101200008FB9779BFECF80916200886080936200E7
:1012100080916200877F809362008FE99FE0019751
:10122000F1F700C000000895FC0140E050E060E0EC
:1012300071E0DF01A40FB51F8C917FB9779BFECFC2
:101240008FB9779BFECF9091620098609093620077
:1012500090916200977F909362008FE99FE00197E1
:10126000F1F700C000006F5F462F50E0DF010D90E6
:101270000020E9F79D012E1B3F0B22503109241756
:101280003507B8F608958FEF99EF0197F1F700C091
:10129000000088E0809361001FB8779BFECF80E359
:1012A0008FB9779BFECF8091620088608093620047
:1012B00080916200877F809362008FE99FE00197B1
:1012C000F1F700C000001FB8779BFECF80E38FB915
:1012D000779BFECF8091620088608093620080914E
:1012E0006200877F809362008FE99FE00197F1F7AA
:1012F00000C000001FB8779BFECF80E38FB9779BBB
:10130000FECF8091620088608093620080916200CD
:10131000877F809362008FE99FE00197F1F700C01B
:1013200000001FB8779BFECF88E38FB9779BFECF75
:101330008091620088608093620080916200877F64
:10134000809362008FE99FE00197F1F700C00000F1
:101350001FB8779BFECF88E08FB9779BFECF809137
:10136000620088608093620080916200877F809332
:1013700062008FE99FE00197F1F700C000001FB8FD
:10138000779BFECF81E08FB9779BFECF8091620083
:1013900088608093620080916200877F8093620002
:1013A0008FE99FE00197F1F700C000001FB8779B1D
:1013B000FECF86E08FB9779BFECF80916200886078
:1013C0008093620080916200877F809362008FE942
:1013D0009FE00197F1F700C000001FB8779BFECF98
:1013E0008CE08FB9779BFECF8091620088608093FC
:1013F000620080916200877F809362008FE99FE0A6
:101400000197F1F700C0000008954F925F926F922C
:101410007F928F929F92AF92BF92CF92DF92EF9284
:10142000FF920F931F93CF93DF93CDB7DEB76997EA
:101430000FB6F894DEBF0FBECDBF142F422E5E2C28
:10144000002379F06B017C01CC24F7FCC394DD24EC
:10145000EE24FF240C2D6B017C0197FDA5C0C70174
:10146000B601442009F498C09E012F5F3F4F5901F7
:10147000490166246A94640C712C3FEF631A730A65
:101480006A0C7B1C2AE030E040E050E00E94530CE4
:10149000E62F2A8B3B8B4C8B5D8B6A897B898C89F1
:1014A0009D8920E32E0FF40121934F016E167F06D4
:1014B00049F799249394940CF501E40DF11D2EE263
:1014C00020832AE030E040E050E00E94530CE62FF9
:1014D0002A8B3B8B4C8B5D8B6E8B7F8B888F998F90
:1014E0006A897B898C899D8931E0390DD501A90DE7
:1014F000B11DE05DEC93932E611571058105910599
:1015000001F7112361F051104DC090E2311738F40A
:10151000F501E30FF11D90833F5F1313F9CF002313
:1015200031F0F501E30FF11D9DE290833F5F21E073
:101530003150F501E30FF11D90812FB9779BFECF5C
:101540009FB9779BFECF9091620098609093620064
:1015500090916200977F909362008FE99FE00197DE
:10156000F1F700C000003111E3CF69960FB6F8948F
:10157000DEBF0FBECDBFDF91CF911F910F91FF90C6
:10158000EF90DF90CF90BF90AF909F908F907F9023
:101590006F905F904F900895912C9E012F5F3F4F69
:1015A00059018FCF90E3B2CFF094E094D094C094DF
:1015B000C11CD11CE11CF11C52CF5F926F927F9233
:1015C0008F929F92AF92BF92CF92DF92EF92FF9253
:1015D0000F931F93CF93DF93CDB7DEB761970FB60D
:1015E000F894DEBF0FBECDBF5C01962E542E622E46
:1015F0008B2C881C8824881C782C9C0197FD9FC00C
:10160000552009F490C08E010F5F1F4F7801CC2444
:10161000CA94C50CD12C8FEFC81AD80AC00ED11E9F
:101620006AE070E0C9010E943F0C462F242F372F3B
:10163000805DF70181937F01EC15FD0589F7FF249B
:10164000F394F50CF801E50DF11D8EE2808301C0E5
:10165000F92E6AE070E0C9010E943F0C462F242F4A
:10166000372F91E09F0DF801EF0DF11D805D808314
:101670002115310569F761105BC0B7FC65C0992081
:10168000B1F0682D70E080E2292F30E0492D50E064
:10169000461B570B2417350754F49F5FF801E20FE0
:1016A000F31F8083292F30E024173507B4F3772008
:1016B00031F0F801E90FF11D8DE280839F5F21E099
:1016C0009150F801E90FF11D80812FB9779BFECF72
:1016D0008FB9779BFECF8091620088608093620013
:1016E00080916200877F80936200EFE9FFE031978D
:1016F000F1F700C000009111E3CF61960FB6F894A6
:10170000DEBF0FBECDBFDF91CF911F910F91FF9034
:10171000EF90DF90CF90BF90AF909F908F907F9091
:101720006F905F900895F12C8E010F5F1F4F91CF46
:10173000992009F4BCCF682D70E080E3A5CF222763
:101740003327281B390B5CCFF394F394F801E90F8E
:10175000F11D8DE28083992059F02F2D30E0492D25
:1017600050E02417350724F49F2D712C80E295CF8B
:101770009F2DA5CF139887B3876087BB8DB18065F8
:101780008DB987B3806F87BB83E08ABB84E081BB60
:10179000CFEFC2B90E9443090E949808809161006E
:1017A0008F7780936100809162008F7780936200D1
:1017B00087E687B987E886B985B5896685BD87B725
:1017C000806887BF14BCC4BB1FBC87B7806187BF5C
:1017D0008FE99FE09BBD8ABD8EB589608EBD80B7C5
:1017E000886080BF87B7826087BF83B7896083BF07
:1017F0008FE781BF82E880938B0080918A008961A6
:1018000080938A008AE090E090938100809380002A
:1018100085E090E09093870080938600DFE7369A1A
:10182000349BFECF349A85B190E090936801809309
:101830006701CBBB80911501909116010E94F505BF
:1018400018BAEDE0F1E080E0982F9295907F98BB78
:1018500091919BBBAFE9BFE01197F1F700C0000089
:101860008F5F853089F780913A0190913B01019714
:1018700019F0CABB7894D3CF18BADBBBFACF97FB69
:10188000072E16F4009407D077FD09D00E94810C32
:1018900007FC05D03EF4909581959F4F0895709573
:1018A00061957F4F0895052E97FB1EF400940E94CA
:1018B0006A0C57FD07D00E94950C07FC03D04EF42C
:1018C0000C946A0C50954095309521953F4F4F4FA1
:1018D0005F4F089590958095709561957F4F8F4FDC
:1018E0009F4F0895A29FB001B39FC001A39F700DA9
:1018F000811D1124911DB29F700D811D1124911D18
:101900000895AA1BBB1B51E107C0AA1FBB1FA61746
:10191000B70710F0A61BB70B881F991F5A95A9F798
:1019200080959095BC01CD010895A1E21A2EAA1BC5
:10193000BB1BFD010DC0AA1FBB1FEE1FFF1FA2177F
:10194000B307E407F50720F0A21BB30BE40BF50B7C
:10195000661F771F881F991F1A9469F76095709505
:10196000809590959B01AC01BD01CF010895F8943D
:02197000FFCFA7
:10197200C0F9A4B0999282F88098FF077FFF000017
:101982000000003B000C000C00616C61726D0000F5
:0A199200000000000000000000004B
:00000001FF
