S00C00006C6162332E73726563B6
S11300000C9446000C9465000C9465000C946500F7
S11300100C9465000C9465000C9465000C946500C8
S11300200C9465000C9465000C9465000C946500B8
S11300300C9465000C9465000C9465000C946500A8
S11300400C942A020C9465000C9465000C946500D1
S11300500C9465000C9465000C9465000C94650088
S11300600C9465000C9465000C9465000C94650078
S11300700C9465000C9465000C9465000C94650068
S11300800C9465000C9465000C94650011241FBE4B
S1130090CFEFD0E1DEBFCDBF11E0A0E0B1E0E4ECF2
S11300A0F6E000E00BBF02C007900D92A231B10749
S11300B0D9F721E0A2E1B1E001C01D92AF32B2074D
S11300C0E1F70E94E4020C9460030C940000813078
S11300D09105B9F0009731F08230910519F003973A
S11300E081F008952091190130911A0180911D0128
S11300F090911E01821B930B90931E0180931D010E
S113010008952091190130911A0180911D01909157
S11301101E01820F931F90931E0180931D01089569
S11301201E981E9A80E28FB9779BFECF8FB1809381
S11301302E0108958FB9779BFECF929A92980895D5
S113014049B32091210130912201220F331F306ED7
S1130150842F817090E0282B392B30932201209337
S1130160210181E090E02115304F11F080E090E012
S1130170089549B320911F0130912001220F331FAC
S1130180306E41FB882780F990E0282B392B30937F
S1130190200120931F0181E090E02115304F11F0E0
S11301A080E090E008958DB180658DB90895CF9376
S11301B0DF93AC010097B9F48091000180930C01A6
S11301C080910B0180930E01E0E0F0E080910A0140
S11301D0A2E1B1E0E35FFE4F8E93AE17BF07E1F7F4
S11301E0DF91CF9108959C01ADECBCEC0E945103CA
S11301F09695879596958795969587959C01220F58
S1130200331F880F991F880F991F880F991F820F1A
S1130210931F9A01281B390BC901E0E0F0E0DF01CC
S1130220A45FBE4FEC01C050DF4F88818C939A01CC
S1130230ADECBCEC0E945103AC0156954795569524
S113024047955695479531964115510501F19A0107
S1130250ADECBCEC0E9451039695879596958795D5
S1130260969587959C01220F331F880F991F880F3D
S1130270991F880F991F820F931F9A01281B390B0E
S1130280C901E230F10559F6E3E0F0E0C8CF80910E
S11302900B0180930E01E530F1050CF497CFDF914B
S11302A0CF910895CF9390912E01917080912E015A
S11302B041E0C82FC27081FF40E080912E0184701C
S11302C020912E0131E0522F587023FF30E0E1E0FD
S11302D0F0E0811102C0E0E0F0E06091290170914A
S11302E02A01232F30E0E617F70709F472C0609162
S11302F0290170912A01811111C0552389F0672BBE
S113030091F460911201709113016F5F7F4F7093AC
S1130310130160931201AFEFBFEF11C0511171C00F
S11303206130710571F36091120170911301615094
S113033071097093130160931201AFEFBFEFF09353
S11303402A01E093290130932C0120932B01292FBA
S113035030E0609124017091250150E026173707A1
S113036081F19923E1F08091240190912501C1113B
S11303703BC00197E1F08091140190911501019720
S11303809093150180931401309325012093240147
S11303905093270140932601CD01CF910895809178
S11303A0240190912501CC2321F3892B21F78091FD
S11303B014019091150101969093150180931401F5
S11303C0E3CF60912601709127014617570749F63C
S11303D0E3CF60912B0170912C012617370709F0A8
S11303E086CFAFEFBFEFB3CF892BD9F4809114013F
S11303F090911501039741F1109215011092140187
S1130400C3CF672BB9F4609112017091130163306B
S11304107105E9F0AFEFBFEF1092130110921201D2
S11304208ECF8091140190911501039629F7A1E0D4
S1130430B0E0E2CF60911201709113016D3F7F4FE4
S113044049F7A3E0B0E0E8CFA0E0B0E0D5CFA2E068
S1130450B0E0E2CF1F920F920FB60F9211240BB6A9
S11304600F922F933F934F935F936F937F938F9349
S11304709F93AF93BF93EF93FF938BB38093230129
S113048088B38093280180E588BB8FE891E00197C9
S1130490F1F700C0000069B380912101909122011D
S11304A0880F991F906E262F217030E0822B932B9A
S11304B090932201809321018115904F09F463C028
S11304C029B380911F0190912001880F991F906E8C
S11304D021FB442740F950E0842B952B9093200175
S11304E080931F018115904F09F467C080E788BB92
S11304F081E090E090931A01809319018091180192
S1130500883409F455C080911801883009F449C031
S1130510809118018034F1F1809118018FB9779B93
S1130520FECF929A92981E981E9A80E28FB9779B7A
S1130530FECF8FB180932E010E9452019093170138
S11305408093160180911601909117010E94670013
S1130550809123018BBB8091280188BB8FEF8ABBDC
S1130560FF91EF91BF91AF919F918F917F916F9187
S11305705F914F913F912F910F900BBE0F900FBE43
S11305800F901F9018959091180188E08927809307
S11305901801ACCF84E090E090931A018093190184
S11305A0BBCF82E090E090931A0180931901B0CF01
S11305B010921A0110921901A6CF9091180180E4AB
S11305C089278093180192CF87B3806F87BB83E01C
S11305D08ABB84E081BB87B3876087BB8FEF82B916
S11305E08DB180658DB987B7816087BF83B785601A
S11305F083BFCFEFCBBB80911D0190911E0181156C
S1130600944024F010921E0110921D0180911D014E
S113061090911E0197FD40C020E030E080911D01C3
S113062090911E0197FD32C080911D0190911E0191
S11306300E94D7008FE891E00197F1F700C0000015
S113064018BAECE0F1E080E0982F9295907F98BB87
S113065091919BBB98B3903461F0AFE9BFE01197DF
S1130660F1F700C000008F5F853071F7CABB789442
S1130670C1CF20911D0130911E01283E33406CF7FB
S113068090910A01909311019BBBE7CF3C5F30939B
S11306901E0120931D01C8CF20911D0130911E0120
S11306A0BDCFA29FB001B39FC001A39F700D811D58
S11306B01124911DB29F700D811D1124911D089567
S10706C0F894FFCFD8
S11306C4C0F9A4B0999282F88098FF07C000000092
S10506D4000020
S9030000FC
