:100000000C9497000C94B6000C94B6000C94B600B7
:100010000C94B6000C94B6000C94B6000C94B60088
:100020000C94B6000C949C020C94B6000C94B60090
:100030000C9489020C94B6000C94B6000C94AB029C
:100040000C94B6000C94B6000C943C060C94B600CC
:100050000C94B6000C94B6000C94B6000C94B60048
:100060000C94B6000C94B6000C94B6000C94B60038
:100070000C94B6000C94B6000C94B6000C94B60028
:100080000C94B6000C94A00B0C94B600E10BB80BCA
:10009000B80BB80BB80BB80BB80BB80BE10BB80B1F
:1000A000B80BB80BB80BB80BB80BB80BEB0BB80B05
:1000B000B80BB80BB80BB80BB80BB80BB80BB80B28
:1000C000B80BB80BB80BB80BB80BB80BEB0BB80BE5
:1000D000B80BB80BB80BB80BB80BB80BB80BB80B08
:1000E000B80BB80BB80BB80BB80BB80B020CB80BAD
:1000F000B80BB80BB80BB80BB80BB80B060CB80B99
:10010000B80BB80BB80BB80BB80BB80BB80BB80BD7
:10011000B80BB80BB80BB80BB80BB80B140CB80B6A
:10012000B80BB80BB80BB80BB80BB80BD20B11242B
:100130001FBECFEFD0E1DEBFCDBF11E0A0E0B1E048
:10014000EEE5FDE100E00BBF02C007900D92A8357F
:10015000B107D9F722E0A8E5B1E001C01D92A83AA5
:10016000B207E1F70E945E0C0C94AD0E0C940000F7
:1001700080915F01883079F080915F01803459F07F
:100180002091140130911501809116019091170171
:100190002817390709F0089580916C0190916D013D
:1001A0000197C9F785E090E09093870080938600DF
:1001B0008EB581608EBD0895AC0199B3FA01EE0F42
:1001C000FF1FE658FE4F20813181220F331F306E12
:1001D000892F90E002C0959587954A95E2F7817046
:1001E0009927282B392B3183208381E02115304F2B
:1001F00009F080E00895CF939091CD0191708091A6
:10020000CD0141E0C82FC27081FF40E08091CD0157
:1002100084702091CD0131E0522F587023FF30E0DF
:10022000E1E0F0E0811102C0E0E0F0E060919401D3
:1002300070919501232F30E0E617F70709F472C09B
:100240006091940170919501811111C0552389F03D
:10025000672B91F460915801709159016F5F7F4F46
:100260007093590160935801AFEFBFEF11C0511166
:1002700071C06130710571F360915801709159013D
:10028000615071097093590160935801AFEFBFEF4E
:10029000F0939501E09394013093A9012093A80174
:1002A000292F30E060918F017091900150E0261766
:1002B000370781F19923E1F080918F0190919001AE
:1002C000C1113BC00197E1F080915A0190915B010F
:1002D000019790935B0180935A0130939001209392
:1002E0008F015093920140939101CD01CF910895D8
:1002F00080918F0190919001CC2321F3892B21F7DC
:1003000080915A0190915B01019690935B018093DB
:100310005A01E3CF609191017091920146175707FE
:1003200049F6E3CF6091A8017091A901261737071C
:1003300009F086CFAFEFBFEFB3CF892BD9F480910F
:100340005A0190915B01039741F110925B01109269
:100350005A01C3CF672BB9F46091580170915901CC
:1003600063307105E9F0AFEFBFEF109259011092C1
:1003700058018ECF80915A0190915B01039629F725
:10038000A1E0B0E0E2CF60915801709159016D3F5A
:100390007F4F49F7A3E0B0E0E8CFA0E0B0E0D5CFD1
:1003A000A2E0B0E0E2CF8130910561F1009731F039
:1003B00082309105E1F10397B1F008954091620117
:1003C00050916301809116019091170164E6649F3A
:1003D0009001659F300D1124821B930B90931701A0
:1003E00080931601089520916201309163018091FC
:1003F000160190911701820F931F9093170180931C
:100400001601089540916201509163018091160197
:100410009091170164E6649F9001659F300D11244F
:10042000820F931F909317018093160108952091D6
:100430006201309163018091160190911701821B36
:10044000930B9093170180931601089581309105C5
:1004500061F1009731F082309105E1F10397B1F03D
:100460000895409160015091610180911401909133
:10047000150164E6649F9001659F300D1124821B75
:10048000930B9093150180931401089520916001BE
:10049000309161018091140190911501820F931F99
:1004A000909315018093140108954091600150913B
:1004B0006101809114019091150164E6649F90019F
:1004C000659F300D1124820F931F90931501809327
:1004D000140108952091600130916101809114010F
:1004E00090911501821B930B909315018093140139
:1004F00008951E981E9A80E28FB9779BFECF8FB128
:100500008093CD0108958FB9779BFECF929A9298F0
:1005100008951F920F920FB60F9211248F939F93FD
:10052000139A95B381E0892785BB9F918F910F9096
:100530000FBE0F901F9018951F920F920FB60F923B
:1005400011248F938091AA0183BD8F910F900FBECC
:100550000F901F9018951F920F920FB60F921124B3
:100560000BB60F92EF92FF920F931F932F933F932F
:100570004F935F936F937F938F939F93AF93BF93AB
:10058000CF93DF93EF93FF938BB380938E0188B368
:100590008093930188E191E00E94FA060E94B800DE
:1005A0008091700190917101019709F4FAC08091D6
:1005B0007801909179010196909379018093780167
:1005C0009C012F773327232B19F427E020930F0169
:1005D0009170892B09F4BEC080E588BB8FE891E05B
:1005E0000197F1F700C0000029B380917A01909142
:1005F0007B01880F991F906E20FBEE24E0F8F12C10
:10060000E82AF92AF0927B01E0927A01E11490EF56
:10061000F90631F490915F0180E4892780935F01AE
:1006200029B38091800190918101880F991F906E6C
:1006300023FB002700F910E0802B912B9093810180
:10064000809380018115904F31F490915F0184E097
:10065000892780935F0129B380917E0190917F016A
:10066000880F991F906E22FB222720F9C22F20E0CD
:10067000D22F8C2B9D2B90937F0180937E0181152F
:10068000904F31F490915F0180E2892780935F0160
:1006900099B32091880130918901220F331F306E68
:1006A000892F90E0880F892F881F990B822B932B1D
:1006B00090938901809388018115904F31F4909136
:1006C0005F0188E0892780935F0180E788BB1E98DF
:1006D0001E9A80E28FB9779BFECF8FB18093CD01B8
:1006E0000E94FB0090935D0180935C0180915C010E
:1006F00090915D010E94D30180915C0190915D0118
:100700000E94260280915F018FB9779BFECF929A5B
:10071000929880918E018BBB8091930188BB8FEF63
:100720008ABBFF91EF91DF91CF91BF91AF919F91E4
:100730008F917F916F915F914F913F912F911F9179
:100740000F91FF90EF900F900BBE0F900FBE0F9088
:100750001F9018958CEA91E00E947B0680E00E9431
:100760006A068CE080930F012091120130911301F1
:100770008091640190916501820F931F90936501B0
:1007800080936401209112013091130180916601E0
:1007900090916701820F931F909367018093660188
:1007A0001BCFE8E3F1E001900020E9F73197AF01BA
:1007B000485351401092A7011092A60141155105CE
:1007C00009F4F5CEA8E3B1E0E3E2F1E09A012D5D92
:1007D0003E4F8D918193E217F307D9F75093A7010C
:1007E0004093A601E4CE1092710110927001109214
:1007F0006F0110926E0110926D0110926C011092B7
:10080000690110926801E8E3F1E001900020E9F746
:100810003197AF01485351401092A7011092A601A1
:100820004115510571F0E3E2F1E09A012D5D3E4F73
:1008300080E28193E217F307E1F75093A701409319
:10084000A60188E191E00E94FA06109287001092BA
:1008500086008EB58E7F8EBD80915F018F7D8093E7
:100860005F010895809114019091150164E670E094
:100870000E94F70D80911401909115014CE94603F7
:100880009001479F300D1124820F931F83369105ED
:1008900009F440C08C33910541F16D3071058CF045
:1008A00024E630E0309315012093140120911401C7
:1008B00030911501820F931F9093150180931401BD
:1008C00008951616170684F020EB34E030931501D6
:1008D000209314012091140130911501820F931F70
:1008E0009093150180931401089520911401309183
:1008F0001501285D3F4F309315012093140120917D
:1009000014013091150124563109309315012093BB
:100910001401C3CF209114013091150128523109DF
:100920003093150120931401209114013091150189
:100930002C593F4F3093150120931401AECF809175
:1009400016019091170164E670E00E94F70D809106
:100950001601909117014CE946039001479F300D15
:100960001124820F931F8336910509F440C08C3304
:10097000910541F16D3071058CF024E630E0309343
:100980001701209316012091160130911701820F53
:10099000931F90931701809316010895161617065A
:1009A00084F020EB34E0309317012093160120915E
:1009B000160130911701820F931F909317018093B6
:1009C000160108952091160130911701285D3F4FBF
:1009D00030931701209316012091160130911701D1
:1009E000245631093093170120931601C3CF20916B
:1009F00016013091170128523109309317012093C5
:100A0000160120911601309117012B33310559F051
:100A100020911601309117012C593F4F3093170147
:100A200020931601A7CF2091160130911701205570
:100A30003B4F30931701209316019CCF1F93809159
:100A400016019091170164E670E00E94F70D9B017A
:100A500080911601909117011CE91603A001179FC0
:100A6000500D1124840F951F409164015091650130
:100A70004C33510574F040911601509117014F5FAE
:100A80005F4F509317014093160110926501109229
:100A90006401CC9764F080911601909117018896BB
:100AA00090931701809316019B012F5F3F4F2D30CC
:100AB000310534F084E690E090931701809316019D
:100AC0001F91089518BAEDE0F1E081918BBB8FE69C
:100AD00097E10197F1F700C0000088B3805F88BB01
:100AE00091E0E231F90789F7089587B3876087BB02
:100AF0008DB180658DB9709A87B3806F87BB83E0B5
:100B00008ABB84E081BB8FEF82B9089582E880932D
:100B10008B00EAE8F0E08081896180838AE090E0E0
:100B2000909381008093800010928700109286003D
:100B300008958FEF84BB1FBC87B7806187BF8FE9A3
:100B40009FE09BBD8ABD8EB588608EBD089580B73D
:100B5000886080BF87B7826087BF83B7896083BFA3
:100B60008FE381BF089585B5896685BD87B78068A5
:100B700087BF14BC0895E1E6F0E080818F77808321
:100B8000E2E6F0E080818F77808387E687B987E8A7
:100B900086B90895CF93DF93AC01009791F48091CB
:100BA000000180930D01E0E0F0E080910A01E35F35
:100BB000FE4F819331E0E231F307D9F7DF91CF9116
:100BC00008959C01ADECBCEC0E94330E9695879580
:100BD00096958795969587959C01220F331F880FD0
:100BE000991F880F991F880F991F820F931F9A01D1
:100BF000281B390BC901E0E0F0E0DF01A35FBE4F25
:100C0000EC01C050DF4F88818C939A01ADECBCECB5
:100C10000E94330EAC0156954795569547955695CB
:100C2000479531964115510501F19A01ADECBCECA7
:100C30000E94330E969587959695879596958795FC
:100C40009C01220F331F880F991F880F991F880F4F
:100C5000991F820F931F9A01281B390BC901E2309B
:100C6000F10559F6E3E0F0E0C8CFE530F1050CF40A
:100C70009CCFDF91CF9108951F920F920FB60F92E4
:100C800011240BB60F928F939F93EF93FF938CB128
:100C90008093CE01E091770191E09E0F90937701D0
:100CA000F0E0EA56FE4F8083811109C081E0809315
:100CB0008D0180E280838183828310927701FF918E
:100CC000EF919F918F910F900BBE0F900FBE0F90E1
:100CD0001F9018955D9BFECF8CB95D9BFECF08954C
:100CE00090919B0095FFFCCF80939C0080919B008E
:100CF00085FFFCCF0895FC019081992349F031963E
:100D00005D9BFECF9CB95D9BFECF91919111F8CF79
:100D10000895FC012081222371F0319690919B006F
:100D200095FFFCCF20939C0090919B0095FFFCCFFA
:100D300021912111F3CF08959C01FC01449144239A
:100D400069F00196F90124915D9BFECF2CB95D9B62
:100D5000FECF9C01FC0144914111F3CF08958AB16B
:100D600088698AB9E5E9F0E0808186608083109225
:100D7000900087E689B90895EAE9F0E0808188610A
:100D80008083EDE9F0E08081866080831092980096
:100D900087E680939900089580E89EE302C001975A
:100DA00021F05F9BFCCF8CB1089580E0089580E82E
:100DB0009EE302C0019739F020919B0027FFFACFF4
:100DC00080919C00089580E0089591E0811101C018
:100DD00090E09FB9779BFECF6FB9779BFECF809154
:100DE000620088608093620080916200877F8093B8
:100DF0006200089520918B01820F911DFC0180817A
:100E000081111FC081E080938A0181E08FB9779BB7
:100E1000FECF80E28FB9779BFECF80916200886021
:100E20008093620080916200877F8093620080914E
:100E30008B018F5F80938B01803149F1803269F0A3
:100E4000089590918A019111E0CF91E09FB9779B2D
:100E5000FECF8FB9779BFECFE0CF85ED8A95F1F776
:100E600000001FB8779BFECF80E88FB9779BFECF3D
:100E70008091620088608093620080916200877F29
:100E80008093620010928A0110928B010895F5ED13
:100E9000FA95F1F700001FB8779BFECF80EC8FB971
:100EA000779BFECF80916200886080936200809182
:100EB0006200877F809362000895660F660F660F59
:100EC000605C1FB8779BFECF6FB9779BFECF2091F8
:100ED000620028602093620020916200277F2093A7
:100EE000620025ED2A95F1F70000FC019C01285FC6
:100EF0003F4F91E081919FB9779BFECF8FB9779B50
:100F0000FECF8091620088608093620080916200D1
:100F1000877F8093620085ED8A95F1F70000E217E4
:100F2000F30741F7089590E4899F600D1124605CF8
:100F30001FB8779BFECF6FB9779BFECF8091620081
:100F400088608093620080916200877F8093620056
:100F50000895811113C081E08FB9779BFECF80E3A4
:100F60008FB9779BFECF809162008860809362008A
:100F700080916200877F8093620008958436B0F488
:100F80008A3060F591E09FB9779BFECF9DEC899FF9
:100F9000912D11249695969596952AE0929F801909
:100FA0001124805D8FB9779BFECFDDCF99E2899FB9
:100FB000912D112492959F70905D21E02FB9779B20
:100FC000FECF9FB9779BFECF90916200986090937F
:100FD000620090916200977F9093620099E2899FEE
:100FE000912D112492959F70382F24E6929F3019ED
:100FF00011242DEC329F912D11249695969596955E
:10100000905D21E02FB9779BFECF9FB9779BFECFF4
:101010009091620098609093620090916200977F37
:1010200090936200AFCF87FF0C94A90791E09FB91E
:10103000779BFECF9DE29FB9779BFECF9091620098
:1010400098609093620090916200977F9093620005
:1010500095ED9A95F1F7000081950C94A9071FB8BA
:10106000779BFECF8EE08FB9779BFECF8091620099
:1010700088608093620080916200877F8093620025
:1010800008951FB8779BFECF8CE08FB9779BFECF7A
:101090008091620088608093620080916200877F07
:1010A0008093620008951FB8779BFECF8EE18FB9C1
:1010B000779BFECF80916200886080936200809170
:1010C0006200877F8093620008951FB8779BFECFF0
:1010D00088E18FB9779BFECF809162008860809312
:1010E000620080916200877F809362000895E2E64B
:1010F000F0E08081886080838081877F808308958D
:101100001FB8779BFECF81E08FB9779BFECF809190
:10111000620088608093620080916200877F809384
:1011200062008FE19CE10197F1F700C00000089593
:101130001FB8779BFECF82E08FB9779BFECF80915F
:10114000620088608093620080916200877F809354
:1011500062008FE697E10197F1F700C00000089563
:101160001FB8779BFECF80EC8FB9779BFECF809125
:10117000620088608093620080916200877F809324
:10118000620008951FB8779BFECF80E88FB9779BE8
:10119000FECF80916200886080936200809162003F
:1011A000877F80936200089590E131E020E23FB9AB
:1011B000779BFECF2FB9779BFECF8091620088602E
:1011C0008093620080916200877F8093620085ED4A
:1011D0008A95F1F70000915051F7089591E09FB979
:1011E000779BFECF8FB9779BFECF8091620088609E
:1011F0008093620080916200877F809362000895EF
:10120000FC0140E050E060E071E0DF01A40FB51F99
:101210008C917FB9779BFECF8FB9779BFECF909152
:10122000620098609093620090916200977F909323
:10123000620085ED8A95F1F700006F5F462F50E060
:10124000DF010D900020E9F79D012E1B3F0B22507E
:10125000310924173507C8F608958FEF99EF0197E4
:10126000F1F700C0000088E0809361001FB8779B11
:10127000FECF80E38FB9779BFECF809162008860BC
:101280008093620080916200877F809362008FE587
:101290009DE60197F1F700C000001FB8779BFECFD5
:1012A00080E38FB9779BFECF809162008860809346
:1012B000620080916200877F809362008FE59DE6E7
:1012C0000197F1F700C000001FB8779BFECF80E3C5
:1012D0008FB9779BFECF8091620088608093620017
:1012E00080916200877F809362008FE59DE6019781
:1012F000F1F700C000001FB8779BFECF88E38FB9DD
:10130000779BFECF8091620088608093620080911D
:101310006200877F809362008FE19EE40197F1F77E
:1013200000C000001FB8779BFECF88E08FB9779B85
:10133000FECF80916200886080936200809162009D
:10134000877F809362008FE19EE40197F1F700C0F0
:1013500000001FB8779BFECF81E08FB9779BFECF4F
:101360008091620088608093620080916200877F34
:10137000809362008FE19EE40197F1F700C00000C6
:101380001FB8779BFECF86E08FB9779BFECF809109
:10139000620088608093620080916200877F809302
:1013A00062008FE19EE40197F1F700C000001FB8D2
:1013B000779BFECF8CE08FB9779BFECF8091620048
:1013C00088608093620080916200877F80936200D2
:1013D0008FE19EE40197F1F700C0000008954F925D
:1013E0005F926F927F928F929F92AF92BF92CF92B5
:1013F000DF92EF92FF920F931F93CF93DF93CDB7BE
:10140000DEB769970FB6F894DEBF0FBECDBF142FBD
:10141000422E5E2C002379F06B017C01CC24F7FC7A
:10142000C394DD24EE24FF240C2D6B017C0197FD79
:10143000A3C0C701B601442009F496C09E012F5FE6
:101440003F4F5901490166246A94640C712C3FEFA7
:10145000631A730A6A0C7B1C2AE030E040E050E01B
:101460000E940B0EE62F2A8B3B8B4C8B5D8B6A897F
:101470007B898C899D8920E32E0FF40121934F01F4
:101480006E167F0649F799249394940CF501E40DA8
:10149000F11D2EE220832AE030E040E050E00E947F
:1014A0000B0EE62F2A8B3B8B4C8B5D8B6E8B7F8BD1
:1014B000888F998F6A897B898C899D8931E0390D64
:1014C000D501A90DB11DE05DEC93932E6115710559
:1014D0008105910501F7112361F051104BC090E295
:1014E000311738F4F501E30FF11D90833F5F1313BB
:1014F000F9CF002331F0F501E30FF11D9DE2908358
:101500003F5F21E03150F501E30FF11D90812FB9CC
:10151000779BFECF9FB9779BFECF9091620098603A
:101520009093620090916200977F9093620085EDA6
:101530008A95F1F700003111E5CF69960FB6F8945E
:10154000DEBF0FBECDBFDF91CF911F910F91FF90F6
:10155000EF90DF90CF90BF90AF909F908F907F9053
:101560006F905F904F900895912C9E012F5F3F4F99
:10157000590191CF90E3B4CFF094E094D094C0940B
:10158000C11CD11CE11CF11C54CF5F926F927F9261
:101590008F929F92AF92BF92CF92DF92EF92FF9283
:1015A0000F931F93CF93DF93CDB7DEB761970FB63D
:1015B000F894DEBF0FBECDBF5C01962E542E622E76
:1015C0008B2C881C8824881C782C9C0197FD9DC03E
:1015D000552009F48EC08E010F5F1F4F7801CC2477
:1015E000CA94C50CD12C8FEFC81AD80AC00ED11ED0
:1015F0006AE070E0C9010E94F70D462F242F372FB3
:10160000805DF70181937F01EC15FD0589F7FF24CB
:10161000F394F50CF801E50DF11D8EE2808301C015
:10162000F92E6AE070E0C9010E94F70D462F242FC1
:10163000372F91E09F0DF801EF0DF11D805D808344
:101640002115310569F7611059C0B7FC63C09920B5
:10165000B1F0682D70E080E2292F30E0492D50E094
:10166000461B570B2417350754F49F5FF801E20F10
:10167000F31F8083292F30E024173507B4F3772038
:1016800031F0F801E90FF11D8DE280839F5F21E0C9
:101690009150F801E90FF11D80812FB9779BFECFA2
:1016A0008FB9779BFECF8091620088608093620043
:1016B00080916200877F80936200F5EDFA95F1F7E3
:1016C00000009111E5CF61960FB6F894DEBF0FBE12
:1016D000CDBFDF91CF911F910F91FF90EF90DF90E1
:1016E000CF90BF90AF909F908F907F906F905F90C2
:1016F0000895F12C8E010F5F1F4F93CF992009F4AD
:10170000BECF682D70E080E3A7CF22273327281BA8
:10171000390B5ECFF394F394F801E90FF11D8DE2DC
:101720008083992059F02F2D30E0492D50E0241767
:10173000350724F49F2D712C80E297CF9F2DA7CFE2
:101740001F920F920FB60F9211240BB60F922F9388
:101750003F938F939F93AF93BF93EF93FF93E0914A
:1017600071008E2F90E0FC013897E135F105B0F063
:10177000809171008093A30284E080937400FF91B4
:10178000EF91BF91AF919F918F913F912F910F90CA
:101790000BBE0F900FBE0F901F901895EA5BFF4F86
:1017A0000C942A0E80918C01E091A402F091A50284
:1017B000E80FF11D80917300808384E980937400A9
:1017C000DECF8091A6028093730010928C0185E891
:1017D00080937400D4CF80918C019091A7028917D7
:1017E00060F7E091A402F091A50291E0980F909328
:1017F0008C01E80FF11D80818093730085E8809350
:101800007400BDCF85EA80937400B9CF20918C011C
:101810008091A70230E090E0019728173907DCF4A7
:1018200085EC80937400ABCFE091A402F091A50207
:1018300080918C0121E0280F20938C01E80FF11D8D
:101840008091730080838091A70230E090E001973F
:10185000281739072CF385E88093740090CF809186
:101860007400817008959091740090FDFCCF8E7F7C
:101870008093A6027093A5026093A4024093A702EE
:1018800085EA8093740008959091740090FDFCCFD8
:1018900081608093A6027093A5026093A402409396
:1018A000A70285EA8093740008958FEF80937300F8
:1018B000109271008CE080937000089587B3876068
:1018C00087BB8DB180658DB9709A87B3806F87BBF8
:1018D00083E08ABB84E081BBCFEFC2B90E94550C84
:1018E0000E94AF060E942D090E948008809161002D
:1018F0008F7780936100809162008F778093620080
:1019000087E687B987E886B985B5896685BD87B7D3
:10191000806887BF14BCC4BB1FBC87B7806187BF0A
:101920008FE99FE09BBD8ABD8EB588608EBD80B774
:10193000886080BF87B7826087BF83B7896083BFB5
:101940008FE381BF82E880938B0080918A00896158
:1019500080938A008AE090E09093810080938000D9
:10196000109287001092860088E191E00E94FA06AA
:10197000CCEAD1E036E9C32E31E0D32E01E010E00D
:1019800045E0E42EF12CBB24BA945FE7A52E369AED
:10199000349BFECF349A85B190E09093AB01809355
:1019A000AA018091750190917601892B09F0CCC034
:1019B00042E061EA72E080E90E94440C8FE39FE11B
:1019C0000197F1F700C000008091A1029091A2025E
:1019D0009827892798274AE06CEA71E0880F892FB9
:1019E000881F990B91950E94780E1092A701109272
:1019F000A6012CEA31E0AEE1B1E080E090E009C060
:101A0000F90181919F018D935093A7014093A60105
:101A1000CA01FE0101900020E9F73197EC5AF1402C
:101A2000AC014F5F5F4F8E179F0750F380918D0180
:101A3000813009F492C080915F01883009F4B5C00B
:101A4000893008F44EC0803209F4C7C0803409F0F0
:101A5000B7C0109371010093700110936D01009352
:101A60006C0110936F0100936E0110936B01009352
:101A70006A0110936101009360010E9432040E9488
:101A80001E05BBBA8091700190917101019729F4F4
:101A900080915F01803409F4A3C080911601909178
:101AA00017010E94CA0518BAEDE0F1E080E0982F16
:101AB0009295907F98BB91919BBBAFE9BFE0119746
:101AC000F1F700C000008F5F853089F780917001C9
:101AD00090917101892B11F018BAABBABABA789407
:101AE00056CF843009F06CC08091680190916901F3
:101AF000892B79F4109267011092660110926D01A2
:101B000010926C0110928700109286008EB58E7F25
:101B10008EBD1093690100936801809166019091D8
:101B200067010A9709F0ABCF109267011092660126
:101B300010936D0100936C01F0928700E092860093
:101B40008EB581608EBD9BCF10927601109275018B
:101B500088E191E00E94FA062BCF1092A701109223
:101B6000A60126E931E0AFE2B1E080E090E009C0F3
:101B7000F90181919F018D935093A7014093A60194
:101B8000CA01F60101900020E9F73197E659F140CA
:101B9000AC014F5F5F4F8E179F0750F310928D017E
:101BA00080915F01883009F04BCF1093630100935F
:101BB000620110921301109212010E949F045FCFE4
:101BC0001092630110926201109261011092600103
:101BD000109313010093120152CF0E94F3034FCFD1
:101BE00080911401909115010E94CA055CCF97FB6A
:101BF000072E16F4009407D077FD09D00E94420EFC
:101C000007FC05D03EF4909581959F4F08957095FF
:101C100061957F4F0895052E97FB1EF400940E9456
:101C2000220E57FD07D00E94560E07FC03D04EF43B
:101C30000C94220E50954095309521953F4F4F4F73
:101C40005F4F089590958095709561957F4F8F4F68
:101C50009F4F0895EE0FFF1F0024001C0BBE07903E
:101C6000F691E02D0994A29FB001B39FC001A39FFC
:101C7000700D811D1124911DB29F700D811D1124C5
:101C8000911D0895AA1BBB1B51E107C0AA1FBB1FD2
:101C9000A617B70710F0A61BB70B881F991F5A95F8
:101CA000A9F780959095BC01CD010895A1E21A2E67
:101CB000AA1BBB1BFD010DC0AA1FBB1FEE1FFF1FF0
:101CC000A217B307E407F50720F0A21BB30BE40B40
:101CD000F50B661F771F881F991F1A9469F7609587
:101CE0007095809590959B01AC01BD01CF01089541
:101CF000BB274A3031F4992322F4BDE290958195B7
:101D00009F4F0C94840EBB27FB015527AA27880FF1
:101D1000991FAA1FA41710F0A41B83955051B9F75F
:101D2000A05DAA3308F0A95DA193009779F7B111DE
:101D3000B1931192CB010C949D0EDC01FC01672F35
:101D400071917723E1F7329704C07C916D93708392
:0E1D50006291AE17BF07C8F30895F894FFCF55
:101D5E00C0F9A4B0999282F88098FF077FFF000027
:101D6E0000000100B004E8036C6F63616C3A202040
:101D7E00202020202020202072656D6F74653A206F
:101D8E002020202020202020414C41524D000000D8
:101D9E000000000000000000000000000000000035
:081DAE0000000000000000002D
:00000001FF
