:100000000C9497000C94B6000C94B6000C94B600B7
:100010000C94B6000C94B6000C94B6000C94B60088
:100020000C94B6000C9425020C94B6000C94B60007
:100030000C9412020C94B6000C94B6000C941D049F
:100040000C94B6000C94B6000C9431060C94B600D7
:100050000C94B6000C94B6000C94B6000C94B60048
:100060000C94B6000C94B6000C94B6000C94B60038
:100070000C94B6000C94B6000C94B6000C94B60028
:100080000C94B6000C94960B0C94B600D70BAE0BE8
:10009000AE0BAE0BAE0BAE0BAE0BAE0BD70BAE0B6F
:1000A000AE0BAE0BAE0BAE0BAE0BAE0BE10BAE0B55
:1000B000AE0BAE0BAE0BAE0BAE0BAE0BAE0BAE0B78
:1000C000AE0BAE0BAE0BAE0BAE0BAE0BE10BAE0B35
:1000D000AE0BAE0BAE0BAE0BAE0BAE0BAE0BAE0B58
:1000E000AE0BAE0BAE0BAE0BAE0BAE0BF80BAE0BFE
:1000F000AE0BAE0BAE0BAE0BAE0BAE0BFC0BAE0BEA
:10010000AE0BAE0BAE0BAE0BAE0BAE0BAE0BAE0B27
:10011000AE0BAE0BAE0BAE0BAE0BAE0B0A0CAE0BBA
:10012000AE0BAE0BAE0BAE0BAE0BAE0BC80B112471
:100130001FBECFEFD0E1DEBFCDBF11E0A0E0B1E048
:10014000EEE1FDE100E00BBF02C007900D92AA3581
:10015000B107D9F722E0AAE5B1E001C01D92A03BAA
:10016000B207E1F70E94540C0C948D0E0C94000021
:10017000AC0199B3FA01EE0FFF1FE658FE4F208144
:100180003181220F331F306E892F90E002C0959588
:1001900087954A95E2F781709927282B392B31836F
:1001A000208381E02115304F09F080E00895CF933E
:1001B0009091D30191708091D30141E0C82FC2701A
:1001C00081FF40E08091D30184702091D30131E020
:1001D000522F587023FF30E0E1E0F0E0811102C0BF
:1001E000E0E0F0E06091940170919501232F30E000
:1001F000E617F70709F472C06091940170919501B8
:10020000811111C0552389F0672B91F460915A0137
:1002100070915B016F5F7F4F70935B0160935A0138
:10022000AFEFBFEF11C0511171C06130710571F3B3
:1002300060915A0170915B016150710970935B018B
:1002400060935A01AFEFBFEFF0939501E0939401F3
:100250003093AB012093AA01292F30E060918F01E8
:100260007091900150E02617370781F19923E1F052
:1002700080918F0190919001C1113BC00197E1F0F5
:1002800080915C0190915D01019790935D01809355
:100290005C013093900120938F0150939201409321
:1002A0009101CD01CF91089580918F01909190019E
:1002B000CC2321F3892B21F780915C0190915D0182
:1002C000019690935D0180935C01E3CF6091910171
:1002D000709192014617570749F6E3CF6091AA0142
:1002E0007091AB012617370709F086CFAFEFBFEF4C
:1002F000B3CF892BD9F480915C0190915D01039774
:1003000041F110925D0110925C01C3CF672BB9F4EB
:1003100060915A0170915B0163307105E9F0AFEFB4
:10032000BFEF10925B0110925A018ECF80915C0159
:1003300090915D01039629F7A1E0B0E0E2CF6091D2
:100340005A0170915B016D3F7F4F49F7A3E0B0E028
:10035000E8CFA0E0B0E0D5CFA2E0B0E0E2CF8130BE
:10036000910561F1009731F082309105E1F1039739
:10037000B1F008954091640150916501809116019A
:100380009091170164E6649F9001659F300D1124E0
:10039000821B930B9093170180931601089520916F
:1003A0006401309165018091160190911701820FCF
:1003B000931F909317018093160108954091640153
:1003C00050916501809116019091170164E6649F38
:1003D0009001659F300D1124820F931F9093170198
:1003E00080931601089520916401309165018091F8
:1003F000160190911701821B930B90931701809324
:10040000160108951E981E9A80E28FB9779BFECF41
:100410008FB18093D30108958FB9779BFECF929AC5
:10042000929808951F920F920FB60F9211248F93F6
:100430009F93139A95B381E0892785BB9F918F91F4
:100440000F900FBE0F901F9018951F920F920FB62E
:100450000F9211248F938091B00183BD8F910F90E3
:100460000FBE0F901F901895109273011092720199
:10047000109271011092700110926D0110926C0136
:100480001092690110926801E8E3F1E00190002008
:10049000E9F73197AF01485351401092A9011092EA
:1004A000A8014115510571F0E3E2F1E09A012D5DDB
:1004B0003E4F80E28193E217F307E1F75093A901E1
:1004C0004093A80188E191E00E94EF061092870016
:1004D000109286008EB58E7F8EBD809161018F7DDA
:1004E00080936101089580916101883079F0809155
:1004F0006101803459F020911401309115018091EF
:100500001601909117012817390709F00895809175
:100510006C0190916D010197C9F785E090E090938F
:100520008700809386008EB581608EBD0895089502
:10053000809114019091150164E670E00E94D70D3E
:1005400080911401909115014CE946039001479F59
:10055000300D1124820F931F8336910509F440C09A
:100560008C33910541F16D3071058CF024E630E05B
:10057000309315012093140120911401309115013D
:10058000820F931F909315018093140108951616FE
:10059000170684F020EB34E030931501209314010A
:1005A0002091140130911501820F931F9093150132
:1005B0008093140108952091140130911501285D54
:1005C0003F4F309315012093140120911401309175
:1005D0001501245631093093150120931401C3CF1E
:1005E00020911401309115012852310930931501E1
:1005F0002093140120911401309115012C593F4F83
:100600003093150120931401AECF08958091160107
:100610009091170164E670E00E94D70D8091160159
:10062000909117014CE946039001479F300D11242A
:10063000820F931F8336910509F440C08C339105D6
:1006400041F16D3071058CF024E630E030931701F4
:10065000209316012091160130911701820F931FEC
:10066000909317018093160108951616170684F0CB
:1006700020EB34E0309317012093160120911601EE
:1006800030911701820F931F9093170180931601E9
:1006900008952091160130911701285D3F4F309346
:1006A000170120931601209116013091170124564D
:1006B00031093093170120931601C3CF2091160101
:1006C00030911701285231093093170120931601F8
:1006D00020911601309117012B33310559F02091EB
:1006E0001601309117012C593F4F30931701209379
:1006F0001601A7CF209116013091170120553B4FCD
:1007000030931701209316019CCF1F9380911601FF
:100710009091170164E670E00E94D70D9B018091D3
:100720001601909117011CE91603A001179F500DA7
:100730001124840F951F40916601509167014C333D
:10074000510574F040911601509117014F5F5F4FB2
:1007500050931701409316011092670110926601A1
:10076000CC9764F080911601909117018896909330
:100770001701809316019B012F5F3F4F2D303105EC
:1007800034F084E690E090931701809316011F9156
:10079000089508958130910561F1009731F082301C
:1007A0009105E1F10397B1F00895409162015091F4
:1007B0006301809114019091150164E6649F90019A
:1007C000659F300D1124821B930B9093150180932C
:1007D0001401089520916201309163018091140108
:1007E00090911501820F931F90931501809314012E
:1007F000089540916201509163018091140190919C
:10080000150164E6649F9001659F300D1124820FED
:10081000931F909315018093140108952091620114
:10082000309163018091140190911501821B930B0B
:10083000909315018093140108951F920F920FB6A3
:100840000F9211240BB60F92EF92FF920F931F930A
:100850002F933F934F935F936F937F938F939F93C8
:10086000AF93BF93CF93DF93EF93FF938BB38093BB
:100870008E0188B38093930188E191E00E94EF0696
:100880000E9473028091720190917301019709F4A3
:10089000ECC0809178019091790101969093790153
:1008A000809378019C012F733327232B19F427E0C1
:1008B00020930F019170892B09F4BEC080E588BB9D
:1008C0008FE891E00197F1F700C0000029B3809113
:1008D0007A0190917B01880F991F906E20FBEE2486
:1008E000E0F8F12CE82AF92AF0927B01E0927A01F3
:1008F000E11490EFF90631F49091610180E48927C9
:100900008093610129B38091800190918101880FCA
:10091000991F906E23FB002700F910E0802B912B8C
:1009200090938101809380018115904F31F49091D3
:10093000610184E089278093610129B380917E0160
:1009400090917F01880F991F906E22FB222720F93A
:10095000C22F20E0D22F8C2B9D2B90937F01809370
:100960007E018115904F31F49091610180E28927D9
:100970008093610199B32091880130918901220F00
:10098000331F306E892F90E0880F892F881F990BB5
:10099000822B932B90938901809388018115904F2E
:1009A00031F49091610188E089278093610180E7AB
:1009B00088BB1E981E9A80E28FB9779BFECF8FB1BD
:1009C0008093D3010E94D70090935F0180935E01D2
:1009D00080915E0190915F010E94AF0180915E0164
:1009E00090915F010E94CA03809161018FB9779B4A
:1009F000FECF929A929880918E018BBB8091930149
:100A000088BB8FEF8ABBFF91EF91DF91CF91BF91B0
:100A1000AF919F918F917F916F915F914F913F9196
:100A20002F911F910F91FF90EF900F900BBE0F90A1
:100A30000FBE0F901F90189582EB91E00E947006F8
:100A400080E00E945F068CE080930F0120911201EC
:100A5000309113018091660190916701820F931F7D
:100A6000909367018093660129CFE8E3F1E001905C
:100A70000020E9F73197AF01485351401092A90186
:100A80001092A8014115510509F403CFA8E3B1E084
:100A9000E3E2F1E09A012D5D3E4F8D918193E217E3
:100AA000F307D9F75093A9014093A801F2CE18BAE1
:100AB000EDE0F1E081918BBB8FE697E10197F1F7D3
:100AC00000C0000088B3805F88BB91E0E231F90785
:100AD00089F7089587B3876087BB8DB180658DB92D
:100AE000709A87B3806F87BB83E08ABB84E081BB49
:100AF0008FEF82B9089582E880938B00EAE8F0E0F6
:100B00008081896180838AE090E090938100809366
:100B10008000109287001092860008958FEF84BBAA
:100B20001FBC87B7806187BF8FE99FE09BBD8ABDEF
:100B30008EB588608EBD089580B7886080BF87B706
:100B4000826087BF83B7896083BF8FE781BF0895C5
:100B500085B5896685BD87B7806887BF14BC089551
:100B6000E1E6F0E080818F778083E2E6F0E080814B
:100B70008F77808387E687B987E886B90895CF9312
:100B8000DF93AC01009791F48091000180930D01F7
:100B9000E0E0F0E080910A01E35FFE4F819331E0F5
:100BA000E231F307D9F7DF91CF9108959C01ADECC5
:100BB000BCEC0E94130E9695879596958795969511
:100BC00087959C01220F331F880F991F880F991F4B
:100BD000880F991F820F931F9A01281B390BC90197
:100BE000E0E0F0E0DF01A35FBE4FEC01C050DF4F5B
:100BF00088818C939A01ADECBCEC0E94130EAC0181
:100C00005695479556954795569547953196411572
:100C1000510501F19A01ADECBCEC0E94130E9695C2
:100C2000879596958795969587959C01220F331FFA
:100C3000880F991F880F991F880F991F820F931F84
:100C40009A01281B390BC901E230F10559F6E3E09E
:100C5000F0E0C8CFE530F1050CF49CCFDF91CF91E7
:100C600008951F920F920FB60F9211240BB60F9298
:100C70008F939F93EF93FF938CB18093D601E09174
:100C8000770191E09E0F90937701F0E0EA56FE4FD6
:100C90008083811109C081E080938D0180E280838F
:100CA0008183828310927701FF91EF919F918F91C1
:100CB0000F900BBE0F900FBE0F901F9018955D9B6D
:100CC000FECF8CB95D9BFECF089590919B0095FF60
:100CD000FCCF80939C0080919B0085FFFCCF089502
:100CE000FC019081992349F031965D9BFECF9CB920
:100CF0005D9BFECF91919111F8CF0895FC01208169
:100D0000222371F0319690919B0095FFFCCF2093A8
:100D10009C0090919B0095FFFCCF21912111F3CF76
:100D200008959C01FC014491442369F00196F90166
:100D300024915D9BFECF2CB95D9BFECF9C01FC01F5
:100D400044914111F3CF08958AB188698AB9E5E9E0
:100D5000F0E08081866080831092900087E689B9F8
:100D60000895EAE9F0E0808188618083EDE9F0E0B0
:100D70008081866080831092980087E68093990036
:100D8000089580E89EE302C0019721F05F9BFCCFAD
:100D90008CB1089580E0089580E89EE302C0019739
:100DA00039F020919B0027FFFACF80919C00089595
:100DB00080E0089591E0811101C090E09FB9779B98
:100DC000FECF6FB9779BFECF8091620088608093E1
:100DD000620080916200877F809362000895209175
:100DE0008B01820F911DFC01808181111FC081E068
:100DF00080938A0181E08FB9779BFECF80E28FB923
:100E0000779BFECF80916200886080936200809122
:100E10006200877F8093620080918B018F5F809357
:100E20008B01803149F1803269F0089590918A01F7
:100E30009111E0CF91E09FB9779BFECF8FB9779B5F
:100E4000FECFE0CF85ED8A95F1F700001FB8779BC4
:100E5000FECF80E88FB9779BFECF809162008860DB
:100E60008093620080916200877F8093620010927D
:100E70008A0110928B010895F5EDFA95F1F70000C3
:100E80001FB8779BFECF80EC8FB9779BFECF809108
:100E9000620088608093620080916200877F809307
:100EA00062000895660F660F660F605C1FB8779B3F
:100EB000FECF6FB9779BFECF209162002860209310
:100EC000620020916200277F2093620025ED2A9521
:100ED000F1F70000FC019C01285F3F4F91E08191F8
:100EE0009FB9779BFECF8FB9779BFECF8091620031
:100EF00088608093620080916200877F80936200A7
:100F000085ED8A95F1F70000E217F30741F70895A0
:100F100090E4899F600D1124605C1FB8779BFECF21
:100F20006FB9779BFECF80916200886080936200EA
:100F300080916200877F809362000895811113C0C1
:100F400081E08FB9779BFECF80E38FB9779BFECF8F
:100F50008091620088608093620080916200877F48
:100F60008093620008958436B0F48A3060F591E091
:100F70009FB9779BFECF9DEC899F912D112496956B
:100F8000969596952AE0929F80191124805D8FB9DD
:100F9000779BFECFDDCF99E2899F912D1124929509
:100FA0009F70905D21E02FB9779BFECF9FB9779B13
:100FB000FECF9091620098609093620090916200E1
:100FC000977F9093620099E2899F912D11249295C9
:100FD0009F70382F24E6929F301911242DEC329FF8
:100FE000912D1124969596959695905D21E02FB9B7
:100FF000779BFECF9FB9779BFECF90916200986060
:101000009093620090916200977F90936200AFCFBF
:1010100087FF0C949E0791E09FB9779BFECF9DE2DE
:101020009FB9779BFECF9091620098609093620089
:1010300090916200977F9093620095ED9A95F1F7F9
:10104000000081950C949E071FB8779BFECF8EE021
:101050008FB9779BFECF8091620088608093620099
:1010600080916200877F8093620008951FB8779B0C
:10107000FECF8CE08FB9779BFECF809162008860B5
:101080008093620080916200877F80936200089560
:101090001FB8779BFECF8EE18FB9779BFECF8091F3
:1010A000620088608093620080916200877F8093F5
:1010B000620008951FB8779BFECF88E18FB9779BB8
:1010C000FECF809162008860809362008091620010
:1010D000877F809362000895E2E6F0E08081886077
:1010E00080838081877F808308951FB8779BFECFA0
:1010F00081E08FB9779BFECF8091620088608093FA
:10110000620080916200877F809362008FE19CE1A2
:101110000197F1F700C0000008951FB8779BFECF3C
:1011200082E08FB9779BFECF8091620088608093C8
:10113000620080916200877F809362008FE697E172
:101140000197F1F700C0000008951FB8779BFECF0C
:1011500080EC8FB9779BFECF80916200886080938E
:10116000620080916200877F8093620008951FB8BB
:10117000779BFECF80E88FB9779BFECF809162008E
:1011800088608093620080916200877F8093620014
:10119000089590E131E020E23FB9779BFECF2FB96F
:1011A000779BFECF8091620088608093620080917F
:1011B0006200877F8093620085ED8A95F1F70000D9
:1011C000915051F7089591E09FB9779BFECF8FB969
:1011D000779BFECF8091620088608093620080914F
:1011E0006200877F809362000895FC0140E050E038
:1011F00060E071E0DF01A40FB51F8C917FB9779B90
:10120000FECF8FB9779BFECF90916200986090934C
:10121000620090916200977F9093620085ED8A95BD
:10122000F1F700006F5F462F50E0DF010D900020C6
:10123000E9F79D012E1B3F0B22503109241735077A
:10124000C8F608958FEF99EF0197F1F700C00000FD
:1012500088E0809361001FB8779BFECF80E38FB951
:10126000779BFECF809162008860809362008091BE
:101270006200877F809362008FE59DE60197F1F71A
:1012800000C000001FB8779BFECF80E38FB9779B2B
:10129000FECF80916200886080936200809162003E
:1012A000877F809362008FE59DE60197F1F700C08C
:1012B00000001FB8779BFECF80E38FB9779BFECFEE
:1012C0008091620088608093620080916200877FD5
:1012D000809362008FE59DE60197F1F700C0000062
:1012E0001FB8779BFECF88E38FB9779BFECF8091A5
:1012F000620088608093620080916200877F8093A3
:1013000062008FE19EE40197F1F700C000001FB872
:10131000779BFECF88E08FB9779BFECF80916200EC
:1013200088608093620080916200877F8093620072
:101330008FE19EE40197F1F700C000001FB8779B92
:10134000FECF81E08FB9779BFECF809162008860ED
:101350008093620080916200877F809362008FE1BA
:101360009EE40197F1F700C000001FB8779BFECF05
:1013700086E08FB9779BFECF809162008860809372
:10138000620080916200877F809362008FE19EE41B
:101390000197F1F700C000001FB8779BFECF8CE0EB
:1013A0008FB9779BFECF8091620088608093620046
:1013B00080916200877F809362008FE19EE40197B5
:1013C000F1F700C0000008954F925F926F927F92F4
:1013D0008F929F92AF92BF92CF92DF92EF92FF9245
:1013E0000F931F93CF93DF93CDB7DEB769970FB6F7
:1013F000F894DEBF0FBECDBF142F422E5E2C00230B
:1014000079F06B017C01CC24F7FCC394DD24EE243D
:10141000FF240C2D6B017C0197FDA3C0C701B60111
:10142000442009F496C09E012F5F3F4F59014901A6
:1014300066246A94640C712C3FEF631A730A6A0C79
:101440007B1C2AE030E040E050E00E94EB0DE62FEC
:101450002A8B3B8B4C8B5D8B6A897B898C899D8920
:1014600020E32E0FF40121934F016E167F0649F7FA
:1014700099249394940CF501E40DF11D2EE2208340
:101480002AE030E040E050E00E94EB0DE62F2A8B8E
:101490003B8B4C8B5D8B6E8B7F8B888F998F6A8992
:1014A0007B898C899D8931E0390DD501A90DB11D4C
:1014B000E05DEC93932E611571058105910501F7AF
:1014C000112361F051104BC090E2311738F4F5014F
:1014D000E30FF11D90833F5F1313F9CF002331F029
:1014E000F501E30FF11D9DE290833F5F21E0315054
:1014F000F501E30FF11D90812FB9779BFECF9FB9C6
:10150000779BFECF909162009860909362009091DB
:101510006200977F9093620085ED8A95F1F7000055
:101520003111E5CF69960FB6F894DEBF0FBECDBF7F
:10153000DF91CF911F910F91FF90EF90DF90CF90AF
:10154000BF90AF909F908F907F906F905F904F90E3
:101550000895912C9E012F5F3F4F590191CF90E349
:10156000B4CFF094E094D094C094C11CD11CE11C81
:10157000F11C54CF5F926F927F928F929F92AF92A5
:10158000BF92CF92DF92EF92FF920F931F93CF9370
:10159000DF93CDB7DEB761970FB6F894DEBF0FBE0D
:1015A000CDBF5C01962E542E622E8B2C881C882475
:1015B000881C782C9C0197FD9DC0552009F48EC095
:1015C0008E010F5F1F4F7801CC24CA94C50CD12C1B
:1015D0008FEFC81AD80AC00ED11E6AE070E0C901A8
:1015E0000E94D70D462F242F372F805DF70181935E
:1015F0007F01EC15FD0589F7FF24F394F50CF80144
:10160000E50DF11D8EE2808301C0F92E6AE070E0E5
:10161000C9010E94D70D462F242F372F91E09F0D2F
:10162000F801EF0DF11D805D80832115310569F70B
:10163000611059C0B7FC63C09920B1F0682D70E00B
:1016400080E2292F30E0492D50E0461B570B24172C
:10165000350754F49F5FF801E20FF31F8083292FB1
:1016600030E024173507B4F3772031F0F801E90FA3
:10167000F11D8DE280839F5F21E09150F801E90F19
:10168000F11D80812FB9779BFECF8FB9779BFECF5D
:101690008091620088608093620080916200877F01
:1016A00080936200F5EDFA95F1F700009111E5CF16
:1016B00061960FB6F894DEBF0FBECDBFDF91CF911C
:1016C0001F910F91FF90EF90DF90CF90BF90AF9060
:1016D0009F908F907F906F905F900895F12C8E0176
:1016E0000F5F1F4F93CF992009F4BECF682D70E094
:1016F00080E3A7CF22273327281B390B5ECFF39433
:10170000F394F801E90FF11D8DE28083992059F0DF
:101710002F2D30E0492D50E02417350724F49F2D5C
:10172000712C80E297CF9F2DA7CF08951F920F9223
:101730000FB60F9211240BB60F922F933F938F93F6
:101740009F93AF93BF93EF93FF93E09171008E2F20
:1017500090E0FC013897E135F105B0F0809171001F
:101760008093AB0284E080937400FF91EF91BF916E
:10177000AF919F918F913F912F910F900BBE0F9042
:101780000FBE0F901F901895EA5BFF4F0C940A0E46
:1017900080918C01E091AC02F091AD02E80FF11D57
:1017A00080917300808384E980937400DECF809100
:1017B000AE028093730010928C0185E880937400D0
:1017C000D4CF80918C019091AF02891760F7E0919E
:1017D000AC02F091AD0291E0980F90938C01E80F6C
:1017E000F11D80818093730085E880937400BDCFE4
:1017F00085EA80937400B9CF20918C018091AF026B
:1018000030E090E0019728173907DCF485EC8093ED
:101810007400ABCFE091AC02F091AD0280918C01ED
:1018200021E0280F20938C01E80FF11D80917300B7
:1018300080838091AF0230E090E00197281739074C
:101840002CF385E88093740090CF809174008170B0
:1018500008959091740090FDFCCF8E7F8093AE022E
:101860007093AD026093AC024093AF0285EA80931F
:10187000740008959091740090FDFCCF8160809376
:10188000AE027093AD026093AC024093AF0285EA62
:101890008093740008958FEF80937300109271000D
:1018A0008CE080937000089587B3876087BB8DB10B
:1018B00080658DB9709A87B3806F87BB83E08ABBE0
:1018C00084E081BBCFEFC2B90E944B0C0E94A406FA
:1018D0000E9422090E947508809161008F77809391
:1018E0006100809162008F778093620087E687B9FC
:1018F00087E886B985B5896685BD87B7806887BF63
:1019000014BCC4BB1FBC87B7806187BF8FE99FE051
:101910009BBD8ABD8EB588608EBD80B7886080BF54
:1019200087B7826087BF83B7896083BF8FE781BF36
:1019300082E880938B0080918A00896180938A007D
:101940008AE090E09093810080938000109287005D
:101950001092860032EB632E31E0732E46E9C42EDE
:1019600041E0D42E01E010E05AE0E52EF12C65E0D4
:10197000862E912CBB24BA947FE7A72E369A349BEF
:10198000FECF349A85B190E09093B1018093B0017D
:1019900042E069EA72E080E90E943A0C8FE39FE13D
:1019A0000197F1F700C000008091A9029091AA026E
:1019B0009827892798274AE062EB71E0880F892FE2
:1019C000881F990B91950E94580E1092A9011092B0
:1019D000A801A2EBB1E0EEE1F1E020E030E007C0C9
:1019E0008D9181935093A9014093A8019A01E3013D
:1019F00009900020E9F7CE010197825B9140A9018F
:101A00004F5F5F4F2817390758F380918D01813060
:101A100009F484C080916101883009F4A6C089303E
:101A200008F44EC0803209F4B8C0803409F0A8C070
:101A3000109373010093720110936D0100936C0178
:101A4000109371010093700110936B0100936A0170
:101A500010936301009362010E9498020E94850323
:101A6000BBBA8091720190917301019729F4809122
:101A70006101803409F494C080911601909117019E
:101A80000E94BF0518BAEDE0F1E080E0982F929532
:101A9000907F98BB91919BBBAFE9BFE01197F1F7A5
:101AA00000C000008F5F853089F7809172019091AE
:101AB0007301892B11F018BAABBABABA78945ECF19
:101AC000843009F05DC08091680190916901892B93
:101AD00059F410926D0110926C01109287001092CF
:101AE00086008EB58E7F8EBD1093690100936801CC
:101AF0008091660190916701B7010E94D70D892BF3
:101B000009F0ACCF10936D0100936C0190928700A7
:101B1000809286008EB581608EBDA0CF1092A90103
:101B20001092A801A6E9B1E0EFE2F1E020E030E098
:101B300007C08D9181935093A9014093A8019A0108
:101B4000E60109900020E9F7CE01019786599140FE
:101B5000A9014F5F5F4F2817390758F310928D0185
:101B600080916101883009F05ACF1093650100938C
:101B7000640110921301109212010E9406036ECFAD
:101B8000109265011092640110926301109262013B
:101B9000109313010093120161CF0E9434025ECFB3
:101BA00080911401909115010E94BF056BCF97FBA6
:101BB000072E16F4009407D077FD09D00E94220E5C
:101BC00007FC05D03EF4909581959F4F0895709540
:101BD00061957F4F0895052E97FB1EF400940E9497
:101BE000020E57FD07D00E94360E07FC03D04EF4BC
:101BF0000C94020E50954095309521953F4F4F4FD4
:101C00005F4F089590958095709561957F4F8F4FA8
:101C10009F4F0895EE0FFF1F0024001C0BBE07907E
:101C2000F691E02D0994A29FB001B39FC001A39F3C
:101C3000700D811D1124911DB29F700D811D112405
:101C4000911D0895AA1BBB1B51E107C0AA1FBB1F12
:101C5000A617B70710F0A61BB70B881F991F5A9538
:101C6000A9F780959095BC01CD010895A1E21A2EA7
:101C7000AA1BBB1BFD010DC0AA1FBB1FEE1FFF1F30
:101C8000A217B307E407F50720F0A21BB30BE40B80
:101C9000F50B661F771F881F991F1A9469F76095C7
:101CA0007095809590959B01AC01BD01CF01089581
:101CB000BB274A3031F4992322F4BDE290958195F7
:101CC0009F4F0C94640EBB27FB015527AA27880F52
:101CD000991FAA1FA41710F0A41B83955051B9F7A0
:101CE000A05DAA3308F0A95DA193009779F7B1111F
:101CF000B1931192CB010C947D0EDC01FC01672F96
:101D000071917723E1F7329704C07C916D937083D2
:0E1D10006291AE17BF07C8F30895F894FFCF95
:101D1E00C0F9A4B0999282F88098FF077FFF000067
:101D2E0000000100B004EB046C6F63616C3A20207C
:101D3E00202020202020202072656D6F74653A20AF
:101D4E002020202020202020414C41524D00000018
:101D5E000000000000000000000000000000000075
:0A1D6E0000000000000000000A0061
:00000001FF
