S00C00006C6162342E73726563B5
S11300000C9446000C9465000C9465000C946500F7
S11300100C9465000C9465000C9465000C946500C8
S11300200C9465000C9467000C9465000C946500B6
S11300300C9465000C9465000C9465000C946500A8
S11300400C9487000C9465000C9465000C94650076
S11300500C9465000C9465000C9465000C94650088
S11300600C9465000C9465000C9465000C94650078
S11300700C9465000C9465000C9465000C94650068
S11300800C9465000C9465000C94650011241FBE4B
S1130090CFEFD0E1DEBFCDBF11E0A0E0B1E0E8ECEE
S11300A0F1E100E00BBF02C007900D92A231B1074D
S11300B0D9F721E0A2E1B1E001C01D92AF38B20747
S11300C0E1F70E9445070C94E2080C9400001F928B
S11300D00F920FB60F9211248F939F938091430137
S11300E0909144018734910548F488EC83BD9F9135
S11300F08F910F900FBE0F901F9018958AE083BDCB
S11301009F918F910F900FBE0F901F9018951F9283
S11301100F920FB60F9211240F900FBE0F901F90E5
S1130120189581309105B9F0009731F0823091052E
S113013019F0039781F008952091190130911A0163
S113014080911B0190911C01821B930B90931C01C5
S113015080931B0108952091190130911A01809117
S11301601B0190911C01820F931F90931C0180939B
S11301701B0108951E981E9A80E28FB9779BFECFCB
S11301808FB180934A0108958FB9779BFECF929ADD
S11301909298089549B32091260130912701220FA6
S11301A0331F306E842F817090E0282B392B3093CD
S11301B027012093260181E090E02115304F11F0B2
S11301C080E090E0089549B3209124013091250105
S11301D0220F331F306E41FB882780F990E0282BD3
S11301E0392B309325012093240181E090E02115DF
S11301F0304F11F080E090E00895CF93DF93AC018D
S1130200892BB9F48091000180930C0180910B013A
S113021080930E01E1E0F0E020910A01E45FFE4FDB
S113022081E191E021938E179F07E1F7DF91CF9150
S11302300895E0E0F0E018C0DF013196A45FBE4FFE
S1130240EC01C050DF4F88818C939A01ADECBCEC7B
S11302500E949D08AC01569547955695479556952D
S113026047954115510511F19A01ADECBCEC0E9482
S11302709D089695879596958795969587959C0163
S1130280220F331F880F991F880F991F880F991FFA
S1130290820F931F9A01281B390BC901E230F10523
S11302A059F6E4E0F0E0A3E0B0E0C8CF80910B01A0
S11302B080930E01E530F1050CF4AECFDF91CF91C0
S11302C00895CF9390914A01917080914A0141E041
S11302D0C82FC27081FF40E080914A018470209150
S11302E04A0131E0522F587023FF30E0E1E0F0E0A2
S11302F0811102C0E0E0F0E060912F0170913001C3
S1130300232F30E0E617F70709F472C060912F013C
S113031070913001811111C0552389F0672B91F43C
S113032060911201709113016F5F7F4F70931301FD
S113033060931201AFEFBFEF11C0511171C0613072
S1130340710571F36091120170911301615071098B
S11303507093130160931201AFEFBFEFF09330017C
S1130360E0932F013093420120934101292F30E083
S113037060912A0170912B0150E02617370781F113
S11303809923E1F080912A0190912B01C1113BC086
S11303900197E1F0809114019091150101979093D8
S11303A015018093140130932B0120932A0150935B
S11303B02D0140932C01CD01CF91089580912A0104
S11303C090912B01CC2321F3892B21F780911401E7
S11303D09091150101969093150180931401E3CF38
S11303E060912C0170912D014617570749F6E3CF10
S11303F060914101709142012617370709F086CFB9
S1130400AFEFBFEFB3CF892BD9F480911401909152
S11304101501039741F11092150110921401C3CFF5
S1130420672BB9F460911201709113016330710567
S1130430E9F0AFEFBFEF10921301109212018ECFCB
S11304408091140190911501039629F7A1E0B0E081
S1130450E2CF60911201709113016D3F7F4F49F714
S1130460A3E0B0E0E8CFA0E0B0E0D5CFA2E0B0E0F8
S1130470E2CF10922301089587B3876087BB8DB1C3
S113048080658DB987B3806F87BB83E08ABB84E0C6
S113049081BB8FEF82B9089587E687B987E886B96B
S11304A0089591E0811101C090E09FB9779BFECF40
S11304B06FB9779BFECF8091620088608093620061
S11304C080916200877F809362008FE99FE00197AB
S11304D0F1F700C00000089521E02FB9779BFECF0B
S11304E020912801FC01E20FF11D80818FB9779BD7
S11304F0FECF8091620088608093620080916200E8
S1130500877F80936200809128018F5F8093280108
S1130510803109F1803209F0089595ED9A95F1F74B
S113052000001FB8779BFECF82E08FB9779BFECF88
S11305308091620088608093620080916200877F6E
S1130540809362008FE99FE00197F1F700C00000FB
S113055010922801089585ED8A95F1F700001FB8DF
S1130560779BFECF80EC8FB9779BFECF80916200A2
S113057088608093620080916200877F809362002C
S11305808FE99FE00197F1F700C0000080912801F6
S1130590C1CF660F660F660F605C1FB8779BFECFF6
S11305A06FB9779BFECF2091620028602093620090
S11305B020916200277F20936200AFE9BFE011978A
S11305C0F1F700C00000FC019C01285F3F4F91E05F
S11305D081919FB9779BFECF8FB9779BFECF809196
S11305E0620088608093620080916200877F8093BC
S11305F06200AFE9BFE01197F1F700C00000E21715
S1130600F30731F7089590E4899F600D1124605C2D
S11306101FB8779BFECF6FB9779BFECF80916200A6
S113062088608093620080916200877F809362007B
S11306308FE99FE00197F1F700C000000895811150
S113064019C081E08FB9779BFECF80E38FB9779B88
S1130650FECF809162008860809362008091620086
S1130660877F809362008FE99FE00197F1F700C0D4
S1130670000008958436B0F48A3090F591E09FB973
S1130680779BFECF9DEC899F912D1124969596958D
S11306909695FAE09F9F80191124805D8FB9779B0E
S11306A0FECFD7CF99E2899F912D112492959F7007
S11306B0905D21E02FB9779BFECF9FB9779BFECF4A
S11306C09091620098609093620090916200977F8D
S11306D090936200EFE9FFE03197F1F700C000006A
S11306E099E2899F912D112492959F70282FF4E609
S11306F09F9F20191124922F2DEC929F912D11244C
S1130700969596959695905D21E02FB9779BFECFAF
S11307109FB9779BFECF909162009860909362009E
S113072090916200977F90936200EFE9FFE0319728
S1130730F1F700C00000A2CF87FF0C941F0391E0E3
S11307409FB9779BFECF9DE29FB9779BFECF909197
S1130750620098609093620090916200977F9093FA
S11307606200EFE9FFE03197F1F700C000008195E6
S11307700C941F031FB8779BFECF8EE08FB9779B35
S1130780FECF809162008860809362008091620055
S1130790877F809362008FE99FE00197F1F700C0A3
S11307A0000008951FB8779BFECF8CE08FB9779B2C
S11307B0FECF809162008860809362008091620025
S11307C0877F809362008FE99FE00197F1F700C073
S11307D0000008951FB8779BFECF8EE18FB9779BF9
S11307E0FECF8091620088608093620080916200F5
S11307F0877F809362008FE99FE00197F1F700C043
S1130800000008951FB8779BFECF88E18FB9779BCE
S1130810FECF8091620088608093620080916200C4
S1130820877F809362008FE99FE00197F1F700C012
S113083000000895E2E6F0E0808188608083808192
S1130840877F808308951FB8779BFECF81E08FB99F
S1130850779BFECF809162008860809362008091D4
S11308606200877F809362008FE99FE00197F1F730
S113087000C0000008951FB8779BFECF82E08FB9B7
S1130880779BFECF809162008860809362008091A4
S11308906200877F809362008FE99FE00197F1F700
S11308A000C0000008951FB8779BFECF80EC8FB97D
S11308B0779BFECF80916200886080936200809174
S11308C06200877F809362008FE99FE00197F1F7D0
S11308D000C00000089590E131E020E23FB9779B29
S11308E0FECF2FB9779BFECF809162008860809302
S11308F0620080916200877F80936200EFE9FFE0ED
S11309003197F1F700C00000915041F7089591E04C
S11309109FB9779BFECF8FB9779BFECF8091620002
S113092088608093620080916200877F8093620078
S11309308FE99FE00197F1F700C000000895FC01E2
S113094040E050E060E071E0DF01A40FB51F8C913E
S11309507FB9779BFECF8FB9779BFECF90916200D2
S113096098609093620090916200977F90936200E8
S11309708FE99FE00197F1F700C000006F5F462FF9
S113098050E0DF010D900020E9F79D012E1B3F0B85
S11309902250310924173507B8F608958FEF99EFDF
S11309A00197F1F700C0000088E0809361001FB850
S11309B0779BFECF80E38FB9779BFECF8091620057
S11309C088608093620080916200877F80936200D8
S11309D08FE99FE00197F1F700C000001FB8779BF3
S11309E0FECF80E38FB9779BFECF80916200886051
S11309F08093620080916200877F809362008FE918
S1130A009FE00197F1F700C000001FB8779BFECF6D
S1130A1080E38FB9779BFECF8091620088608093DA
S1130A20620080916200877F809362008FE99FE07B
S1130A300197F1F700C000001FB8779BFECF88E351
S1130A408FB9779BFECF80916200886080936200AB
S1130A5080916200877F809362008FE99FE0019715
S1130A60F1F700C000001FB8779BFECF88E08FB974
S1130A70779BFECF809162008860809362008091B2
S1130A806200877F809362008FE99FE00197F1F70E
S1130A9000C000001FB8779BFECF81E08FB9779B21
S1130AA0FECF809162008860809362008091620032
S1130AB0877F809362008FE99FE00197F1F700C080
S1130AC000001FB8779BFECF86E08FB9779BFECFDF
S1130AD08091620088608093620080916200877FC9
S1130AE0809362008FE99FE00197F1F700C0000056
S1130AF01FB8779BFECF8CE08FB9779BFECF809198
S1130B00620088608093620080916200877F809396
S1130B1062008FE99FE00197F1F700C0000008959B
S1130B204F925F926F927F928F929F92AF92BF92F9
S1130B30CF92DF92EF92FF920F931F93CF93DF93A5
S1130B40CDB7DEB769970FB6F894DEBF0FBECDBF41
S1130B50142F422E5E2C002379F06B017C01CC24EF
S1130B60F7FCC394DD24EE24FF240C2D6B017C01DF
S1130B7097FDA5C0C701B601442009F498C09E01A1
S1130B802F5F3F4F5901490166246A94640C712C0C
S1130B903FEF631A730A6A0C7B1C2AE030E040E0E2
S1130BA050E00E947E08E62F2A8B3B8B4C8B5D8B9A
S1130BB06A897B898C899D8920E32E0FF401219316
S1130BC04F016E167F0649F799249394940CF5010E
S1130BD0E40DF11D2EE220832AE030E040E050E0F5
S1130BE00E947E08E62F2A8B3B8B4C8B5D8B6E8B91
S1130BF07F8B888F998F6A897B898C899D8931E065
S1130C00390DD501A90DB11DE05DEC93932E61154D
S1130C1071058105910501F7112361F051104DC053
S1130C2090E2311738F4F501E30FF11D90833F5F33
S1130C301313F9CF002331F0F501E30FF11D9DE209
S1130C4090833F5F21E03150F501E30FF11D908166
S1130C502FB9779BFECF9FB9779BFECF909162000F
S1130C6098609093620090916200977F90936200E5
S1130C708FE99FE00197F1F700C000003111E3CF45
S1130C8069960FB6F894DEBF0FBECDBFDF91CF914A
S1130C901F910F91FF90EF90DF90CF90BF90AF9096
S1130CA09F908F907F906F905F904F900895912CBC
S1130CB09E012F5F3F4F59018FCF90E3B2CFF09445
S1130CC0E094D094C094C11CD11CE11CF11C52CFFF
S1130CD05F926F927F928F929F92AF92BF92CF92C8
S1130CE0DF92EF92FF920F931F93CF93DF93CDB7D1
S1130CF0DEB761970FB6F894DEBF0FBECDBF5C01BF
S1130D00962E542E622E8B2C881C8824881C782CBA
S1130D109C0197FD9FC0552009F490C08E010F5F80
S1130D201F4F7801CC24CA94C50CD12C8FEFC81A5C
S1130D30D80AC00ED11E6AE070E0C9010E946A0898
S1130D40462F242F372F805DF70181937F01EC1507
S1130D50FD0589F7FF24F394F50CF801E50DF11D69
S1130D608EE2808301C0F92E6AE070E0C9010E941E
S1130D706A08462F242F372F91E09F0DF801EF0DBD
S1130D80F11D805D80832115310569F761105BC019
S1130D90B7FC65C09920B1F0682D70E080E2292F7E
S1130DA030E0492D50E0461B570B2417350754F407
S1130DB09F5FF801E20FF31F8083292F30E024178F
S1130DC03507B4F3772031F0F801E90FF11D8DE216
S1130DD080839F5F21E09150F801E90FF11D80812C
S1130DE02FB9779BFECF8FB9779BFECF809162009E
S1130DF088608093620080916200877F80936200A4
S1130E00EFE9FFE03197F1F700C000009111E3CF63
S1130E1061960FB6F894DEBF0FBECDBFDF91CF91C0
S1130E201F910F91FF90EF90DF90CF90BF90AF9004
S1130E309F908F907F906F905F900895F12C8E011A
S1130E400F5F1F4F91CF992009F4BCCF682D70E03C
S1130E5080E3A5CF22273327281B390B5CCFF394DB
S1130E60F394F801E90FF11D8DE28083992059F084
S1130E702F2D30E0492D50E02417350724F49F2D01
S1130E80712C80E295CF9F2DA5CF87B3876087BB58
S1130E908DB180658DB987B3806F87BB83E08ABBD2
S1130EA084E081BB8FEF82B90E94CE040E942304A8
S1130EB0809161008F7780936100809162008F77C9
S1130EC08093620087E687B987E886B985B5896625
S1130ED085BD87B7806887BF14BC80B7886080BF32
S1130EE087B7816087BF83B7816083BF99249A9451
S1130EF050E5652E60E4462E78E0572EE0E77E2E1E
S1130F00EE24E394F12CA2E0AA2EB12CB4E0CB2E73
S1130F10D12CC0E28C2E369A349BFECF349A85B104
S1130F2090E090934401809343019BBA68BA8FE8A0
S1130F3091E00197F1F700C0000029B380912601E8
S1130F4090912701880F991F906E2170C22FA0E005
S1130F50DA2F8C2B9D2B90932701809326018115EA
S1130F60904F09F4A0C029B38091240190912501E8
S1130F70880F991F906E21FB002700F910E0802B49
S1130F80912B90932501809324018115904F09F4AE
S1130F909BC078BAF0921A01E0921901809118016D
S1130FA0883409F47BC080911801883009F471C039
S1130FB080911801803409F467C0809118018FB9B9
S1130FC0779BFECF929A92981E981E9A8FB8779B21
S1130FD0FECF8FB180934A010E9461019093170163
S1130FE08093160180911601909117010E9491003F
S1130FF09BBA80911B0190911C018115944024F0AF
S113100010921C0110921B0180911B0190911C01F4
S113101097FD55C020E030E080911B0190911C01A8
S113102097FD47C080911B0190911C010E94FD0017
S11310308FE891E00197F1F700C0000018BAECE0E6
S1131040F1E080E0982F9295907F98BB91919BBBA3
S113105098B3903461F0AFE9BFE01197F1F700C0A5
S113106000008F5F853071F79ABA789454CF20913D
S11310701B0130911C01283E33406CF790910A010A
S1131080909311019BBBE7CFD0921A01C092190132
S113109094CFB0921A01A09219018ACF10921A012A
S11310A01092190180CF8091180185258093180131
S11310B070CF3C5F30931C0120931B01B3CF209170
S11310C01B0130911C01A8CF8091180184258093C5
S11310D018015FCF97FB072E16F4009407D077FD15
S11310E009D00E94AC0807FC05D03EF49095819588
S11310F09F4F0895709561957F4F0895052E97FB36
S11311001EF400940E94950857FD07D00E94C00861
S113111007FC03D04EF40C949508509540953095F7
S113112021953F4F4F4F5F4F08959095809570954F
S113113061957F4F8F4F9F4F0895A29FB001B39F3A
S1131140C001A39F700D811D1124911DB29F700DCC
S1131150811D1124911D0895AA1BBB1B51E107C0D9
S1131160AA1FBB1FA617B70710F0A61BB70B881F33
S1131170991F5A95A9F780959095BC01CD010895C2
S1131180A1E21A2EAA1BBB1BFD010DC0AA1FBB1F87
S1131190EE1FFF1FA217B307E407F50720F0A21BF9
S11311A0B30BE40BF50B661F771F881F991F1A9466
S11311B069F760957095809590959B01AC01BD0190
S10B11C0CF010895F894FFCF5C
S11311C8C0F9A4B0999282F88098FF07C000000083
S10511D8000011
S9030000FC
