S00D000066696E616C2E737265630D
S11300000C94D8000C94F7000C94F7000C94F700AF
S11300100C94F7000C94F7000C94F7000C94F70080
S11300200C941D010C946A030C94F7000C94F700D3
S11300300C9457030C94F7000C94F7000C94790378
S11300400C94F7000C94F7000C94C5080C94F7007A
S11300500C94F7000C94F7000C94F7000C94F70040
S11300600C94F7000C94F7000C94F7000C94F70030
S11300700C94F7000C94F7000C94F7000C94F70020
S11300800C94F7000C941B0C0C94F700D6120A1273
S1130090A6120A120A120A129B120A120A120A124F
S11300A00A120A120A120A1282120A120A120A12F4
S11300B00A120A120A120A120A120A120A120A125C
S11300C00A120A120A120A127A120A120A120A12DC
S11300D00A120A120A120A120A120A120A120A123C
S11300E00A120A120A120A120A120A120A120A122C
S11300F00A120A120A120A120A120A120A120A121C
S11301000A120A120A120A1263120A1258125C0C18
S1130110330C330C330C330C330C330C330C5C0CBA
S1130120330C330C330C330C330C330C330C660CA0
S1130130330C330C330C330C330C330C330C330CC3
S1130140330C330C330C330C330C330C330C660C80
S1130150330C330C330C330C330C330C330C330CA3
S1130160330C330C330C330C330C330C330C7D0C49
S1130170330C330C330C330C330C330C330C810C35
S1130180330C330C330C330C330C330C330C330C73
S1130190330C330C330C330C330C330C330C8F0C07
S11301A0330C330C330C330C330C330C330C4D0C39
S11301B011241FBECFEFD0E1DEBFCDBF12E0A0E01F
S11301C0B1E0E0ECF7E200E00BBF02C007900D9253
S11301D0A637B107D9F724E0A6E7B2E001C01D9223
S11301E0AB30B207E1F70E9494110C94DE130C9427
S11301F0000088E090E090938700809386000E943E
S1130200330A8FE99FE00197F1F700C000000E94D4
S1130210AA0C8111FCCF86E097E29093E8028093C8
S1130220E7028FE99FE00197F1F700C000000E9408
S1130230130981E08093940208951F920F920FB6E0
S11302400F9211248F9381E08093E9028F910F9094
S11302500FBE0F901F90189580917C02883079F022
S113026080917C02803459F0209114013091150161
S113027080911601909117012817390709F0089504
S11302808091890290918A020197C9F785E090E0F4
S113029090938700809386008EB581608EBD08950B
S11302A08091890290918A02892BF9F080917C02D5
S11302B08830D9F080917C028034B9F080917C023E
S11302C0823459F020911401309115018091160166
S11302D0909117012817390749F0809114019091E2
S11302E01501809116019091170108958091920251
S11302F090919302892B89F78EB581608EBD88E039
S113030090E09093870080938600E7CFAC0199B387
S1130310FA01EE0FFF1FE556FD4F20813181220FB8
S1130320331F306E892F90E002C0959587954A95CA
S1130330E2F781709927282B392B3183208381E0C0
S11303402115304F09F080E00895CF9390910F0369
S1130350917080910F0341E0C82FC27081FF40E08B
S113036080910F03847020910F0331E0522F587055
S113037023FF30E0E1E0F0E0811102C0E0E0F0E0D2
S11303806091CE027091CF02232F30E0E617F70779
S113039009F472C06091CE027091CF02811111C034
S11303A0552389F0672B91F460917602709177025E
S11303B06F5F7F4F7093770260937602AFEFBFEF6A
S11303C011C0511171C06130710571F360917602F1
S11303D0709177026150710970937702609376028D
S11303E0AFEFBFEFF093CF02E093CE023093E6027B
S11303F02093E502292F30E06091B6027091B70294
S113040050E02617370781F19923E1F08091B60275
S11304109091B702C1113BC00197E1F0809178023D
S113042090917902019790937902809378023093A6
S1130430B7022093B6025093C2024093C102CD0189
S1130440CF9108958091B6029091B702CC2321F305
S1130450892B21F7809178029091790201969093EB
S1130460790280937802E3CF6091C1027091C20255
S11304704617570749F6E3CF6091E5027091E6020B
S11304802617370709F086CFAFEFBFEFB3CF892B1D
S1130490D9F48091780290917902039741F11092F6
S11304A0790210927802C3CF672BB9F46091760277
S11304B07091770263307105E9F0AFEFBFEF1092EE
S11304C07702109276028ECF809178029091790211
S11304D0039629F7A1E0B0E0E2CF60917602709133
S11304E077026D3F7F4F49F7A3E0B0E0E8CFA0E08B
S11304F0B0E0D5CFA2E0B0E0E2CF81309105A1F029
S11305009C012D7F232B19F0039771F008952091FE
S1130510B5028091E7029091E802821B91099093C1
S1130520E8028093E70208952091B5028091E702E2
S11305309091E802820F911D9093E8028093E70264
S113054008958130910561F1009731F08230910571
S1130550E1F10397B1F0089540917F025091800238
S1130560809116019091170164E6649F9001659F44
S1130570300D1124821B930B909317018093160165
S1130580089520917F02309180028091160190910C
S11305901701820F931F90931701809316010895FA
S11305A040917F0250918002809116019091170131
S11305B064E6649F9001659F300D1124820F931FA0
S11305C09093170180931601089520917F02309132
S11305D080028091160190911701821B930B9093D6
S11305E017018093160108958130910561F10097F8
S11305F031F082309105E1F10397B1F00895409113
S11306007D0250917E02809114019091150164E65F
S1130610649F9001659F300D1124821B930B90936E
S1130620150180931401089520917D0230917E027A
S11306308091140190911501820F931F90931501DD
S113064080931401089540917D0250917E0280911F
S113065014019091150164E6649F9001659F300D2B
S11306601124820F931F9093150180931401089510
S113067020917D0230917E028091140190911501A8
S1130680821B930B909315018093140108951E9877
S11306901E9A80E28FB9779BFECF8FB180930F03B0
S11306A008958FB9779BFECF929A929808951F92DE
S11306B00F920FB60F9211248F939F93139A95B3B1
S11306C081E0892785BB9F918F910F900FBE0F907A
S11306D01F9018951F920F920FB60F9211248F93AB
S11306E08091EA0283BD8F910F900FBE0F901F90EF
S11306F018951F920F920FB60F9211240BB60F92FA
S11307008F929F92AF92BF92CF92DF92EF92FF921D
S11307100F931F932F933F934F935F936F937F9305
S11307208F939F93AF93BF93CF93DF93EF93FF93F5
S11307308BB38093B20288B38093CD0288E191E0B9
S11307400E94EE0C0E9450018091990290919A02AD
S1130750019690939A02809399029C012F773327F4
S1130760232B19F427E020930F019170892B09F4AE
S113077023C180E588BB8FE891E00197F1F700C0C1
S1130780000029B380919B0290919C02880F991FCD
S1130790906E2170C22F20E0D22FC82BD92BD0937A
S11307A09C02C0939B02C115D04F31F490917C02FE
S11307B080E4892780937C0229B38091A3029091DD
S11307C0A402880F991F906E24FBAA24A0F8B12CD0
S11307D0A82AB92AB092A402A092A302A11490EF6D
S11307E0B90631F490917C0282E0892780937C02DF
S11307F029B38091A7029091A802880F991F906E47
S113080026FBCC24C0F8D12CC82AD92AD092A8021D
S1130810C092A702C11420EFD20631F490917C0259
S113082080E1892780937C0229B380919F02909173
S1130830A002880F991F906E22FBEE24E0F8F12CA1
S1130840E82AF92AF092A002E0929F02E11480EFD4
S1130850F80631F490917C0280E2892780937C022F
S113086029B38091A1029091A202880F991F906EE2
S113087023FB002700F910E0082B192B1093A20288
S11308800093A1020115104F31F490917C0284E091
S1130890892780937C0229B380919D0290919E02C6
S11308A0880F991F906E21FB882480F8912C882A48
S11308B0992A90929E0280929D02811420EF9206C2
S11308C031F490917C0288E0892780937C0280E750
S11308D088BB1E981E9A80E28FB9779BFECF8FB19A
S11308E080930F030E94A50190937B0280937A0268
S11308F080917A0290917B020E94A10280917A02F7
S113090090917B020E94F40280917A0290917B0282
S11309100E947D0280917C028FB9779BFECF929AD0
S1130920929818BA809198028295807F88BBE09152
S11309309802F0E0E35FFE4F80818BBB8FE99FE07C
S11309400197F1F700C00000809198028F5F853015
S113095009F45FC0809398028091B2028BBB8091AE
S1130960CD0288BB80918D0290918E02892B19F063
S113097018BA8FE78BBB8FEF8ABBFF91EF91DF91A2
S1130980CF91BF91AF919F918F917F916F915F9123
S11309904F913F912F911F910F91FF90EF90DF9016
S11309A0CF90BF90AF909F908F900F900BBE0F9001
S11309B00FBE0F901F9018958CEE92E00E94B10B21
S11309C080E00E94A00B809195029091960201977D
S11309D019F08CE080930F012091120130911301E2
S11309E08091810290918202820F931F90938202E0
S11309F0809381022091120130911301809183022E
S1130A0090918402820F931F9093840280938302B7
S1130A10B0CE10929802A0CF10929302109292023C
S1130A2010928E0210928D0210928C0210928B0200
S1130A3010928A0210928902109286021092850204
S1130A40E8E3F1E001900020E9F73197AF01485362
S1130A5051401092E2021092E1024115510571F0E9
S1130A60E3E2F1E09A012D5D3E4F80E28193E217CB
S1130A70F307E1F75093E2024093E10288E191E049
S1130A800E94EE0C10928700109286008EB58E7F25
S1130A908EBD80917C028F7D80937C02089580912D
S1130AA0E7029091E80281332AE2920738F08AE65D
S1130AB092E29093E8028093E7020895803692428E
S1130AC030F48AE39AE29093E8028093E70208956F
S1130AD0809114019091150164E670E00E94F8126F
S1130AE080911401909115014CE946039001479FB0
S1130AF0300D1124820F931F8336910509F440C0F1
S1130B008C33910541F16D3071058CF024E630E0B1
S1130B103093150120931401209114013091150193
S1130B20820F931F90931501809314010895161654
S1130B30170684F020EB34E0309315012093140160
S1130B402091140130911501820F931F9093150188
S1130B508093140108952091140130911501285DAA
S1130B603F4F3093150120931401209114013091CB
S1130B701501245631093093150120931401C3CF74
S1130B802091140130911501285231093093150137
S1130B902093140120911401309115012C593F4FD9
S1130BA03093150120931401AECF809116019091DA
S1130BB0170164E670E00E94F8128091160190918A
S1130BC017014CE946039001479F300D1124820F11
S1130BD0931F8336910509F440C08C33910541F18C
S1130BE06D3071058CF024E630E0309317012093CA
S1130BF016012091160130911701820F931F9093D3
S1130C0017018093160108951616170684F020EB39
S1130C1034E030931701209316012091160130918E
S1130C201701820F931F9093170180931601089563
S1130C302091160130911701285D3F4F3093170121
S1130C402093160120911601309117012456310981
S1130C503093170120931601C3CF209116013091D0
S1130C60170128523109309317012093160120915E
S1130C701601309117012B33310559F020911601DB
S1130C80309117012C593F4F3093170120931601CF
S1130C90A7CF209116013091170120553B4F309377
S1130CA01701209316019CCF1F93809116019091F8
S1130CB0170164E670E00E94F8129B01809116010E
S1130CC0909117011CE91603A001179F500D1124E0
S1130CD0840F951F40918102509182024C3351053B
S1130CE074F040911601509117014F5F5F4F50937C
S1130CF01701409316011092820210928102CC9740
S1130D0064F08091160190911701889690931701D1
S1130D10809316019B012F5F3F4F2D30310534F036
S1130D2084E690E090931701809316011F91089533
S1130D3018BAEDE0F1E081918BBB8FE697E1019762
S1130D40F1F700C0000088B3805F88BB91E0E23116
S1130D50F90789F7089587B3876087BB8DB18065EC
S1130D608DB9709AE1E6F0E080818860808387B372
S1130D70806F87BB83E08ABB84E081BB089582E8EF
S1130D8080938B00EAE8F0E08081896180838AE0C7
S1130D9090E09093810080938000109287001092DD
S1130DA0860008958FEF84BB1FBC87B7806187BF1F
S1130DB080ED97E09BBD8ABD8EB588608EBD089599
S1130DC080B7886080BF87B7826087BF83B7896038
S1130DD083BF8FE381BF089585B5896685BD87B7D5
S1130DE0806887BF14BC0895E1E6F0E080818F77C6
S1130DF08083E2E6F0E080818F77808387E687B99D
S1130E0087E886B908958AB7806C8ABF89B78068F5
S1130E1089BF129A169A139A1A9A1E9A0895CF9312
S1130E20DF93AC01009791F48091000180930D0150
S1130E30E0E0F0E080910A01E35FFE4F819331E04E
S1130E40E231F307D9F7DF91CF9108959C01ADEC1E
S1130E50BCEC0E9434139695879596958795969544
S1130E6087959C01220F331F880F991F880F991FA4
S1130E70880F991F820F931F9A01281B390BC901F0
S1130E80E0E0F0E0DF01A35FBE4FEC01C050DF4FB4
S1130E9088818C939A01ADECBCEC0E943413AC01B4
S1130EA056954795569547955695479531964115CC
S1130EB0510501F19A01ADECBCEC0E9434139695F6
S1130EC0879596958795969587959C01220F331F54
S1130ED0880F991F880F991F880F991F820F931FDE
S1130EE09A01281B390BC901E230F10559F6E3E0F8
S1130EF0F0E0C8CFE530F1050CF49CCFDF91CF9141
S1130F000895CF93DF931092E2021092E1024CEE27
S1130F1052E0EA01AEE1B1E080E090E006C0299140
S1130F202D939093E2028093E1029C01FA010190D7
S1130F300020E9F73197EC5EF24001962E173F0747
S1130F4070F38091B102813019F0DF91CF9108954F
S1130F501092E2021092E10240ED52E0EA01AFE2A7
S1130F60B1E080E090E007C089918D933093E20274
S1130F702093E102C901FA0101900020E9F73197B9
S1130F80E05DF2409C012F5F3F4F8E179F0760F397
S1130F901092B102DF91CF91089542E069ED73E0C0
S1130FA080E90E94BF0C8FE39FE10197F1F700C035
S1130FB000008091D9039091DA0398278927982714
S1130FC04AE06CEE72E0880F892F881F990B919587
S1130FD00C947913FF920F931F93CF93DF93CDB7A4
S1130FE0DEB7A0970FB6F894DEBF0FBECDBF8091D9
S1130FF09202909193020197E1F080917C028234F5
S113100061F08091920290919302892B31F4809146
S11310108D0290918E020197A9F0A0960FB6F894D4
S1131020DEBF0FBECDBFDF91CF911F910F91FF9017
S1131030089580918D0290918E020197F1F1809133
S11310407C02EBCF68E371E0FB0101900020E9F73B
S113105031978F01085311408EB588608EBDA3E28D
S1131060B1E0AD0180E090E020E2F22E03C0FA018D
S1131070F192AF019C01FB0101900020E9F7319747
S1131080E853F14001962E173F0788F31092E202CD
S11310901092E1020115110509F4BFCFE8E3F1E074
S11310A098012D5D3E4F81918D93A217B307D9F717
S11310B01093E2020093E102B0CF86E0E8E5F1E0AC
S11310C09E012F5F3F4FD90101900D928A95E1F760
S11310D0FE0137968AE1DF011D928A95E9F78EB504
S11310E08E7F8EBD80917C02823021F0109293021B
S11310F010929202A3E2B1E08D0180E090E068E3F7
S113110071E040E2F42E03C0F801F1928F01AC01CA
S1131110FB0101900020E9F73197E853F140019673
S11311204E175F0788F31092E2021092E102A901C0
S113113080E090E009C0FA016191AF016D930196DE
S11311409093E2028093E102F90101900020E9F713
S11311503197E21BF30B8E179F0768F34ECF8091F4
S11311607C02803109F008950C94F9001F98179AB5
S11311701A9A8FE193E00197F1F700C000001A98E2
S113118090EA9A95F1F7179808951F920F920FB667
S11311900F9211240BB60F928F939F93EF93FF93AB
S11311A08CB180931203E091970291E09E0F90938B
S11311B09702F0E0E053FD4F8083811109C081E084
S11311C08093B10280E280838183828310929702AC
S11311D0FF91EF919F918F910F900BBE0F900FBED7
S11311E00F901F90189584E18093B80241E068EB5A
S11311F072E082E20E94AE0C0E94AA0C8111FCCF24
S11312008FEA94E00197F1F700C0000041E063E247
S113121073E082E20E94BF0C0E94AA0C8111FCCFF1
S113122080912303089580E28093B8021092B9025A
S11312308091E7029091E8029093BA028093BB02F6
S11312401092BC021092E90245E068EB72E082E27F
S11312500E94AE0C8091E9028823E1F3089580E4B2
S11312608093B8021092B9028091E3029091E40253
S11312709093BA028093BB021092BC021092BD02FA
S11312801092E90246E068EB72E082E20E94AE0C42
S11312908091E9028823E1F30895E8EBF2E080E429
S11312A08083118280910C0390910D039283838338
S11312B0148281E0858346E0BF0182E20E94AE0C85
S11312C02FEF87EE93E0215080409040E1F700C07B
S11312D0000008958091B3029091B4028130910589
S11312E051F100F1029741F460910C0370910D03E8
S11312F080E193E00E94C9136091E0028EEA92E0DB
S11313000E94BC1381E18093B80241E068EB72E073
S113131082E20E94AE0C87ED94E00197F1F700C0E1
S1131320000008956091E7027091E8028FEA92E06C
S11313300E94C913E1CF6091E3027091E4028BEC47
S113134092E00E94C913D8CF83E28093B80281E06F
S11313508093B90242E068EB72E082E20E94AE0C34
S11313600E94AA0C8111FCCF8FEA94E00197F1F757
S113137000C0000048E063EC72E082E20E94BF0C0F
S11313800E94AA0C8111FCCF089582E28093B802D6
S113139081E08093B90242E068EB72E082E20E944D
S11313A0AE0C0E94AA0C8111FCCF8FEA94E0019745
S11313B0F1F700C0000048E063EC72E082E20E94B2
S11313C0BF0C0E94AA0C8111FCCF089582E4809383
S11313D0B80281E08093B90242E068EB72E082E2F5
S11313E00E94AE0C0E94AA0C8111FCCF8FEA94E0FB
S11313F00197F1F700C0000048E063EC72E082E27C
S11314000C94BF0C83E48093B80281E08093B9020A
S113141042E068EB72E082E20E94AE0C0E94AA0CE9
S11314208111FCCF8FEA94E00197F1F700C000002E
S113143048E063EC72E082E20C94BF0CE8EBF2E06B
S113144022E120831182928383837483658346E03F
S1131450BF0182E20E94AE0C8FE39CE90197F1F791
S113146000C0000008958FEA92E00E94B6139093A2
S1131470E8028093E7028EEA92E00E94AE13809322
S1131480E002E8EBF2E081E0808380E5818385E09F
S1131490828343E0BF0182E20E94AE0C2FEF8BED0A
S11314A095E0215080409040E1F700C0000061E0E9
S11314B070E081E090E00C941E0A8BEC92E00E94B4
S11314C0B6139093E4028093E3028EEA92E00E94C2
S11314D0AE138093E002E8EBF2E081E0808381E5E3
S11314E0818385E0828343E0BF0182E20E94AE0CE7
S11314F02FEF8BED95E0215080409040E1F700C044
S1131500000061E070E081E090E00C941E0A80E14C
S113151093E00E94B61390930D0380930C038EEA1C
S113152092E00E94AE138093E002E8EBF2E081E0E7
S1131530808381E5818385E0828343E0BF0182E289
S11315400E94AE0C2FEF8BED95E02150804090402F
S1131550E1F700C0000060E070E082E093E30E94E5
S11315601E0A61E071E082E091E30E941E0A61E0DC
S113157070E081E090E00C941E0A80E18093B80250
S113158041E068EB72E082E20E94AE0C0E94AA0C79
S11315908111FCCF8FEA94E00197F1F700C00000BD
S11315A048E063E173E082E20E94BF0C0E94AA0C4F
S11315B08111FCCF88E791E00E94BF0B81EB91E0A1
S11315C00E94BF0B8AEE91E00E94BF0B809114032E
S11315D04AE06AE573E090E00E9479138AE593E0BB
S11315E00E94BF0B87EF91E00E94BF0B809115030F
S11315F04AE06AE573E090E00E9479138AE593E09B
S11316000E94BF0B87EE91E00C94BF0BFF920F93E7
S11316101F93CF93DF93CDB7DEB7A8970FB6F89497
S1131620DEBF0FBECDBF85E092E00E94BF0B85E117
S113163092E00E94BF0B03EC12E0F801808140E1CC
S11316406AE573E090E00E9479138AE593E00E94D2
S1131650BF0B87EE91E00E94BF0B85E292E00E94EF
S1131660BF0BF80181814AE06AE573E090E00E94D3
S113167079138AE593E00E94BF0B87EE91E00E9404
S1131680BF0BF801F38085E392E00E94BF0B4AE0B0
S11316906AE573E08F2D90E00E9479138AE593E068
S11316A00E94BF0B87EE91E00E94BF0B85E492E09D
S11316B00E94BF0BF801828140E1BE016F5F7F4F42
S11316C090E00E947913CE0101960E94BF0B87EE31
S11316D091E00E94BF0B85E592E00E94BF0BF801E8
S11316E0838140E1BE016F5F7F4F90E00E947913D8
S11316F0CE0101960E94BF0B87EE91E00E94BF0BC2
S113170085E692E00E94BF0BF801848140E16AE51E
S113171073E090E00E9479138AE593E00E94BF0B86
S113172087EE91E00E94BF0BA8960FB6F894DEBF37
S11317300FBECDBFDF91CF911F910F91FF90089500
S11317405D9BFECF8CB95D9BFECF089590919B006D
S113175095FFFCCF80939C0080919B0085FFFCCF7C
S11317600895FC019081992349F031965D9BFECF49
S11317709CB95D9BFECF91919111F8CF0895FC0126
S11317802081222371F0319690919B0095FFFCCF2C
S113179020939C0090919B0095FFFCCF21912111F7
S11317A0F3CF08959C01FC014491442369F0019610
S11317B0F90124915D9BFECF2CB95D9BFECF9C016A
S11317C0FC0144914111F3CF08958AB188698AB923
S11317D0E5E9F0E08081866080831092900087E6DE
S11317E089B90895EAE9F0E0808188618083EDE9B0
S11317F0F0E08081866080831092980087E6809371
S11318009900089580E89EE302C0019721F05F9B50
S1131810FCCF8CB1089580E0089580E89EE302C077
S1131820019739F020919B0027FFFACF80919C000B
S1131830089580E008951F920F920FB60F9211241D
S11318400BB60F922F933F938F939F93AF93BF93B6
S1131850EF93FF93E09171008E2F90E0FC01389795
S1131860E135F105B0F0809171008093D20384E0FA
S113187080937400FF91EF91BF91AF919F918F91ED
S11318803F912F910F900BBE0F900FBE0F901F90A2
S11318901895E957FF4F0C942B138091AB02E091FC
S11318A0D303F091D403E80FF11D8091730080837A
S11318B084E980937400DECF8091D5038093730014
S11318C01092AB0285E880937400D4CF8091AB0270
S11318D09091D603891760F7E091D303F091D40374
S11318E091E0980F9093AB02E80FF11D80818093F3
S11318F0730085E880937400BDCF85EA80937400FB
S1131900B9CF2091AB028091D60330E090E00197EB
S113191028173907DCF485EC80937400ABCFE09191
S1131920D303F091D4038091AB0221E0280F2093DC
S1131930AB02E80FF11D8091730080838091D60380
S113194030E090E00197281739072CF385E880935D
S1131950740090CF80917400817008959091740008
S113196090FDFCCF8E7F8093D5037093D403609356
S1131970D3034093D60385EA80937400089590912D
S1131980740090FDFCCF81608093D5037093D403E1
S11319906093D3034093D60385EA8093740008953B
S11319A08FEF80937300109271008CE0809370002D
S11319B0089591E0811101C090E09FB9779BFECF1B
S11319C06FB9779BFECF809162008860809362003C
S11319D080916200877F8093620008952091AD0218
S11319E0820F911DFC01808181111FC081E08093D1
S11319F0AC0281E08FB9779BFECF80E28FB9779BF1
S1131A00FECF8091620088608093620080916200C2
S1131A10877F809362008091AD028F5F8093AD02D7
S1131A20803149F1803269F008959091AC029111AE
S1131A30E0CF91E09FB9779BFECF8FB9779BFECF24
S1131A40E0CF85ED8A95F1F700001FB8779BFECFB4
S1131A5080E88FB9779BFECF809162008860809385
S1131A60620080916200877F809362001092AC02D2
S1131A701092AD020895F5EDFA95F1F700001FB844
S1131A80779BFECF80EC8FB9779BFECF809162006D
S1131A9088608093620080916200877F80936200F7
S1131AA00895660F660F660F605C1FB8779BFECFC4
S1131AB06FB9779BFECF209162002860209362006B
S1131AC020916200277F2093620025ED2A95F1F78B
S1131AD00000FC019C01285F3F4F91E081919FB978
S1131AE0779BFECF8FB9779BFECF80916200886091
S1131AF08093620080916200877F8093620085ED0D
S1131B008A95F1F70000E217F30741F7089590E48E
S1131B10899F600D1124605C1FB8779BFECF6FB95D
S1131B20779BFECF809162008860809362008091F1
S1131B306200877F809362000895811113C081E061
S1131B408FB9779BFECF80E38FB9779BFECF8091CF
S1131B50620088608093620080916200877F809336
S1131B60620008958436B0F48A3060F591E09FB93C
S1131B70779BFECF9DEC899F912D11249695969588
S1131B8096952AE0929F80191124805D8FB9779BE6
S1131B90FECFDDCF99E2899F912D112492959F70FC
S1131BA0905D21E02FB9779BFECF9FB9779BFECF45
S1131BB09091620098609093620090916200977F88
S1131BC09093620099E2899F912D112492959F70C0
S1131BD0382F24E6929F301911242DEC329F912D39
S1131BE01124969596959695905D21E02FB9779B53
S1131BF0FECF9FB9779BFECF90916200986090933F
S1131C00620090916200977F90936200AFCF87FF4C
S1131C100C949D0D91E09FB9779BFECF9DE29FB9F7
S1131C20779BFECF909162009860909362009091B0
S1131C306200977F9093620095ED9A95F1F700000A
S1131C4081950C949D0D1FB8779BFECF8EE08FB9C4
S1131C50779BFECF809162008860809362008091C0
S1131C606200877F8093620008951FB8779BFECF40
S1131C708CE08FB9779BFECF80916200886080935F
S1131C80620080916200877F8093620008951FB88C
S1131C90779BFECF8EE18FB9779BFECF8091620058
S1131CA088608093620080916200877F80936200E5
S1131CB008951FB8779BFECF88E18FB9779BFECF3D
S1131CC08091620088608093620080916200877FC7
S1131CD0809362000895E2E6F0E08081886080836A
S1131CE08081877F808308951FB8779BFECF81E032
S1131CF08FB9779BFECF80916200886080936200E9
S1131D0080916200877F809362008FE19CE101975C
S1131D10F1F700C0000008951FB8779BFECF82E062
S1131D208FB9779BFECF80916200886080936200B8
S1131D3080916200877F809362008FE697E101972C
S1131D40F1F700C0000008951FB8779BFECF80EC28
S1131D508FB9779BFECF8091620088608093620088
S1131D6080916200877F8093620008951FB8779BFB
S1131D70FECF80E88FB9779BFECF809162008860A8
S1131D808093620080916200877F8093620008954F
S1131D9090E131E020E23FB9779BFECF2FB9779BEA
S1131DA0FECF80916200886080936200809162001F
S1131DB0877F8093620085ED8A95F1F7000091504A
S1131DC051F7089591E09FB9779BFECF8FB9779B28
S1131DD0FECF8091620088608093620080916200EF
S1131DE0877F809362000895FC0140E050E060E04A
S1131DF071E0DF01A40FB51F8C917FB9779BFECFF3
S1131E008FB9779BFECF90916200986090936200A7
S1131E1090916200977F9093620085ED8A95F1F727
S1131E2000006F5F462F50E0DF010D900020E9F7BE
S1131E309D012E1B3F0B2250310924173507C8F68C
S1131E4008958FEF99EF0197F1F700C0000088E043
S1131E50809361001FB8779BFECF80E38FB9779B97
S1131E60FECF80916200886080936200809162005E
S1131E70877F809362008FE59DE60197F1F700C0AC
S1131E8000001FB8779BFECF80E38FB9779BFECF0E
S1131E908091620088608093620080916200877FF5
S1131EA0809362008FE59DE60197F1F700C0000082
S1131EB01FB8779BFECF80E38FB9779BFECF8091CD
S1131EC0620088608093620080916200877F8093C3
S1131ED062008FE59DE60197F1F700C000001FB88E
S1131EE0779BFECF88E38FB9779BFECF809162000A
S1131EF088608093620080916200877F8093620093
S1131F008FE19EE40197F1F700C000001FB8779BB2
S1131F10FECF88E08FB9779BFECF80916200886006
S1131F208093620080916200877F809362008FE1DA
S1131F309EE40197F1F700C000001FB8779BFECF25
S1131F4081E08FB9779BFECF809162008860809397
S1131F50620080916200877F809362008FE19EE43B
S1131F600197F1F700C000001FB8779BFECF86E011
S1131F708FB9779BFECF8091620088608093620066
S1131F8080916200877F809362008FE19EE40197D5
S1131F90F1F700C000001FB8779BFECF8CE08FB92B
S1131FA0779BFECF8091620088608093620080916D
S1131FB06200877F809362008FE19EE40197F1F7CE
S1131FC000C0000008954F925F926F927F928F92AB
S1131FD09F92AF92BF92CF92DF92EF92FF920F93B4
S1131FE01F93CF93DF93CDB7DEB769970FB6F894FD
S1131FF0DEBF0FBECDBF142F422E5E2C002379F01E
S11320006B017C01CC24F7FCC394DD24EE24FF2473
S11320100C2D6B017C0197FDA3C0C701B6014420C0
S113202009F496C09E012F5F3F4F59014901662470
S11320306A94640C712C3FEF631A730A6A0C7B1C5C
S11320402AE030E040E050E00E940C13E62F2A8B97
S11320503B8B4C8B5D8B6A897B898C899D8920E3C2
S11320602E0FF40121934F016E167F0649F7992430
S11320709394940CF501E40DF11D2EE220832AE0E3
S113208030E040E050E00E940C13E62F2A8B3B8B9B
S11320904C8B5D8B6E8B7F8B888F998F6A897B8944
S11320A08C899D8931E0390DD501A90DB11DE05D03
S11320B0EC93932E611571058105910501F71123A8
S11320C061F051104BC090E2311738F4F501E30F81
S11320D0F11D90833F5F1313F9CF002331F0F50115
S11320E0E30FF11D9DE290833F5F21E03150F50144
S11320F0E30FF11D90812FB9779BFECF9FB9779B9A
S1132100FECF90916200986090936200909162007B
S1132110977F9093620085ED8A95F1F70000311165
S1132120E5CF69960FB6F894DEBF0FBECDBFDF9141
S1132130CF911F910F91FF90EF90DF90CF90BF90C0
S1132140AF909F908F907F906F905F904F90089585
S1132150912C9E012F5F3F4F590191CF90E3B4CF53
S1132160F094E094D094C094C11CD11CE11CF11CE7
S113217054CF5F926F927F928F929F92AF92BF9251
S1132180CF92DF92EF92FF920F931F93CF93DF933F
S1132190CDB7DEB761970FB6F894DEBF0FBECDBFE3
S11321A05C01962E542E622E8B2C881C8824881C4D
S11321B0782C9C0197FD9DC0552009F48EC08E019A
S11321C00F5F1F4F7801CC24CA94C50CD12C8FEF1C
S11321D0C81AD80AC00ED11E6AE070E0C9010E9474
S11321E0F812462F242F372F805DF70181937F014A
S11321F0EC15FD0589F7FF24F394F50CF801E50DC2
S1132200F11D8EE2808301C0F92E6AE070E0C901FD
S11322100E94F812462F242F372F91E09F0DF801CA
S1132220EF0DF11D805D80832115310569F7611083
S113223059C0B7FC63C09920B1F0682D70E080E20A
S1132240292F30E0492D50E0461B570B2417350742
S113225054F49F5FF801E20FF31F8083292F30E0CD
S113226024173507B4F3772031F0F801E90FF11D95
S11322708DE280839F5F21E09150F801E90FF11D09
S113228080812FB9779BFECF8FB9779BFECF80914A
S1132290620088608093620080916200877F8093EF
S11322A06200F5EDFA95F1F700009111E5CF619622
S11322B00FB6F894DEBF0FBECDBFDF91CF911F9153
S11322C00F91FF90EF90DF90CF90BF90AF909F90D1
S11322D08F907F906F905F900895F12C8E010F5F27
S11322E01F4F93CF992009F4BECF682D70E080E38F
S11322F0A7CF22273327281B390B5ECFF394F394FF
S1132300F801E90FF11D8DE28083992059F02F2DFA
S113231030E0492D50E02417350724F49F2D712C0B
S113232080E297CF9F2DA7CF0E94AB060E94D00CCE
S11323300E94E50B0E94210F0E94740E809161009F
S11323408F7780936100809162008F778093620021
S113235087E687B987E886B985B5896685BD87B775
S1132360806887BF14BC8FEF84BB1FBC87B78061B4
S113237087BF80ED97E09BBD8ABD8EB588608EBD1A
S113238080B7886080BF87B7826087BF83B7896062
S113239083BF8FE381BF82E880938B0080918A00A2
S11323A0896180938A008AE090E090938100809311
S11323B0800010928700109286000E9403070E94FA
S11323C0B608C1E0D0E035E0A32EB12C44E1C42E20
S11323D05AE3E52E5AE2F52E0AE612E2DD24DA94F7
S11323E0369A349BFECF349A85B190E09093EB02F9
S11323F08093EA020E94CD070E9481070E94EA07A7
S1132400E0917C028E2F90E0FC013297E134F105DB
S113241008F44AC01092800210927F0210927E0249
S113242010927D02D0931301C09312011092870081
S11324301092860010929602109295028091940256
S11324408111D0C00E945406DBBA80918D02909114
S11324508E02019709F4AFC080917C02823409F4A2
S1132460B1C080919502909196020197B1F4809148
S11324707C02883091F02091E7023091E802ADECC3
S1132480BCEC0E94341396958795969587959695FE
S113249087950E940F077894A3CF8091160190919D
S11324A017010E940F07F7CFEA5BFF4F0C942B1321
S11324B0D0939302C0939202D0937E02C0937D0284
S11324C00E946805BFCFD0938E02C0938D021092F4
S11324D0930210929202D0938A02C0938902D093FD
S11324E08C02C0938B02D0937E02C0937D020E9423
S11324F06805A8CF0E940C0580917C028F7D809393
S11325007C02A0CFD0939602C0939502C092B502EC
S113251080917C02803109F468C08091E702909137
S1132520E80281332AE2920708F453C01093E802C8
S11325300093E70287CFD0938002C0937F0210926A
S11325401301109212010E94D5057CCF809185025F
S113255090918602892B79F410928402109283025E
S113256010928A02109289021092870010928600BB
S11325708EB58E7F8EBDD0938602C09385028091E6
S11325808302909184020A9709F05CCF109284022E
S113259010928302D0938A02C0938902B09287007A
S11325A0A09286008EB581608EBD4CCFD0939302ED
S11325B0C093920247CF80917C02803409F04CCFC3
S11325C080917C0280911401909115010E940F0763
S11325D062CF8036924208F035CFF092E802E09262
S11325E0E70230CF0E946A092DCF0E94F90095CFEF
S11325F097FB072E16F4009407D077FD09D00E94AC
S1132600431307FC05D03EF4909581959F4F0895A0
S1132610709561957F4F0895052E97FB1EF40094E5
S11326200E94231357FD07D00E94571307FC03D0C1
S11326304EF40C94231350954095309521953F4FBB
S11326404F4F5F4F089590958095709561957F4F9A
S11326508F4F9F4F0895EE0FFF1F0024001C0BBEE9
S11326600790F691E02D0994A29FB001B39FC00199
S1132670A39F700D811D1124911DB29F700D811DAA
S11326801124911D0895AA1BBB1B51E107C0AA1F69
S1132690BB1FA617B70710F0A61BB70B881F991FFF
S11326A05A95A9F780959095BC01CD010895A1E2B2
S11326B01A2EAA1BBB1BFD010DC0AA1FBB1FEE1FB8
S11326C0FF1FA217B307E407F50720F0A21BB30B03
S11326D0E40BF50B661F771F881F991F1A9469F77F
S11326E060957095809590959B01AC01BD01CF01DB
S11326F00895BB274A3031F4992322F4BDE2909522
S113270081959F4F0C948513BB27FB015527AA275E
S1132710880F991FAA1FA41710F0A41B839550516A
S1132720B9F7A05DAA3308F0A95DA193009779F7E2
S1132730B111B1931192CB010C949E13DC01FC01F5
S1132740672F71917723E1F7329704C07C916D93E1
S113275070836291AE17BF07C8F30895E199FECF65
S11327609FBB8EBBE09A99278DB30895A8E1B0E092
S113277042E050E00C94D013262FE199FECF9FBB8A
S11327808EBB2DBB0FB6F894E29AE19A0FBE019668
S113279008950E94BC13272F0C94BD13DC01CB01B8
S11327A0FC01E199FECF06C0FFBBEEBBE09A319677
S11327B00DB20D9241505040B8F70895F894FFCFF0
S11327C0C0F9A4B0999282F88098FF077FFF0000B7
S11327D000000100B004E8036C6F63616C3A2020D0
S11327E0202020202020202072656D6F74653A20FF
S11327F02020202020202020414C41524D00000068
S113280000000000000000000000000000000000C4
S11328100000000000000000524144494F00000045
S113282000000000000000000000000000000000A4
S11328300000000000000000536934373334205294
S113284065763A20206C617374203220646967696C
S11328507473206F662070617274206E6F2E202056
S113286020636869702072657620202020200A0D7C
S113287000202020202020202020202020202D2D5A
S11328802D2D2D2D2D2D2D2D2D2D2D2D2D2D2D2D74
S11328902D2D2D2D2D2D2D2020202D2D2D2D2D2D8B
S11328A02D2D20202020200A0D0020202020202053
S11328B02020202020202020202020202020202014
S11328C02020202000464D5F5253515F5354415401
S11328D055533A200073746174757320627974657A
S11328E02020203A0072657370312020202020209F
S11328F02020203A006672657120202020202020AC
S11329002020203A0066726571206869676820207B
S11329102020203A0066726571206C6F7720202099
S11329202020203A00727373692020202020202068
S10929302020203A000003
S9030000FC
