S0120000726164696F5F746573742E73726563E4
S11300000C9497000C94B6000C94B6000C94B600B3
S11300100C94B6000C94B6000C94B6000C94B60084
S11300200C94BE000C94B6000C94B6000C94B6006C
S11300300C94B6000C94B6000C94B6000C94B60064
S11300400C94B6000C94B6000C94B6000C94B60054
S11300500C94B6000C94B6000C94B6000C94B60044
S11300600C94B6000C94B6000C94B6000C94B60034
S11300700C94B6000C94B6000C94B6000C94B60024
S11300800C94B6000C9429040C94B6006A04410440
S11300904104410441044104410441046A0441040B
S11300A041044104410441044104410474044104F1
S11300B04104410441044104410441044104410414
S11300C041044104410441044104410474044104D1
S11300D041044104410441044104410441044104F4
S11300E04104410441044104410441048B0441049A
S11300F04104410441044104410441048F04410486
S113010041044104410441044104410441044104C3
S11301104104410441044104410441049D04410457
S11301204104410441044104410441045B04112499
S11301301FBECFEFD0E1DEBFCDBF11E0A0E0B1E044
S1130140E2E5FBE000E00BBF02C007900D92AE3F7A
S1130150B107D9F722E0AEEFB1E001C01D92A53E90
S1130160B207E1F70E94E7040C94A7050C94000081
S11301708FB9779BFECF929A929808951F920F920F
S11301800FB60F9211248F9381E080931C0280E2BA
S11301908FB9779BFECF929A92988F910F900FBE52
S11301A00F901F90189587B3876087BB81E08EB945
S11301B083E08ABB84E081BB089582E880938B004E
S11301C0EAE8F0E08081896180838AE090E090939E
S11301D081008093800087E090E090938700809373
S11301E0860008951F98179A1A9A8FE193E0019751
S11301F0F1F700C000001A9890EA9A95F1F7179861
S1130200089584E18093040241E064E072E082E2B4
S11302100E94BC040E94B8048111FCCF8FEA94E0D0
S11302200197F1F700C0000041E061E372E082E26F
S11302300E94CD040E94B8048111FCCF8091310248
S1130240089580E2809304021092050280911A02BC
S113025090911B0290930602809307021092080269
S113026010921C0245E064E072E082E20E94BC0449
S113027080911C028823E1F3089580E480930402B2
S1130280109205028091180290911902909306022F
S113029080930702109208021092090210921C0225
S11302A046E064E072E082E20E94BC0480911C0299
S11302B08823E1F30895E4E0F2E080E4808311828E
S11302C080911D0290911E0292838383148281E0A7
S11302D0858346E0BF0182E20E94BC042FEF87EED3
S11302E093E0215080409040E1F700C00000089561
S11302F080910202909103028130910551F100F145
S1130300029741F460911D0270911E028FE192E008
S11303100E949205609117028FEF91E00E9485057B
S113032081E18093040241E064E072E082E20E9491
S1130330BC0487ED94E00197F1F700C00000089534
S113034060911A0270911B0280E092E00E94920573
S1130350E1CF609118027091190285E192E00E9448
S11303609205D8CF83E28093040281E08093050252
S113037042E064E072E082E20E94BC040E94B8049D
S11303808111FCCF8FEA94E00197F1F700C00000DF
S113039048E06DE072E082E20E94CD040E94B8045D
S11303A08111FCCF089582E28093040281E080935E
S11303B0050242E064E072E082E20E94BC040E9412
S11303C0B8048111FCCF8FEA94E00197F1F700C0E3
S11303D0000048E06DE072E082E20E94CD040E94D9
S11303E0B8048111FCCF089582E48093040281E073
S11303F08093050242E064E072E082E20E94BC0461
S11304000E94B8048111FCCF8FEA94E00197F1F7C0
S113041000C0000048E06DE072E082E20C94CD047C
S113042083E48093040281E08093050242E064E067
S113043072E082E20E94BC040E94B8048111FCCFE5
S11304408FEA94E00197F1F700C0000048E06DE006
S113045072E082E20C94CD04E4E0F2E022E1208335
S11304601182928383837483658346E0BF0182E2B1
S11304700E94BC048FE39CE90197F1F700C00000DF
S1130480089580E092E00E947F0590931B02809380
S11304901A028FEF91E00E94770580931702E4E03F
S11304A0F2E081E0808380E5818385E0828343E01C
S11304B0BF0182E20E94BC042FEF8BED95E0215036
S11304C080409040E1F700C0000061E070E081E00E
S11304D090E00C942C0285E192E00E947F059093B9
S11304E01902809318028FEF91E00E9477058093A0
S11304F01702E4E0F2E081E0808381E5818385E016
S1130500828343E0BF0182E20E94BC042FEF8BEDA3
S113051095E0215080409040E1F700C0000061E088
S113052070E081E090E00C942C028FE192E00E9454
S11305307F0590931E0280931D028FEF91E00E942D
S1130540770580931702E4E0F2E081E0808381E59F
S1130550818385E0828343E0BF0182E20E94BC0480
S11305602FEF8BED95E0215080409040E1F700C0E3
S1130570000060E070E082E093E30E942C0261E0FE
S113058071E082E091E30E942C0261E070E081E07E
S113059090E00C942C0280E18093040241E064E03A
S11305A072E082E20E94BC040E94B8048111FCCF74
S11305B08FEA94E00197F1F700C0000048E061E29F
S11305C072E082E20E94CD040E94B8048111FCCF43
S11305D080E091E00E94CD0389E391E00E94CD0385
S11305E082E791E00E94CD03809122024AE068E60E
S11305F072E090E00E94420588E692E00E94CD03FA
S11306008FE791E00E94CD03809123024AE068E6DF
S113061072E090E00E94420588E692E00E94CD03D9
S11306208FE691E00C94CD03FF920F931F93CF9329
S1130630DF93CDB7DEB7A8970FB6F894DEBF0FBE31
S1130640CDBF8DE891E00E94CD038DE991E00E9439
S1130650CD030DE012E0F801808140E168E672E02C
S113066090E00E94420588E692E00E94CD038FE666
S113067091E00E94CD038DEA91E00E94CD03F80140
S113068081814AE068E672E090E00E94420588E6D3
S113069092E00E94CD038FE691E00E94CD03F80121
S11306A0F3808DEB91E00E94CD034AE068E672E0AE
S11306B08F2D90E00E94420588E692E00E94CD03CF
S11306C08FE691E00E94CD038DEC91E00E94CD0372
S11306D0F801828140E1BE016F5F7F4F90E00E948C
S11306E04205CE0101960E94CD038FE691E00E945F
S11306F0CD038DED91E00E94CD03F801838140E1AB
S1130700BE016F5F7F4F90E00E944205CE010196CB
S11307100E94CD038FE691E00E94CD038DEE91E01F
S11307200E94CD03F801848140E168E672E090E024
S11307300E94420588E692E00E94CD038FE691E094
S11307400E94CD03A8960FB6F894DEBF0FBECDBFAE
S1130750DF91CF911F910F91FF9008955D9BFECF84
S11307608CB95D9BFECF089590919B0095FFFCCFC3
S113077080939C0080919B0085FFFCCF0895FC0131
S11307809081992349F031965D9BFECF9CB95D9B86
S1130790FECF91919111F8CF0895FC01208122237D
S11307A071F0319690919B0095FFFCCF20939C00B3
S11307B090919B0095FFFCCF21912111F3CF0895D7
S11307C09C01FC014491442369F00196F9012491B0
S11307D05D9BFECF2CB95D9BFECF9C01FC01449137
S11307E04111F3CF08958AB188698AB9E5E9F0E047
S11307F08081866080831092900087E689B908958D
S1130800EAE9F0E0808188618083EDE9F0E08081AD
S1130810866080831092980087E6809399000895FB
S113082080E89EE302C0019721F05F9BFCCF8CB16E
S1130830089580E0089580E89EE302C0019739F0AE
S113084020919B0027FFFACF80919C00089580E0BF
S113085008951F920F920FB60F9211240BB60F92A8
S11308602F933F938F939F93AF93BF93EF93FF93F4
S1130870E09171008E2F90E0FC013897E135F1058D
S1130880B0F0809171008093E00284E08093740062
S1130890FF91EF91BF91AF919F918F913F912F91D4
S11308A00F900BBE0F900FBE0F901F901895EA5B30
S11308B0FF4F0C9439058091FE01E091E102F09123
S11308C0E202E80FF11D80917300808384E9809334
S11308D07400DECF8091E302809373001092FE01D6
S11308E085E880937400D4CF8091FE019091E40256
S11308F0891760F7E091E102F091E20291E0980F2C
S11309009093FE01E80FF11D80818093730085E8C8
S113091080937400BDCF85EA80937400B9CF209191
S1130920FE018091E40230E090E001972817390736
S1130930DCF485EC80937400ABCFE091E102F0919C
S1130940E2028091FE0121E0280F2093FE01E80FCE
S1130950F11D8091730080838091E40230E090E087
S11309600197281739072CF385E88093740090CFFA
S113097080917400817008959091740090FDFCCF73
S11309808E7F8093E3027093E2026093E1024093CE
S1130990E40285EA8093740008959091740090FDB8
S11309A0FCCF81608093E3027093E2026093E102E2
S11309B04093E40285EA8093740008958FEF809356
S11309C07300109271008CE080937000089587B3D7
S11309D0876087BB81E08EB983E08ABB84E081BBFA
S11309E00E94DE0482E880938B0080918A008961F2
S11309F080938A008AE090E0909381008093800045
S1130A0087E090E090938700809386000E94F30330
S1130A1078948AB7806C8ABF89B7806889BF129A34
S1130A20169A139A1A9A1E9A0E94F20080E28FB9BB
S1130A30779BFECF929A92980E9441028FE99FE0A1
S1130A400197F1F700C000000E94B8048111FCCFA7
S1130A5086E097E290931B0280931A028FE891E05C
S1130A600197F1F700C000000E94210180E090E0AE
S1130A700895EE0FFF1F0024001C0BBE0790F69193
S1130A80E02D0994BB274A3031F4992322F4BDE2C6
S1130A90909581959F4F0C944E05BB27FB015527DC
S1130AA0AA27880F991FAA1FA41710F0A41B8395C7
S1130AB05051B9F7A05DAA3308F0A95DA19300973E
S1130AC079F7B111B1931192CB010C946705DC0154
S1130AD0FC01672F71917723E1F7329704C07C9171
S1130AE06D9370836291AE17BF07C8F30895E199BF
S1130AF0FECF9FBB8EBBE09A99278DB30895A8E1E2
S1130B00B0E042E050E00C949905262FE199FECF25
S1130B109FBB8EBB2DBB0FB6F894E29AE19A0FBE31
S1130B20019608950E948505272F0C948605DC0103
S1130B30CB01FC01E199FECF06C0FFBBEEBBE09AFE
S1130B4031960DB20D9241505040B8F70895F89483
S1050B50FFCFD1
S1130B52536934373334205265763A20206C6173FA
S1130B6274203220646967697473206F662070612F
S1130B727274206E6F2E2020206368697020726563
S1130B827620202020200A0D002020202020202052
S1130B922020202020202D2D2D2D2D2D2D2D2D2DCD
S1130BA22D2D2D2D2D2D2D2D2D2D2D2D2D2D2D207C
S1130BB220202D2D2D2D2D2D2D2D20202020200ADD
S1130BC20D00202020202020202020202020202052
S1130BD220202020202020202020202000464D5F9D
S1130BE25253515F5354415455533A200073746124
S1130BF274757320627974652020203A00726573DB
S1130C0270312020202020202020203A00667265A6
S1130C1271202020202020202020203A00667265A6
S1130C2271206869676820202020203A0066726576
S1130C3271206C6F772020202020203A0072737379
S1110C4269202020202020202020203A0000BD
S9030000FC
