S00C00006C6162332E73726563B6
S11300000C9446000C9465000C9465000C946500F7
S11300100C9465000C9465000C9465000C946500C8
S11300200C9465000C9465000C9465000C946500B8
S11300300C9465000C9465000C9465000C946500A8
S11300400C9467000C9465000C9465000C94650096
S11300500C9465000C9465000C9465000C94650088
S11300600C9465000C9465000C9465000C94650078
S11300700C9465000C9465000C9465000C94650068
S11300800C9465000C9465000C94650011241FBE4B
S1130090CFEFD0E1DEBFCDBF11E0A0E0B1E0E2E9F7
S11300A0F5E000E00BBF02C007900D92A231B1074A
S11300B0D9F721E0A2E1B1E001C01D92A832B20754
S11300C0E1F70E9456020C94C7020C9400001F92A0
S11300D00F920FB60F9211248F939F93CF93DF93B8
S11300E000D000D0CDB7DEB78BB390E0909325015C
S11300F08093240188B390E0909327018093260194
S11301008091190190911A019C838B83809117012E
S1130110909118019A838983809123018F5F809342
S113012023011E981E9A80E28FB9779BFECF8FB170
S1130130809316019091160180911601827090FDB2
S113014030C081114DC082E090E090931A018093F9
S1130150190180911701909118010196909318014B
S1130160809317018091190190911A01049771F1FC
S113017080912401909125018BBB8091260190915F
S1130180270188BB8FEF8ABB0F900F900F900F90C1
S1130190DF91CF919F918F910F900FBE0F901F9081
S11301A018958111DFCF10921A01109219018091D4
S11301B017019091180101969093180180931701EB
S11301C08091190190911A01049791F680911B0175
S11301D090911C01019690931C0180931B01C8CF40
S11301E08091190190911A01019690931A018093BC
S11301F019011092180110921701B4CF80911901BE
S113020090911A01049709F0089580911B0190912F
S11302101C01019690931C0180931B0108951ABA46
S11302208FEF8BBB80E588BB08951E981E9A80E2F1
S11302308FB9779BFECF8FB180931601089581FB10
S1130240992790F94091210150912201440F551FA3
S1130250406E282F217030E0242B352B309322015F
S113026020932101203F310511F4892F08958FEF48
S1130270089549B320911F0130912001220F331FAB
S1130280306E842F817090E0282B392B309320011D
S113029020931F0181E02115304F09F080E008957B
S11302A049B320911D0130911E01220F331F306E7E
S11302B041FB882780F990E0282B392B30931E01CD
S11302C020931D0181E02115304F09F080E008954D
S11302D01ABA8FEF8BBB80E588BB69B380911F018D
S11302E090912001880F991F906E262F217030E085
S11302F0822B932B9093200180931F018115904FA3
S1130300B1F029B380911D0190911E01880F991FAE
S1130310906E21FB442740F950E0842B952B909359
S11303201E0180931D018115904F21F0089580E0F6
S113033090E0089581E090E008958DB180658DB9D5
S11303400895CF93DF93AC010097B9F48091000135
S113035080930C0180910B0180930E01E0E0F0E0AA
S113036080910A01A2E1B1E0E35FFE4F8E93AE17E4
S1130370BF07E1F7DF91CF9108959C01ADECBCEC90
S11303800E94B80296958795969587959695879538
S11303909C01220F331F880F991F880F991F880F04
S11303A0991F820F931F9A01281B390BC901E0E0A2
S11303B0F0E0DF01A45FBE4FEC01C050DF4F888145
S11303C08C939A01ADECBCEC0E94B802AC0156953A
S11303D0479556954795569547953196411551053C
S11303E001F19A01ADECBCEC0E94B8029695879598
S11303F096958795969587959C01220F331F880FB4
S1130400991F880F991F880F991F820F931F9A01B4
S1130410281B390BC901E230F10559F6E3E0F0E09D
S1130420C8CF80910B0180930E01E530F1050CF4E7
S113043097CFDF91CF9108950895929A089590915E
S1130440160180911601827090FD12C0811120C0A6
S113045082E090E090931A01809319018091170132
S113046090911801019690931801809317010895B3
S11304708111FDCF10921A01109219018091170178
S11304809091180101969093180180931701089593
S11304908091190190911A01019690931A01809309
S11304A019011092180110921701089587B3806FF3
S11304B087BB83E08ABB84E081BB87B3876087BB4B
S11304C08FEF82B98DB180658DB987B7816087BFA1
S11304D083B7856083BF1FEF00E7CFEFD3E01BBB7B
S11304E08FE891E00197F1F700C0000008BB20916C
S11304F01B0130911C01211594E0390774F110920D
S11305001C0110921B0180E090E00E94A10118BA26
S1130510ECE0F1E080E0982F9295907F98BB919168
S11305209BBB98B3903461F0AFE8B1E01197F1F759
S113053000C000008F5F853071F71ABB7894CFCF6D
S113054020911B0130911C01283E33406CF790919F
S11305500A01909311019BBBE7CF37FF07C0D093EB
S11305601C01C0931B018FEF93E0CFCFC901CDCF06
S1130570A29FB001B39FC001A39F700D811D1124E0
S1130580911DB29F700D811D1124911D0895F89441
S1050590FFCF97
S1130592C0F9A4B0999282F88098FF07C0000000C5
S10505A200054E
S9030000FC
